:100000000C94D3040C9404050C9404050C9404057E
:100010000C9404050C9404050C9404050C9404053C
:100020000C9404050C9404050C9404050C9404052C
:100030000C9404050C9404050C9404050C9404051C
:100040000C9404050C9404050C9404050C9404050C
:100050000C9404050C9404050C9404050C942310D2
:100060000C9404050C9497100C946D100C940405DA
:100070000C9404050C9404050C9404050C940405DC
:100080000C9404050C9404050C9404050C940405CC
:100090000C9404050C9404050C9404050C94CD10E8
:1000A0000C9404050C9404050C9404050C940405AC
:1000B0000C9404050C9404050C9404050C9404059C
:1000C0000C9404050C9404050C9404050C9404058C
:1000D0000C9404050C9404050C9404050C9404057C
:1000E0000C9404050C9468060C94C60B0C943A0608
:1000F0000C9448070C9442060C9421100C944A0668
:100100000C948B060C942E050C945C090C94120F25
:100110000C94A7070C9464050C9477060C941C06A9
:100120000C945E060C943F050C9417060C9447073C
:100130000C948E0F0C942F090C94A9060C94720A3F
:100140000C9485070C949F060C9439050C94320589
:100150000C941F100C94350E0C942A050C94650514
:100160000C9406090C9499070C9430060C9415090C
:100170000C9443050C9424050C9451050C945B05D8
:100180000C94F1110C9476070C9457050C942809E3
:100190000C9469050C9454060C940F060C944907B2
:1001A0000C94DF070C9426060C9449050C94470820
:1001B0000C94B50D0C9481060C944D050C945F05C0
:1001C0000C94150C0C9436050C9495060C940509AA
:1001D0000A094177616974696E6720352073656328
:1001E0006F6E647320666F722073797374656D73BC
:1001F0002073746162696C697A6174696F6E2E2E06
:100200002E000A094163747561746F72206C697302
:10021000742E2E2E2E2E2E2E2E2E2E2E2E2E3A20BA
:10022000000A0953656E736F72206C6973742E2E09
:100230002E2E2E2E2E2E2E2E2E2E2E2E2E3A20000E
:100240000A09486172647761726520766572736924
:100250006F6E2E2E2E2E2E2E2E2E2E2E3A20000A91
:10026000094669726D776172652076657273696F90
:100270006E2E2E2E2E2E2E2E2E2E2E3A20000A09D7
:10028000436F6D6D756E69636174696F6E20696E21
:10029000746572666163652E2E2E3A20000A094D40
:1002A00043552064657669636520626F6172642ED0
:1002B0002E2E2E2E2E2E2E2E2E3A20000A09506F74
:1002C00077657220737570706C792E2E2E2E2E2EFF
:1002D0002E2E2E2E2E2E2E2E3A2000537461727446
:1002E000696E67204154532D30322E2E2E00232369
:1002F00023232323232323232323232323232323CE
:1003000023232323232323232323232323232323BD
:1003100023232323232323232323230A00232020EF
:1003200020202020202020646576656C6F70656435
:10033000206279204167726F546563684C61622066
:10034000202020202020202020230A0023202020DD
:100350002020202020202020202020202043616DEC
:10036000707573204C616765732020202020202049
:100370002020202020202020230A002320202020AD
:10038000496E7374697475746F2046656465726133
:100390006C2064652053616E7461204361746172E6
:1003A000696E6120202020230A00232020202020A5
:1003B000202020202020204167726F5465636853FD
:1003C000746174696F6E202D20303220202020202F
:1003D000202020202020230A00232020202020204D
:1003E0002020202020202020202020202041545385
:1003F0002D303220202020202020202020202020CE
:100400002020202020230A000A2323232323232320
:1004100023232323232323232323232323232323AC
:10042000232323232323232323232323232323239C
:100430002323232323230A005B4641494C5D0020EC
:1004400025000A0909095265736F6C7574696F6E2E
:100450002E2E2E2E2E2E3A202020002025000A0996
:1004600009094D6178696D756D2076616C75652E31
:100470002E2E3A20002025000A0909094D696E69CF
:100480006D756D2076616C75652E2E2E3A202020BC
:10049000000A09094169722048756D6964697479B7
:1004A0002000206F43000A0909095265736F6C75BB
:1004B00074696F6E2E2E2E2E2E2E3A2020200020B4
:1004C0006F43000A0909094D6178696D756D2076E1
:1004D000616C75652E2E2E3A2000206F43000A09AC
:1004E00009094D696E696D756D2076616C75652EB3
:1004F0002E2E3A20000A09094169722054656D7058
:10050000657261747572652000206D73000A0909B7
:100510004D696E696D756D2064656C61792E3A2048
:10052000000A0909556E697175652049442E2E2E01
:100530002E2E3A20000A09094472697665722076E7
:10054000657273696F6E3A20000A090953656E730C
:100550006F7220747970652E2E2E3A20000A094998
:100560006E6974696174696E6720444854207365CC
:100570006E736F722E2E2E20005B4248313735305D
:100580005D204552524F523A20756E646566696E21
:100590006564206572726F72005B42483137353096
:1005A0005D204552524F523A206F74686572206543
:1005B00072726F72005B4248313735305D204552B0
:1005C000524F523A207265636569766564204E41E8
:1005D000434B206F6E207472616E736D6974206F6F
:1005E000662064617461005B4248313735305D20BC
:1005F0004552524F523A20726563656976656420B0
:100600004E41434B206F6E207472616E736D69743E
:10061000206F662061646472657373005B424831C9
:100620003735305D204552524F523A20746F6F205B
:100630006C6F6E6720666F72207472616E736D6985
:100640007420627566666572005B424831373530EA
:100650005D204552524F523A20756E646566696E50
:100660006564206572726F72005B424831373530C5
:100670005D204552524F523A206F74686572206572
:1006800072726F72005B4248313735305D204552DF
:10069000524F523A207265636569766564204E4117
:1006A000434B206F6E207472616E736D6974206F9E
:1006B000662064617461005B4248313735305D20EB
:1006C0004552524F523A20726563656976656420DF
:1006D0004E41434B206F6E207472616E736D69746E
:1006E000206F662061646472657373005B424831F9
:1006F0003735305D204552524F523A20746F6F208B
:100700006C6F6E6720666F72207472616E736D69B4
:100710007420627566666572005B4F4B5D000A0966
:10072000496E6974696174696E67205556207365F6
:100730006E736F722E2E2E20005B4641494C5D0079
:100740005B4F4B5D000A0909496E69746961746900
:100750006E67206C696768742073656E736F722EA4
:100760002E2E20005B4F4B5D000A09496E697469AB
:100770006174696E67204932433120696E74657215
:1007800066616365206173206D61737465722E2EDE
:100790002E2000000020002300260029002C002F1E
:1007A000003200000100000301060109015B42481C
:1007B000313735305D204465766963652069732083
:1007C0006E6F7420636F6E66696775726564210071
:1007D0004572726F722072656164696E672061692B
:1007E000722068756D696469747921002025000A9A
:1007F0004169722068756D69646974793A200045B1
:1008000072726F722072656164696E6720616972CD
:100810002074656D70657261747572652100206F5A
:1008200043000A4169722074656D70657261747568
:1008300072653A20004661696C2072656164696E78
:10084000672055562073656E736F722E2E2E002012
:100850006D696C69566F6C7473203D3E20496E64FF
:1008600065783A20000A55562074656E73696F6E7C
:100870003A2000206C7578000A4C696768743A2049
:10088000004661696C2072656164696E67206C69FD
:100890006768742073656E736F722E2E2E000000D1
:1008A0002100240027002A002D0030003300010120
:1008B0000000040107010A010000220025002800B1
:1008C0002B002E0031003400020100000501080158
:1008D0000B0100000A0B02090C0D0E0807030401AE
:1008E0000000000000000000000000000000000008
:1008F00000000000000000000000000000001211D5
:1009000010000000000000000000000000000000D7
:1009100000000000000000000505050507050808A7
:100920000808020202020A0A080804040404010179
:10093000010101010101030303030303030304078E
:1009400007070C0C0C0C0C0C0C0C02020202060625
:100950000606060606060B0B0B0B0B0B0B0B010218
:1009600010202008081020401020408002010201C1
:100970000804020101020408102040808040201079
:1009800008040201800402018040201008040201D2
:10099000080402010102040810204080010204083A
:1009A00010204080F11111241FBECFEFD1E2DEBF35
:1009B000CDBF00E00CBF13E0A0E0B2E0EEE6FCE348
:1009C00000E00BBF02C007900D92A835B107D9F720
:1009D00025E0A8E5B3E001C01D92A832B207E1F717
:1009E00014E0C3EDD4E000E006C021970109802F98
:1009F000FE010E94AD1AC23DD10780E00807A9F7A9
:100A00000E9496120C94351E0C9400008150823185
:100A100008F05AC0E82FF0E08827EE5EFA4F8F4FBB
:100A20000C94AD1A3205360524052A052E056405F9
:100A300039053F05430549054D05510557055B053A
:100A400064055F0565056905809180008F77809357
:100A500080000895809180008F7DF9CF8091800083
:100A6000877FF5CF84B58F7784BD089584B58F7D5A
:100A7000FBCF8091B0008F778093B0000895809174
:100A8000B0008F7DF9CF809190008F778093900098
:100A90000895809190008F7DF9CF80919000877F9D
:100AA000F5CF8091A0008F778093A000089580916A
:100AB000A0008F7DF9CF8091A000877FF5CF809136
:100AC00020018F77809320010895809120018F7DF0
:100AD000F9CF80912001877FF5CF1F93CF93DF93CC
:100AE000282F30E0F901EE52F74F8491F901E25AD4
:100AF000F64FD491F901E85EF64FC491CC23A9F0EA
:100B0000162F81110E940605EC2FF0E0EE0FFF1F5B
:100B1000E854F74FA591B4918FB7F894EC91111167
:100B200008C0D095DE23DC938FBFDF91CF911F915A
:100B30000895DE2BF8CFCF93DF9390E0FC01E25ACB
:100B4000F64F2491885E964FFC0184918823C9F06A
:100B500090E0880F991FFC01E256F74FA591B491E0
:100B6000FC01E854F74FC591D49161110DC09FB7B6
:100B7000F8948C91209582238C9388812823288354
:100B80009FBFDF91CF910895623051F49FB7F894E1
:100B90003C91822F809583238C93E8812E2BEFCF7D
:100BA0008FB7F894EC912E2B2C938FBFEACF1F9325
:100BB000CF93DF93182FEB0161E00E949B052097F4
:100BC00039F460E0812FDF91CF911F910C946D0576
:100BD000CF3FD10511F461E0F5CFE12FF0E0EE5207
:100BE000F74FE491E150E23108F0B3C0F0E088271C
:100BF000E350FA4F8F4F0C94AD1A0F0617061C06E0
:100C000026063006A9063A0642064A0654065E063D
:100C1000680677068106A9068B0695069F0684B5A9
:100C2000806884BDC7BDDF91CF911F91089584B5C1
:100C3000806284BDC8BDF7CF8091800080688093BA
:100C40008000D0938900C0938800EDCF8091800010
:100C5000806280938000D0938B00C0938A00E3CFA2
:100C600080918000886080938000D0938D00C09335
:100C70008C00D9CF8091B00080688093B000C09381
:100C8000B300D1CF8091B00080628093B000C09358
:100C9000B400C9CF80919000806880939000D09379
:100CA0009900C0939800BFCF80919000806280939C
:100CB0009000D0939B00C0939A00B5CF8091900094
:100CC000886080939000D0939D00C0939C00ABCF30
:100CD0008091A00080688093A0008091A0008F7B0D
:100CE0008093A000D093A900C093A8009CCF8091CE
:100CF000A00080628093A000D093AB00C093AA00B4
:100D000092CF8091A00088608093A000D093AD0026
:100D1000C093AC0088CF809120018068809320012F
:100D2000D0932901C09328017ECF80912001806259
:100D300080932001D0932B01C0932A0174CF80911E
:100D40002001886080932001D0932D01C0932C0155
:100D50006ACFC038D1050CF03ECF33CFCF93DF93AD
:100D6000D72FC82F80912305681B770B77FF03C00F
:100D7000719561957109809120050E94D705809138
:100D800023052D2F281B330BB90137FF03C07195A5
:100D900061957109809121050E94D70580912305F5
:100DA0002C2F281B330BB90137FF03C071956195B8
:100DB000710980912205DF91CF910C94D70560E0F5
:100DC00070E080E00C94AE063FB7F89480913F0449
:100DD00090914004A0914104B091420426B5A89B93
:100DE00005C02F3F19F00196A11DB11D3FBFBA2FBD
:100DF000A92F982F8827BC01CD01620F711D811D7D
:100E0000911D42E0660F771F881F991F4A95D1F701
:100E100008958F929F92AF92BF92CF92DF92EF92FE
:100E2000FF924B015C010E94E4066B017C010E9471
:100E3000E4066C197D098E099F09683E734081059F
:100E40009105A8F321E0821A9108A108B10888EE63
:100E5000C80E83E0D81EE11CF11C81149104A1048A
:100E6000B10429F7FF90EF90DF90CF90BF90AF9043
:100E70009F908F9008952FB7F89460913B047091E4
:100E80003C0480913D0490913E042FBF0895089545
:100E90000895AF92BF92CF92DF92EF92FF920F939D
:100EA0001F93CF93DF936C017B018B01040F151F00
:100EB000EB015E01AE18BF08C017D10759F0699168
:100EC000D601ED91FC910190F081E02DC6011995BC
:100ED000892B79F7C501DF91CF911F910F91FF9079
:100EE000EF90DF90CF90BF90AF900895FC01538DAD
:100EF000448D252F30E0842F90E0821B930B5417F4
:100F000010F0CF96089501970895FC01918D828D80
:100F1000981761F0A28DAE0FBF2FB11D5D968C9119
:100F2000928D9F5F9F73928F90E008958FEF9FEF58
:100F30000895FC01918D828D981731F0828DE80F14
:100F4000F11D858D90E008958FEF9FEF0895FC01CE
:100F5000918D228D892F90E0805C9F4F821B91099B
:100F60008F739927089583E494E00E94A70721E0F6
:100F7000892B09F420E0822F0895FC01A48DA80F8D
:100F8000B92FB11DA35ABF4F2C91848D90E00196CB
:100F90008F739927848FA689B7892C93A089B189EB
:100FA0008C91837080648C93938D848D981306C08C
:100FB0000288F389E02D80818F7D80830895EF92F0
:100FC000FF920F931F93CF93DF93EC0181E0888F03
:100FD0009B8D8C8D98131AC0E889F989808185FFD3
:100FE00015C09FB7F894EE89FF896083E889F98975
:100FF00080818370806480839FBF81E090E0DF9177
:10100000CF911F910F91FF90EF900895F62E0B8DC9
:1010100010E00F5F1F4F0F731127E02E8C8D8E1184
:101020000CC00FB607FCFACFE889F989808185FFEB
:10103000F5CFCE010E94BD07F1CFEB8DEC0FFD2F58
:10104000F11DE35AFF4FF0829FB7F8940B8FEA89A6
:10105000FB8980818062CFCF0F931F93CF93DF9363
:101060008C01D0E0C0E0F801EC0FFD1F6491662315
:1010700041F083E494E00E94DF07892B11F0219670
:10108000F2CFCE01DF91CF911F910F910895CF93B1
:10109000DF93EC01888D8823B9F0AA89BB89E889A0
:1010A000F9898C9185FD03C0808186FD0DC00FB646
:1010B00007FCF7CF8C9185FFF2CF808185FFEDCFC4
:1010C000CE010E94BD07E9CFDF91CF91089580E066
:1010D00090E0892B29F00E94B30781110E94000043
:1010E00080E090E0892B49F080E090E0892B29F0A6
:1010F0000E94000081110E94000080E090E0892B96
:1011000049F080E090E0892B29F00E9400008111D5
:101110000E94000080E090E0892B49F080E090E0A0
:10112000892B29F00E94000081110C940000089581
:10113000DC01ED91FC910190F081E02D199420915A
:101140009903260F3327331F21323105ECF4209108
:10115000EB03FC0190E080E0243069F082E0089528
:10116000A09199032191AC0147585C4FA40FB52F72
:10117000B11D2C930196861798F380919903680FFF
:101180006093990380E0089581E008951092EB0345
:1011900081E08093EA031092E50361E084E10E941C
:1011A0006D0561E085E10E946D05E9EBF0E080816D
:1011B0008E7F808380818D7F808388E48093B800D8
:1011C00085E48093BC000895CF93DF9391E09093E2
:1011D00078038823B9F0C091B800D091BA0080910B
:1011E000BC008A7B8093BC0060E084E10E946D05B6
:1011F00060E085E10E946D050E94C608D093BA00A8
:10120000C093B800DF91CF9108950895E091F20363
:101210008091F103E81730F4F0E0ED50FC4F80814D
:1012200090E008958FEF9FEF08959091F2038091E1
:10123000F1032FEF3FEF981748F4E92FF0E0ED505E
:10124000FC4F208130E09F5F9093F203C901089525
:101250008091F1039091F203891B990B0895CF922D
:10126000DF92EF92FF920F931F93CF93DF937C0156
:10127000CB018A012091C303222389F0EB016B018A
:10128000C40ED51ECC15DD0569F06991D701ED912D
:10129000FC910190F081E02DC7011995F3CF642FE7
:1012A0000E949F08C801DF91CF911F910F91FF907D
:1012B000EF90DF90CF900895CF93DF931F92CDB73B
:1012C000DEB769832091C3032223F9F02091C00384
:1012D000203258F021E030E0FC013383228390E09B
:1012E00080E00F90DF91CF9108958091C103E82FA6
:1012F000F0E0E85AFC4F998190838F5F8093C1039F
:101300008093C00381E090E0ECCF61E0CE010196D4
:101310000E949F08F7CFCF92DF92EF92FF920F9338
:101320001F93CF93DF93D091C00381E0D13208F0B7
:101330009CC0C091C2030E94E4066B017C018091B5
:10134000EB0381116CC082E08093EB0381E080931A
:10135000EA038FEF8093E9031092E803D093E70349
:10136000A8E5B3E0E5ECF3E080E0D8138DC010927F
:10137000E6038091E603CC0FC82BC093E60380916F
:10138000E503813009F084C01092E5030E94E40671
:101390006B017C018091E6038093BB008091ED039B
:1013A0009091EE03A091EF03B091F003892B8A2B6B
:1013B0008B2BA1F00E94E4060091ED031091EE0347
:1013C0002091EF033091F0036C197D098E099F097C
:1013D000061717072807390708F442C08091BC0098
:1013E00083FDD8CF85EC8093BC000E94E4066B019E
:1013F0007C018091EB03823009F44CC08091E903B9
:101400008F3F09F469C08091E903803209F466C016
:101410008091E903803309F463C084E026C08091A1
:10142000ED039091EE03A091EF03B091F003892BAF
:101430008A2B8B2B09F483CF0E94E4060091ED03E5
:101440001091EE032091EF033091F0036C197D09A8
:101450008E099F09061717072807390708F06FCF6D
:101460008091EC030E94E40885E01092C103109281
:10147000C0031092C303DF91CF911F910F91FF9092
:10148000EF90DF90CF9008959D9191938F5F6DCFF6
:1014900085EEA9CF8091ED039091EE03A091EF032B
:1014A000B091F003892B8A2B8B2B09F4A2CF0E94D9
:1014B000E4060091ED031091EE032091EF033091CB
:1014C000F0036C197D098E099F0906171707280775
:1014D000390708F08ECFC4CF80E0C7CF82E0C5CFF8
:1014E00083E0C3CF90E080E00895CF92DF92EF9247
:1014F000FF92CF93DF93DC011796CC911797D0E042
:101500006111DC2F18962C91189730E0220F331FB1
:101510002D56384F50E040E0F90185919491FC013F
:10152000F080BA0190E080E0EF2DEC23ED1310C0C5
:101530004F5F5F4F1D96CD90DD90ED90FC905097E2
:101540006C157D058E059F0538F36FEF7FEFCB019E
:10155000DF91CF91FF90EF90DF90CF9008958F9221
:101560009F92AF92BF92CF92DF92EF92FF920F9332
:101570001F93CF93DF93CDB7DEB7C054D1400FB6E2
:10158000F894DEBF0FBECDBF8C010E943B07F8016F
:10159000C184D284E384F4849B01AC012C193D09FD
:1015A0004E095F0969017A0130EDC31637E0D306B1
:1015B000E104F104A8F48189C05CDE4F0FB6F89411
:1015C000DEBF0FBECDBFDF91CF911F910F91FF9076
:1015D000EF90DF90CF90BF90AF909F908F90089545
:1015E00061877287838794871482138212821182A3
:1015F000108262E085810E949B0561E070E080E0DE
:1016000090E00E94090761E0F80185810E949B0536
:1016100060E0F80185810E946D05F80186818551A1
:10162000823028F58BE291E10197F1F762E0F80151
:1016300085810E949B05F801828990E082309105A6
:1016400038F0880F991F880F991F05970197F1F7B8
:10165000F89460E0C8010E94750A6F3F7F4F8F4F7A
:101660009F4F61F4F801118A789480E0A5CF64E17E
:1016700070E080E090E00E940907D8CF61E0C801E7
:101680000E94750A6F3F7F4F8F4F9F4F59F39E0106
:101690002F5F3F4F79015E013FEBA31A3EEFB30A84
:1016A000670160E0C8010E94750AF60160837183DA
:1016B0008283938361E0C8010E94750AF601648306
:1016C000758386839783F8E0CF0ED11CCA14DB04A0
:1016D00041F7789430E020E0F70180809180A2808B
:1016E000B3804481558166817781FFEF8F169F0615
:1016F000AF06BF0631F04F3F8FEF580768077807F6
:1017000019F4F801118AB1CFF90183E0F595E79555
:101710008A95E1F7E00FF11F8081880F8416950606
:10172000A606B706F0F080832F5F3F4FF8E0EF0E7C
:10173000F11C2832310581F6F80144812081818134
:10174000280F3327331F8281280F311D8381820F99
:10175000932F911D99274817190699F681E0818BDF
:101760002BCF8160E0CFFC0183898B3051F480E482
:1017700092E4AFE0B0E0FB0184A395A3A6A3B7A3D6
:10178000089580E894E8AEE1B0E0F5CF0895833E97
:101790009105A8F19C01235E31092B35310588F1B3
:1017A0002B5531092A35310570F12A5531092F356C
:1017B000310558F12F5531092736310540F12756AB
:1017C00031092A35310528F12A55310923363105E9
:1017D00010F12356310926353105F8F02655310927
:1017E0002F353105E0F02F55310927363105C8F086
:1017F000875394408B359105B0F08BE0089580E0DD
:10180000089581E0089582E0089583E0089584E0DA
:10181000089585E0089586E0089587E0089588E0BA
:10182000089589E008958AE008950895FC010190E3
:101830000020E9F73197AF01481B590BBC0183E445
:1018400094E00C9449078F929F92AF92BF920F93AE
:101850001F93CF93DF93CDB7DEB7A1970FB6F89460
:10186000DEBF0FBECDBF19A2423008F44AE08E01A0
:101870000F5D1F4F842E912CB12CA12CA50194013A
:101880000E946C1AE62FB901CA01EA30F4F4E05D57
:10189000D801EE938D01232B242B252B79F790E093
:1018A00080E0109719F0CD010E94160CA1960FB69A
:1018B000F894DEBF0FBECDBFDF91CF911F910F9186
:1018C000BF90AF909F908F900895E95CE1CF009713
:1018D00011F00C94160C90E080E00895CF93DF9304
:1018E0000E942C08EC0186E492E00E94160C8C0FFA
:1018F0009D1FDF91CF9108954F925F926F927F92DB
:101900008F929F92AF92BF92CF92DF92EF92FF920F
:101910006B017C01AC019B010E94F31C882381F0C8
:1019200089E492E0FF90EF90DF90CF90BF90AF906E
:101930009F908F907F906F905F904F900C94160CBB
:1019400046015701E894B7F82FEF3FEF4FE75FE705
:10195000C501B4010E94F31C81110DC02FEF3FEFB0
:101960004FE75FE7C501B4010E94221B18161CF463
:101970008DE492E0D7CF2FEF3FEF4FE75FE4C70151
:10198000B6010E94811C18161CF481E592E0CACFB2
:101990002FEF3FEF4FE75FECC701B6010E94221B1C
:1019A00087FDF3CF20E030E0A901C701B6010E9416
:1019B000221BB12CA12C87FF0AC06DE283E494E0C6
:1019C0000E94DF075C01F7FAF094F7F8F0942AE040
:1019D00037ED43EA5BE3C701B6010E94B61A2B015B
:1019E0003C010E94A01B6B017C010E94CF1B9B014C
:1019F000AC01C301B2010E94B51A2B013C014AE0BF
:101A0000C701B6010E94230C7C01EA0CFB1C6EE2AC
:101A100083E494E00E94DF07E80EF91E20E030E046
:101A200040E251E4C301B2010E94861C2B013C013B
:101A30000E94A01B4B01B12CA12C4AE0C501B401AE
:101A40000E94230CE80EF91EC501B4010E94CF1BB1
:101A50009B01AC01C301B2010E94B51A20E030E045
:101A600040E251E40E94861C0E94A01B90E080E0AE
:101A70004AE00E94230C8E0D9F1DFF90EF90DF9097
:101A8000CF90BF90AF909F908F907F906F905F901E
:101A90004F900895CF92DF92EF92FF92CF93DF9312
:101AA00097FF1BC06B017C016DE283E494E00E9410
:101AB000DF07EC0166277727CB016C197D098E09BA
:101AC0009F094AE00E94230C8C0F9D1FDF91CF914C
:101AD000FF90EF90DF90CF9008954AE0DF91CF9193
:101AE000FF90EF90DF90CF900C94230C682F70E064
:101AF00090E080E04AE00C94230C85ED8093BC00DC
:101B00008091ED039091EE03A091EF03B091F0036B
:101B10000796A11DB11D23E0B695A79597958795CA
:101B20002A95D1F72091BC0024FD03C01092EB034D
:101B300008954091ED035091EE036091EF03709191
:101B4000F003452B462B472B69F30097A105B10500
:101B500041F025E32A95F1F700000197A109B109A9
:101B6000E1CF8091EC030C94E408CF92DF92EF92E6
:101B7000FF920F931F93CF93DF938C01EB01FB0137
:101B8000349680E2DF011D928A95E9F784E290E0C5
:101B9000A0E0B0E088839983AA83BB83F8018581A4
:101BA0009681A781B0858C839D83AE83BF838CE0B3
:101BB00090E0A0E0B0E088879987AA87BB870E9461
:101BC0003B07688B798B8A8B9B8BD80113960D9181
:101BD0001C91C8010E94AF0A882349F0F801868150
:101BE0008B3028F08D3040F08551823070F160E00C
:101BF00070E080EC9FE71BC0618170E090E080E0C6
:101C00000E94D11B2DEC3CEC4CEC5DE30E94861C49
:101C10006B017C01F801608170E090E080E00E943F
:101C2000D11B9B01AC01C701B6010E94B61A6C8B97
:101C30007D8B8E8B9F8B81E0DF91CF911F910F91D8
:101C4000FF90EF90DF90CF900895608171817627AB
:101C50006727762790E080E00E94CF1B2DEC3CECBC
:101C60004CEC5DE30E94861CE2CF8F929F92AF9274
:101C7000BF92EF92FF921F93CF93DF937C01EB0112
:101C8000FB01349680E2DF011D928A95E9F784E238
:101C900090E0A0E0B0E088839983AA83BB83F7013A
:101CA00085819681A781B0858C839D83AE83BF8318
:101CB0008DE090E0A0E0B0E088879987AA87BB8795
:101CC0000E943B07688B798B8A8B9B8BD70113967D
:101CD000ED90FC90C7010E94AF0A882341F0F70104
:101CE00086818C3009F455C038F48B30E1F060E027
:101CF00070E080EC9FE73EC085518230C0F71281D2
:101D0000612F70E0762F662766277F778381682BA7
:101D100090E080E00E94CF1B2DEC3CEC4CEC5DE3AE
:101D20000E94861C51C0628170E090E080E00E94B9
:101D3000CF1B4B015C01F701138117FF0AC0AC01F7
:101D40009B0160E070E080E89FEB0E94B51A4B01B8
:101D50005C011F70612F70E090E080E00E94D11B59
:101D60002DEC3CEC4CEC5DE30E94861CA50194013B
:101D70000E94B61A6C8B7D8B8E8B9F8B81E0DF91DE
:101D8000CF911F91FF90EF90BF90AF909F908F9059
:101D900008951281612F70E090E080E00E94CF1BD7
:101DA0004B015C01F70163816F7070E090E080E0AF
:101DB0000E94D11B2DEC3CEC4CEC5DE30E94861C98
:101DC000A50194010E94B61A17FFD4CF9058D2CF24
:101DD000CF93DF93EB01FC0183894BE050E06BE58F
:101DE00072E08C30C1F058F44BE050E065E572E0F1
:101DF0008B3089F04BE050E06DE672E00CC04BE0B8
:101E000050E061E672E0853131F04BE050E067E68A
:101E100072E0863179F7CE010E94261E1B86DF9183
:101E2000CF9108950F931F93CF93DF938C01EB0114
:101E300088E2DB011D928A95E9F7F801838194819C
:101E40000E94E80E81E090E0A0E0B0E08C879D87E2
:101E5000AE87BF87F80185819681A781B085888B81
:101E6000998BAA8BBB8B8CE090E0A0E0B0E08C8BD0
:101E70009D8BAE8BBF8BBE01838194810E94B30B7F
:101E8000D8011396ED91FC9183898C3009F441C0FF
:101E900078F48B3009F1188E198E1A8E1B8E1C8ED9
:101EA0001D8E1E8E1F8E18A219A21AA21BA22CC054
:101EB0008551823080F780E090E0A8ECB2E4888F12
:101EC000998FAA8FBB8F1C8E1D8E1E8E1F8E8DEC40
:101ED0009CECACECBDE314C080E090E0A0EAB2E47E
:101EE000888F998FAA8FBB8F80E090E0A0EAB1E441
:101EF0008C8F9D8FAE8FBF8F80E090E0A0EAB0E422
:101F000088A399A3AAA3BBA3DF91CF911F910F919F
:101F1000089580E090E0AEEBB2E4E2CF0F931F9320
:101F2000CF93DF938C01EB0188E2DB011D928A9550
:101F3000E9F7F801838194810E94E80E81E090E046
:101F4000A0E0B0E08C879D87AE87BF87F8018581D0
:101F50009681A781B085888B998BAA8BBB8B8DE0EE
:101F600090E0A0E0B0E08C8B9D8BAE8BBF8BBE0170
:101F7000838194810E94B30BD8011396ED91FC915B
:101F800083898C3091F178F48B30B1F0188E198EF2
:101F90001A8E1B8E1C8E1D8E1E8E1F8E18A219A2CD
:101FA0001AA21BA21DC08531A9F1863179F780E004
:101FB00090E0AAEFB2E432C080E090E0A8E4B2E49E
:101FC000888F998FAA8FBB8F1C8E1D8E1E8E1F8EA1
:101FD00080E090E0A0E0B0E488A399A3AAA3BBA30B
:101FE000DF91CF911F910F91089580E090E0A0E7DD
:101FF000B2E4888F998FAA8FBB8F80E090E0A0EA2F
:10200000B1EC8C8F9D8FAE8FBF8F80E090E0A0E011
:10201000BFE3E2CF80E090E0A0EAB2E4888F998F3E
:10202000AA8FBB8F80E090E0A0E2B2EC8C8F9D8FF6
:10203000AE8FBF8F8DEC9CECACECBDE3CDCF0C94A0
:10204000941D0C94941D1F920F920FB60F921124A1
:102050002F933F938F939F93AF93BF9380913B04B4
:1020600090913C04A0913D04B0913E0430913A041B
:1020700023E0230F2D3758F50196A11DB11D2093A4
:102080003A0480933B0490933C04A0933D04B093A6
:102090003E0480913F0490914004A0914104B0918E
:1020A00042040196A11DB11D80933F04909340040A
:1020B000A0934104B0934204BF91AF919F918F913F
:1020C0003F912F910F900FBE0F901F90189526E80B
:1020D000230F0296A11DB11DD2CF1F920F920FB6F2
:1020E0000F9211240BB60F922F933F934F935F9350
:1020F0006F937F938F939F93AF93BF93EF93FF93D0
:1021000083E494E00E94BD07FF91EF91BF91AF91EE
:102110009F918F917F916F915F914F913F912F91FF
:102120000F900BBE0F900FBE0F901F9018951F922F
:102130000F920FB60F9211240BB60F922F938F931D
:102140009F93EF93FF93E0915304F09154048081A7
:10215000E0915904F0915A0482FD1DC09081809154
:102160005C048F5F8F7320915D04821741F0E091D2
:102170005C04F0E0ED5BFB4F958F80935C04FF9176
:10218000EF919F918F912F910F900BBE0F900FBEEB
:102190000F901F9018958081F2CF1F920F920FB66B
:1021A0000F9211240BB60F922F933F934F935F938F
:1021B0006F937F938F939F93AF93BF93EF93FF930F
:1021C0008091B900887F803609F44DC008F040C086
:1021D000883209F4A9C028F5803109F49DC0C8F4FB
:1021E000882309F4FBC0883009F496C0FF91EF9171
:1021F000BF91AF919F918F917F916F915F914F911F
:102200003F912F910F900BBE0F900FBE0F901F901C
:102210001895883109F488C0803241F78093E9032A
:1022200014C0803409F49DC040F48033B9F388337E
:10223000E9F68093E90385ECB0C0803509F485C0E8
:10224000883509F496C0883489F60E947D0DCECF7A
:10225000883909F48CC038F5883729F050F488366D
:1022600011F0803719F683E08093EB031092BB03E3
:1022700057C0883809F47BC0803919F0803809F0DC
:10228000B5CF8091BB03803208F071C0E091BB03F1
:1022900081E08E0F8093BB038091BB00F0E0E55698
:1022A000FC4F80833DC0803B39F0E0F4803A09F474
:1022B00079C0883A09F09ACF84E08093EB031092BA
:1022C0009A0310929903E091BE03F091BF03199510
:1022D0008091990381110FC081E08093990310923E
:1022E000790309C0803C09F4A6CF883C09F4A3CF48
:1022F000883B09F07BCFE0919A0381E08E0F8093B9
:102300009A03F0E0E758FC4F80818093BB009091E6
:102310009A038091990329C08091E6038093BB00C2
:1023200085EC8093BC0062CF9091E8038091E70335
:10233000981758F5E091E80381E08E0F8093E80349
:10234000F0E0EB53FC4F8081E9CFE091E80381E0BE
:102350008E0F8093E8038091BB00F0E0EB53FC4FBD
:1023600080839091E8038091E7039817C8F285E88D
:10237000D8CFE091E80381E08E0F8093E80380914D
:10238000BB00F0E0EB53FC4F80838091EA038111A6
:102390005CCF81E08093E50384EA8093BC001092D7
:1023A000EB0324CF85EC8093BC001092EB0380916B
:1023B000BB03803230F4E091BB03F0E0E556FC4F04
:1023C00010826091BB0370E0E091BC03F091BD030B
:1023D0008BE993E019951092BB0308CF1092E903A3
:1023E00034CFCF93DF93E3E4F4E01382128288EEDC
:1023F00093E0A0E0B0E084839583A683B7832AE0CE
:1024000032E03183208325EC30E03587248724ECCB
:1024100030E03787268720EC30E0318B208B21ECB1
:1024200030E0338B228B22EC30E0358B248B26EC92
:1024300030E0378B268B118E128E138E148EC0EEE9
:10244000D4E01B821A828C839D83AE83BF838CE190
:1024500092E099838883E0E2F5E082E0808383E084
:10246000818384E082838FEF8383AAEFB4E085E3E6
:1024700015968C93159786E116968C931697E3E93B
:10248000F9E0E4911796EC931797EDE4F9E0E49105
:102490001896EC93189740E85EE360E070E01D96B4
:1024A0004D935D936D937C93509753968C93539774
:1024B0008CE392E055969C938E9354970A2E1B2E94
:1024C00058961C920E92112457974FEF5FEFBA0166
:1024D00059964D935D936D937C935C978EE292E059
:1024E0005E969C938E935D970A2E1B2E91961C925E
:1024F0000E921124909792964D935D936D937C93D9
:102500009597ECEEF4E085E481838AE999E9A9E9FD
:10251000BFE382839383A483B5831782168283E209
:102520008083D187C087DF91CF910895CF93DF93C8
:10253000CDB7DEB7E1970FB6F894DEBF0FBECDBFC3
:10254000789484B5826084BD84B5816084BD85B58E
:10255000826085BD85B5816085BD80916E0081609A
:1025600080936E0010928100809181008260809340
:102570008100809181008160809381008091800042
:102580008160809380008091B10084608093B1006D
:102590008091B00081608093B00080919100826052
:1025A000809391008091910081608093910080914F
:1025B00090008160809390008091A1008260809360
:1025C000A1008091A10081608093A1008091A00072
:1025D00081608093A000809121018260809321011D
:1025E000809121018160809321018091200181608F
:1025F0008093200180917A00846080937A0080919A
:102600007A00826080937A0080917A008160809362
:102610007A0080917A00806880937A001092C100DD
:1026200061E08DE00E949B0561E0809120050E94A1
:102630009B0561E0809121050E949B0561E08091EE
:1026400022050E949B056FEF70E08FEF0E94AE069F
:10265000E0915304F091540482E08083E0914F04B0
:10266000F09150041082E0915104F091520480E105
:10267000808310925B04E0915704F091580486E047
:102680008083E0915504F0915604808180618083BD
:10269000E0915504F0915604808188608083E09138
:1026A0005504F0915604808180688083E091550440
:1026B000F091560480818F7D808388E094E00E94B1
:1026C0002C0889ED93E00E942C088AEA93E00E948E
:1026D0002C088BE793E00E942C088CE493E00E9486
:1026E0002C088DE193E00E942C088EEE92E00E946F
:1026F0002C088BED92E00E942C088CEB92E00E945B
:102700002C0882E792E00E94670C8DE992E00E941B
:102710002C088DE792E00E94670C8EE792E00E9401
:102720002C0886E892E00E94670C8FE592E00E94F8
:102730002C088AE992E00E94670C80E492E00E94F3
:102740002C088AE992E00E94670C81E292E00E94E4
:102750002C0880EA92E00E94670C82E092E00E94DE
:102760002C088AEC92E00E94670C80ED91E00E94B8
:102770002C0883E494E00E94470868E873E180E055
:1027800090E00E9409078DE595E00E942C0883E403
:1027900094E00E94470860E085E30E949B0562E0A8
:1027A0008091FF040E949B050E943B07605D77407B
:1027B00081099109609303057093040580930505D1
:1027C0009093060587E380930C05809110058BA7F5
:1027D0008CE392E09AA789A7809111059091120548
:1027E0009DA78CA78091130590911405A0911505C4
:1027F000B09116058EA79FA7A8ABB9ABBE016F5FBE
:102800007F4FCE0189960E948E0F67E672E0CE015F
:1028100001960E941D1E892B09F008C189E495E0EC
:102820000E942C08CE0101960E94670C85E395E07A
:102830000E942C086D857E858F8598890E944A0D9F
:1028400081E295E00E942C0869897A898B899C89AC
:102850000E944A0D8DE095E00E942C086DA17EA19A
:102860008FA198A528EE33E040E050E00E948E1A38
:10287000CA01B9010E944A0D89E095E00E942C0826
:1028800085EF94E00E942C088EED94E00E942C08C5
:102890006D8D7E8D8F8D98A10E947C0C8AED94E0C9
:1028A0000E942C0883EC94E00E942C08698D7A8D9C
:1028B0008B8D9C8D0E947C0C8FEB94E00E942C08E9
:1028C00086EA94E00E942C0869A17AA18BA19CA1C0
:1028D0000E947C0C82EA94E00E942C0883E494E03D
:1028E0000E944708809119058BA78EE292E09AA773
:1028F00089A780911A0590911B059DA78CA78091AF
:102900001C0590911D05A0911E05B0911F058EA775
:102910009FA7A8ABB9ABBE016F5F7F4FCE01899671
:102920000E94120F81E994E00E942C0888E794E04D
:102930000E942C086D8D7E8D8F8D98A10E947C0C3D
:1029400085E794E00E942C088EE594E00E942C0814
:10295000698D7A8D8B8D9C8D0E947C0C8BE594E02B
:102960000E942C0882E494E00E942C0869A17AA1BC
:102970008BA19CA10E947C0C8FE394E00E942C0808
:1029800083E494E00E9447081092C40389E697E02C
:102990000E942C081092F2031092F1031092C103CE
:1029A0001092C0030E94C60887E497E09093BF038B
:1029B0008093BE0388E497E09093BD038093BC03AB
:1029C00084E697E00E942C0885E497E00E942C089A
:1029D00023E22093EC048091F4049091F50401E04B
:1029E0000093C3032093C203DC01ED91FC9101909D
:1029F000F081E02D61E119958091F4049091F50446
:102A00000E948B09182F6AE070E080E090E00E943D
:102A10000907123009F4ACC0D0F4112369F18CEE2F
:102A200096E01130E1F089E496E019C088E394E083
:102A30000E942C0883E494E00E94470881E0809380
:102A4000C4036FEF70E080E00E94AE069FCF85E880
:102A500096E0133021F089E696E0143021F70E94C9
:102A60006E0C81E08093C4036FEF70E080E00E9401
:102A7000AE0689E397E084C081E190E09093F3048F
:102A80008093F2040E943B076093F6047093F7046E
:102A90008093F8049093F9048091F4049091F504E4
:102AA0002091EC040093C3032093C2031092C1034E
:102AB0001092C00362E470E00E9498088091F404D0
:102AC0009091F5040E948B09182F8091F404909145
:102AD000F5042091EC040093C3032093C2031092E9
:102AE000C1031092C00365E670E00E9498088091CF
:102AF000F4049091F5040E948B09182B8091F40442
:102B00009091F5042091EC040093C3032093C20339
:102B10001092C1031092C0036091F2047091F3040B
:102B20000E9498088091F4049091F5040E948B090A
:102B3000182B6AE070E080E090E00E9409071230F4
:102B400009F408C350F41123B1F08CE196E0113080
:102B500009F485CF89E795E082CF85EB95E01330C6
:102B600009F47DCF89E995E0143009F478CFF2CFEC
:102B700087EB96E074CF85E48093ED0480E497E0E2
:102B80000E942C088EE197E00E942C0860E086E30A
:102B90000E949B0589E197E00E942C088091C40364
:102BA000811102C00E94DF0611E03CE3A32E32E057
:102BB000B32E4EE2842E42E0942E00E40E943B07A6
:102BC0002B013C0140923604509237046092380445
:102BD000709239048091320490913304A0913404AE
:102BE000B0913504481659066A067B0688F4AC0194
:102BF000BD014095509560957095440D551D661D1D
:102C0000771D483E53406105710510F01093310463
:102C1000A3019201281B390B4A0B5B0BDA01C90196
:102C2000883E9340A105B10528F4809131048823A2
:102C300009F48DC2409232045092330460923404FD
:102C40007092350410923104EFEDF8E08491EBE6D8
:102C5000F9E0E490E5E2F9E0F490FF2079F08111E9
:102C60000E940605EF2DF0E0EE0FFF1FED56F84F26
:102C7000A591B4918C91E82260E009F461E08DE0C7
:102C80000E946D0580912D0490912E04A0912F0437
:102C9000B0913004481659066A067B0688F4AC01E8
:102CA000BD014095509560957095440D551D661D6C
:102CB000771D403157426105710510F010932C04C7
:102CC000A3019201281B390B4A0B5B0BDA01C901E6
:102CD00080319742A105B10528F480912C04882306
:102CE00009F40AC140922D0450922E0460922F04E0
:102CF0007092300410922C0460E07FEF80E00E941C
:102D0000AE06809110058BA7BAA6A9A680911105E1
:102D1000909112059DA78CA78091130590911405A1
:102D2000A0911505B09116058EA79FA7A8ABB9ABCA
:102D3000BE016F5F7F4FCE0189960E94350ECD8810
:102D4000DE88EF88F88CA7019601C701B6010E94C2
:102D5000F31C882309F401C28FEF97E00E946E0CE8
:102D600083E494E00E9447086FEF70E080E00E94E7
:102D7000AE06809119058BA79AA689A680911A059F
:102D800090911B059DA78CA780911C0590911D0516
:102D9000A0911E05B0911F058EA79FA7A8ABB9AB48
:102DA000BE016F5F7F4FCE0189960E94B50DCD8821
:102DB000DE88EF88F88CA7019601C701B6010E9452
:102DC000F31C882309F4F5C180ED97E00E946E0C96
:102DD00083E494E00E9447086FEF70E080E00E9477
:102DE000AE068091F2049091F304892B09F00DC294
:102DF0008DEA97E00E946E0CC12CD12CE12C90EC56
:102E0000F92EC701B6010E94A01B6B01F12CE12C29
:102E1000C701B6010E94CF1B9B01AC010E94F31CAD
:102E2000882309F42DC381E898E00E946E0C8091FC
:102E30007B00877F80937B0000937C0080917A00E9
:102E4000806480937A0080917A0086FDFCCF809127
:102E5000780060917900762F682F072E000C880B80
:102E6000990B0E94D11B2AE038E240EA5BE30E9402
:102E7000861C20E030E04AE754E40E94861C0E9451
:102E8000991B2B016B01770FEE08FF08C701B601F4
:102E90000E94D11B9B01AC010E94F31C811117C33E
:102EA0008091270490912804A0912904B0912A04CC
:102EB0008C0D9D1DAE1DBF1D80932704909328048B
:102EC000A0932904B0932A0480912B048F5F8093F0
:102ED0002B0485E698E00E942C08C701B6010E94E9
:102EE0004A0D8FE498E00E942C08C2010E94C70B93
:102EF0000E94760D0E94DF060E943B076093360415
:102F0000709337048093380490933904C09014046C
:102F1000D0901504E0901604F09017046C157D0510
:102F20008E059F0598F426013701409450946094D3
:102F30007094460E571E681E791EB0E54B16B3EC12
:102F40005B066104710410F0109313049B01AC0143
:102F50002C193D094E095F0969017A0130E5C31654
:102F600033ECD306E104F10428F420911304222366
:102F700009F4EDC060931404709315048093160453
:102F8000909317041092130460E070E08FEF0E949A
:102F9000AE0664EF71E080E090E00E9409078FECDC
:102FA00092E00E94670C60911C0470E090E080E069
:102FB0000E94D11B9B01AC0160911804709119040F
:102FC00080911A0490911B040E94271B0E947C0C84
:102FD0008AEE92E00E94670C80911C040E94760D9C
:102FE00080EF92E00E94670C8BEF92E00E94670CEA
:102FF0006091210470E090E080E00E94D11B9B0171
:10300000AC0160911D0470911E0480911F04909189
:1030100020040E94271B0E947C0C8AEE92E00E94F2
:10302000670C809121040E94760D80EF92E00E944F
:10303000670C83E193E00E94670C2091260430E046
:1030400050E040E0609122047091230480912404B8
:10305000909125040E946C1ACA01B9014AE00E94AD
:10306000230C84E293E00E94670C809126040E9466
:10307000760D80EF92E00E94670C8BE293E00E9455
:10308000670C20912B0430E050E040E06091270471
:10309000709128048091290490912A040E946C1A4E
:1030A000CA01B9014AE00E94230C81E493E00E9426
:1030B000670C20912B0430E050E040E06091270441
:1030C000709128048091290490912A040E946C1A1E
:1030D000C9010E94C70B0E94760D8DEE92E00E94FE
:1030E000670C80912B040E94760D80EF92E00E9485
:1030F000670C83E494E00E94470810921804109231
:10310000190410921A0410921B0410921C041092BD
:103110001D0410921E0410921F041092200410929D
:10312000210410922204109223041092240410927D
:10313000250410922604109227041092280410925D
:10314000290410922A0410922B040E94DF060E9488
:10315000670834CD87EE95E082CCA7019601609197
:1031600018047091190480911A0490911B040E9414
:10317000B61A609318047093190480931A049093FC
:103180001B0480911C048F5F80931C0482E298E0F2
:103190000E942C086D897E898F89988D0E947C0CF5
:1031A0008EE198E00E942C0883E494E00E94470896
:1031B000E0CDA701960160911D0470911E048091DD
:1031C0001F04909120040E94B61A60931D0470930E
:1031D0001E0480931F0490932004809121048F5F2C
:1031E000809321048FEE97E00E942C086D897E89E0
:1031F0008F89988D0E947C0C8CEE97E00E942C08A1
:1032000083E494E00E944708ECCD7090EC040E94A7
:10321000E4066B017C018091EB03811164C0109383
:10322000EB031093EA038FEF8093E9031092E80316
:103230001093E7031093E6038091E603770C782A56
:103240007092E6038091E503813009F0EAC01092A4
:10325000E5030E94E4066B017C018091E603809304
:10326000BB008091ED039091EE03A091EF03B0912C
:10327000F003892B8A2B8B2BA1F00E94E40640904F
:10328000ED035090EE036090EF037090F0036C1923
:103290007D098E099F09461657066806790608F4C7
:1032A00043C08091BC0083FDD8CF45EC4093BC0067
:1032B0000E94E4066B017C018091EB03813009F4EC
:1032C000B4C08091E803823008F0D1C08091E80357
:1032D000A5ECB3E0E3EFF3E090E0981751F12D9106
:1032E00021939F5FFACF8091ED039091EE03A0911F
:1032F000EF03B091F003892B8A2B8B2B09F48BCF32
:103300000E94E4062091ED033091EE034091EF031B
:103310005091F0036C197D098E099F092617370714
:103320004807590708F077CF8091EC030E94E40822
:1033300080E01092F2038093F103823009F099C08B
:103340008091F4049091F504DC01ED91FC910284EC
:10335000F385E02D1995382E212C8091F40490915D
:10336000F504DC01ED91FC910284F385E02D1995C3
:1033700082299329BC0190E080E00E94CF1B6B0161
:103380007C010E943B076093F6047093F7048093DE
:10339000F8049093F90420E030E040E85FEBC701C7
:1033A000B6010E94221B882309F42BCD6091ED0405
:1033B0006534A9F070E090E080E00E94CF1B9B0193
:1033C000AC0160E070E08AE892E40E94271B9B0158
:1033D000AC01C701B6010E94861C6B017C01809183
:1033E000F2049091F3048132910511F0419751F468
:1033F00020E030E040E05FE3C701B6010E94861C98
:103400006B017C012091EE043091EF044091F004B7
:103410005091F104C701B6010E94271B6B017C018A
:10342000F0CC55EE5093BC0043CF8091ED039091CA
:10343000EE03A091EF03B091F003892B8A2B8B2B25
:1034400009F43ACF0E94E4064090ED035090EE0359
:103450006090EF037090F0036C197D098E099F094D
:10346000461657066806790608F026CF5DCF82E03B
:103470002FCFC12CD12C80E8E82E8FEBF82E81CFF6
:103480008091220490912304A0912404B0912504FA
:103490008C0D9D1DAE1DBF1D8093220490932304AF
:1034A000A0932404B0932504809126048F5F809319
:1034B000260488E798E00E942C084AE0C701B6017C
:1034C0000E94230C83E798E00E942C08B0CC85E38F
:1034D00098E00E946E0C0ECDA1E21A2EAA1BBB1B17
:1034E000FD010DC0AA1FBB1FEE1FFF1FA217B307D0
:1034F000E407F50720F0A21BB30BE40BF50B661FE6
:10350000771F881F991F1A9469F7609570958095A9
:1035100090959B01AC01BD01CF010895052E97FB4D
:103520001EF400940E94A51A57FD07D00E946C1A41
:1035300007FC03D04EF40C94A51A50954095309595
:1035400021953F4F4F4F5F4F08959095809570950F
:1035500061957F4F8F4F9F4F0895EE0FFF1F881F7C
:103560008BBF0790F691E02D19945058BB27AA27DE
:103570000E94CD1A0C94471C0E94391C38F00E94FE
:10358000401C20F039F49F3F19F426F40C94361CAB
:103590000EF4E095E7FB0C94301CE92F0E94581CB8
:1035A00058F3BA17620773078407950720F079F478
:1035B000A6F50C947A1C0EF4E0950B2EBA2FA02DD4
:1035C0000B01B90190010C01CA01A0011124FF27D0
:1035D000591B99F0593F50F4503E68F11A16F040CB
:1035E000A22F232F342F4427585FF3CF46953795CA
:1035F0002795A795F0405395C9F77EF41F16BA0B8F
:10360000620B730B840BBAF09150A1F0FF0FBB1F3C
:10361000661F771F881FC2F70EC0BA0F621F731F85
:10362000841F48F4879577956795B795F7959E3FE2
:1036300008F0B0CF9395880F08F09927EE0F979573
:10364000879508950E940C1C08F481E008950E945B
:103650003B1B0C94471C0E94401C58F00E94391CD4
:1036600040F029F45F3F29F00C94301C51110C9468
:103670007B1C0C94361C0E94581C68F39923B1F3F0
:10368000552391F3951B550BBB27AA276217730788
:10369000840738F09F5F5F4F220F331F441FAA1F1C
:1036A000A9F335D00E2E3AF0E0E832D091505040D8
:1036B000E695001CCAF72BD0FE2F29D0660F771F86
:1036C000881FBB1F261737074807AB07B0E809F06C
:1036D000BB0B802DBF01FF2793585F4F3AF09E3FF1
:1036E000510578F00C94301C0C947B1C5F3FE4F384
:1036F000983ED4F3869577956795B795F7959F5F34
:10370000C9F7880F911D9695879597F90895E1E07F
:10371000660F771F881FBB1F621773078407BA07DE
:1037200020F0621B730B840BBA0BEE1F88F7E09539
:1037300008950E94A01B6894B1110C947B1C0895FD
:103740000E94601C88F09F5798F0B92F9927B751B5
:10375000B0F0E1F0660F771F881F991F1AF0BA9535
:10376000C9F714C0B13091F00E947A1CB1E00895FD
:103770000C947A1C672F782F8827B85F39F0B93FEF
:10378000CCF3869577956795B395D9F73EF49095E8
:103790008095709561957F4F8F4F9F4F0895E89466
:1037A00009C097FB3EF490958095709561957F4F89
:1037B0008F4F9F4F9923A9F0F92F96E9BB27939537
:1037C000F695879577956795B795F111F8CFFAF447
:1037D000BB0F11F460FF1BC06F5F7F4F8F4F9F4F78
:1037E00016C0882311F096E911C0772321F09EE8D6
:1037F000872F762F05C0662371F096E8862F70E03C
:1038000060E02AF09A95660F771F881FDAF7880F15
:103810009695879597F90895990F0008550FAA0B6B
:10382000E0E8FEEF16161706E807F907C0F01216D3
:103830001306E407F50798F0621B730B840B950BD6
:1038400039F40A2661F0232B242B252B21F408952B
:103850000A2609F4A140A6958FEF811D811D0895C8
:1038600097F99F6780E870E060E008959FEF80EC33
:10387000089500240A9416161706180609060895D6
:1038800000240A9412161306140605060895092E3C
:103890000394000C11F4882352F0BB0F40F4BF2BAB
:1038A00011F460FF04C06F5F7F4F8F4F9F4F0895EB
:1038B00057FD9058440F551F59F05F3F71F04795E1
:1038C000880F97FB991F61F09F3F79F087950895C6
:1038D000121613061406551FF2CF4695F1DF08C0E5
:1038E000161617061806991FF1CF86957105610502
:1038F00008940895E894BB2766277727CB0197F9AA
:1039000008950E940C1C08F48FEF08950E94991CE2
:103910000C94471C0E94391C38F00E94401C20F077
:10392000952311F00C94301C0C94361C11240C942B
:103930007B1C0E94581C70F3959FC1F3950F50E0BB
:10394000551F629FF001729FBB27F00DB11D639F51
:10395000AA27F00DB11DAA1F649F6627B00DA11DF7
:10396000661F829F2227B00DA11D621F739FB00D9D
:10397000A11D621F839FA00D611D221F749F33270D
:10398000A00D611D231F849F600D211D822F762FA6
:103990006A2F11249F5750409AF0F1F088234AF083
:1039A000EE0FFF1FBB1F661F771F881F91505040EF
:1039B000A9F79E3F510580F00C94301C0C947B1CA1
:1039C0005F3FE4F3983ED4F3869577956795B79576
:1039D000F795E7959F5FC1F7FE2B880F911D969590
:1039E000879597F908950E940C1C880B990B0895F0
:1039F0000F931F93CF93DF938230910510F482E0F1
:103A000090E0E0912605F091270530E020E0B0E05D
:103A1000A0E0309799F42115310509F44AC0281B1C
:103A2000390B24303105D8F58A819B8161157105E8
:103A300089F1FB0193838283FE0111C04081518192
:103A40000281138148175907E0F04817590799F484
:103A5000109761F012960C93129713961C9332965E
:103A6000CF01DF91CF911F910F910895009326050B
:103A700010932705F4CF2115310551F04217530754
:103A800038F0A901DB019A01BD01DF01F801C1CFC6
:103A9000EF01F9CF9093270580932605CDCFFE0146
:103AA000E20FF31F819391932250310939832883C8
:103AB000D7CF2091240530912505232B41F4209167
:103AC00002023091030230932505209324052091B2
:103AD0000002309101022115310541F42DB73EB7A6
:103AE0004091040250910502241B350BE0912405FE
:103AF000F0912505E217F307A0F42E1B3F0B2817C2
:103B0000390778F0AC014E5F5F4F2417350748F056
:103B10004E0F5F1F50932505409324058193919389
:103B20009FCFF0E0E0E09CCFCF93DF930097E9F0E8
:103B3000FC01329713821282A0912605B0912705CD
:103B4000ED0130E020E01097A1F420813181820F57
:103B5000931F20912405309125052817390709F076
:103B600061C0F0932505E0932405DF91CF9108957E
:103B7000EA01CE17DF07E8F54A815B819E01411516
:103B80005105B1F7E901FB83EA8349915991C40FCB
:103B9000D51FEC17FD0761F4808191810296840F97
:103BA000951FE90199838883828193819B838A830E
:103BB000F0E0E0E012968D919C9113970097B9F593
:103BC0002D913C911197CD010296820F931F209168
:103BD0002405309125052817390739F6309751F516
:103BE0001092270510922605B0932505A093240571
:103BF000BCCFD383C28340815181840F951FC817E6
:103C0000D90761F44E5F5F4F88819981480F591F32
:103C1000518340838A819B8193838283211531055F
:103C200009F0B0CFF0932705E09326059ECFFD0164
:103C3000DC01C0CF13821282D7CFFB01DC018D9152
:103C4000019080190110D9F3990B0895FB01DC0153
:103C50004150504048F001900D920020C9F701C03A
:0E3C60001D9241505040E0F70895F894FFCFB8
:103C6E0000002805800000000000DF0749077607E6
:103C7E004708A70785079907000000005C092F0970
:103C8E00720A050928091509060900000000C60B6D
:103C9E001F10150CB50D120F00000000C60B2110E1
:103CAE00150C350E8E0F0D0A006E616E00696E6674
:103CBE00006F766600444854313100444854313226
:103CCE00004448543231004448543232004448547F
:103CDE003F00506F776572204C696E65004D454709
:103CEE004132353630004C6F526157414E202D20F7
:103CFE0052484637362D30353200302E312E3000B8
:103D0E004448543232207C2047592D3330207C20B9
:103D1E0055564D2D333041207C204453313842329C
:103D2E0030207C2048442D3338006E6F6E65000ABB
:103D3E0041766572616765206169722074656D7088
:103D4E00657261747572653A2000206F43202800F9
:103D5E002073616D706C696E6729000A4176657219
:103D6E00616765206169722068756D69646974792F
:103D7E003A20000A41766572616765206C69676852
:103D8E00743A2000206C75782028000A41766572FE
:103D9E006167652055562074656E73696F6E3A20A3
:103DAE0000206D696C69566F6C7473203D3E20491E
:083DBE006E6465783A200000F4
:00000001FF
