:100000000C946C060C949D060C949D060C949D0615
:100010000C949D060C949D060C949D060C949D06D4
:100020000C949D060C949D060C949D060C949D06C4
:100030000C949D060C949D060C949D060C949D06B4
:100040000C949D060C949D060C949D060C949D06A4
:100050000C949D060C949D060C949D060C94BB1369
:100060000C949D060C942F140C9405140C949D066E
:100070000C949D060C949D060C949D060C949D0674
:100080000C949D060C949D060C949D060C949D0664
:100090000C949D060C949D060C949D060C9465147E
:1000A0000C949D060C949D060C949D060C949D0644
:1000B0000C949D060C949D060C949D060C949D0634
:1000C0000C949D060C949D060C949D060C949D0624
:1000D0000C949D060C949D060C949D060C949D0614
:1000E0000C949D060C942E080C94C7060C941A08C8
:1000F0000C94FA080C94BD060C94AA120C94ED070B
:100100000C9426130C9442080C94CD110C94F8090D
:100110000C9489150C94F0060C94E6060C94CB060E
:100120000C942D0F0C94BF070C94400C0C94F80801
:100130000C948A0D0C9436090C9490090C94D806F2
:100140000C94DE0E0C942D0C0C94FD060C942709D7
:100150000C941E0C0C94F4060C94B0070C94A80795
:100160000C944A090C94F7070C94470C0C94C9079B
:100170000C94F8060C9424080C9410080C94EA06CD
:100180000C944D110C94740C0C9401080C94F90807
:100190000C9438080C94D3070C94DC060C940207DA
:1001A0000C94B5070C94E2060C94D2060C94CF067E
:1001B0000C94C3060C9458090C94B7130C941D0CA2
:1001C0000C94B9130C94DB070C94FE060C94E30713
:1001D000005EBCE2613FDD83C29C7E20A3FD1F4127
:1001E000009D23BE46DB65F88C11AF32CA57E97417
:1001F0000A094177616974696E6720352073656308
:100200006F6E647320666F722073797374656D739B
:100210002073746162696C697A6174696F6E2E2EE5
:100220002E000A094163747561746F72206C6973E2
:10023000742E2E2E2E2E2E2E2E2E2E2E2E2E3A209A
:10024000000A0953656E736F72206C6973742E2EE9
:100250002E2E2E2E2E2E2E2E2E2E2E2E2E3A2000EE
:100260000A09486172647761726520766572736904
:100270006F6E2E2E2E2E2E2E2E2E2E2E3A20000A71
:10028000094669726D776172652076657273696F70
:100290006E2E2E2E2E2E2E2E2E2E2E3A20000A09B7
:1002A000436F6D6D756E69636174696F6E20696E01
:1002B000746572666163652E2E2E3A20000A094D20
:1002C00043552064657669636520626F6172642EB0
:1002D0002E2E2E2E2E2E2E2E2E3A20000A09506F54
:1002E00077657220737570706C792E2E2E2E2E2EDF
:1002F0002E2E2E2E2E2E2E2E3A2000537461727426
:10030000696E67204154532D30322E2E2E00232348
:1003100023232323232323232323232323232323AD
:10032000232323232323232323232323232323239D
:1003300023232323232323232323230A00232020CF
:1003400020202020202020646576656C6F70656415
:10035000206279204167726F546563684C61622046
:10036000202020202020202020230A0023202020BD
:100370002020202020202020202020202043616DCC
:10038000707573204C616765732020202020202029
:100390002020202020202020230A0023202020208D
:1003A000496E7374697475746F2046656465726113
:1003B0006C2064652053616E7461204361746172C6
:1003C000696E6120202020230A0023202020202085
:1003D000202020202020204167726F5465636853DD
:1003E000746174696F6E202D20303220202020200F
:1003F000202020202020230A00232020202020202D
:100400002020202020202020202020202041545364
:100410002D303220202020202020202020202020AD
:100420002020202020230A000A2323232323232300
:10043000232323232323232323232323232323238C
:10044000232323232323232323232323232323237C
:100450002323232323230A005B4641494C5D0020CC
:1004600025000A0909095265736F6C7574696F6E0E
:100470002E2E2E2E2E2E3A202020002025000A0976
:1004800009094D6178696D756D2076616C75652E11
:100490002E2E3A20002025000A0909094D696E69AF
:1004A0006D756D2076616C75652E2E2E3A2020209C
:1004B000000A09094169722048756D696469747997
:1004C0002000206F43000A0909095265736F6C759B
:1004D00074696F6E2E2E2E2E2E2E3A202020002094
:1004E0006F43000A0909094D6178696D756D2076C1
:1004F000616C75652E2E2E3A2000206F43000A098C
:1005000009094D696E696D756D2076616C75652E92
:100510002E2E3A20000A09094169722054656D7037
:10052000657261747572652000206D73000A090997
:100530004D696E696D756D2064656C61792E3A2028
:10054000000A0909556E697175652049442E2E2EE1
:100550002E2E3A20000A09094472697665722076C7
:10056000657273696F6E3A20000A090953656E73EC
:100570006F7220747970652E2E2E3A20000A094978
:100580006E6974696174696E6720444854207365AC
:100590006E736F722E2E2E20005B4248313735303D
:1005A0005D204552524F523A20756E646566696E01
:1005B0006564206572726F72005B42483137353076
:1005C0005D204552524F523A206F74686572206523
:1005D00072726F72005B4248313735305D20455290
:1005E000524F523A207265636569766564204E41C8
:1005F000434B206F6E207472616E736D6974206F4F
:10060000662064617461005B4248313735305D209B
:100610004552524F523A207265636569766564208F
:100620004E41434B206F6E207472616E736D69741E
:10063000206F662061646472657373005B424831A9
:100640003735305D204552524F523A20746F6F203B
:100650006C6F6E6720666F72207472616E736D6965
:100660007420627566666572005B424831373530CA
:100670005D204552524F523A20756E646566696E30
:100680006564206572726F72005B424831373530A5
:100690005D204552524F523A206F74686572206552
:1006A00072726F72005B4248313735305D204552BF
:1006B000524F523A207265636569766564204E41F7
:1006C000434B206F6E207472616E736D6974206F7E
:1006D000662064617461005B4248313735305D20CB
:1006E0004552524F523A20726563656976656420BF
:1006F0004E41434B206F6E207472616E736D69744E
:10070000206F662061646472657373005B424831D8
:100710003735305D204552524F523A20746F6F206A
:100720006C6F6E6720666F72207472616E736D6994
:100730007420627566666572005B4F4B5D000A0946
:10074000496E6974696174696E6720736F696C20A2
:100750006D6F6973747572652073656E736F722E39
:100760002E2E20005B4F4B5D000A0909496E69740B
:10077000696174696E6720736F696C2074656D7050
:10078000657261747572652073656E736F722E2E5B
:100790002E20005B4F4B5D000A09496E6974696148
:1007A00074696E67204F6E65205769726520696EA7
:1007B000746572666163652E2E2E20005B4F4B5D63
:1007C000000A09496E6974696174696E672055563B
:1007D0002073656E736F722E2E2E20005B4641498A
:1007E0004C5D005B4F4B5D000A0909496E697469F5
:1007F0006174696E67206C696768742073656E73D5
:100800006F722E2E2E20005B4F4B5D000A09496E41
:100810006974696174696E67204932433120696E79
:1008200074657266616365206173206D61737465C0
:10083000722E2E2E2000000020002300260029000A
:100840002C002F0032000001000003010601090105
:100850005B4248313735305D2044657669636520F9
:100860006973206E6F7420636F6E66696775726559
:100870006421004572726F722072656164696E67EF
:10088000206169722068756D69646974792100203E
:1008900025000A4169722068756D69646974793A46
:1008A00020004572726F722072656164696E672004
:1008B0006169722074656D7065726174757265210D
:1008C00000206F43000A4169722074656D70657283
:1008D00061747572653A20000A3D3D3D3D3D3D3DE8
:1008E0003D3D3D3D3D3D3D3D3D3D3D3D3D3D3D3D38
:1008F0003D3D3D3D3D3D3D3D3D3D3D3D3D3D3D3D28
:100900003D3D3D3D3D3D3D3D3D3D3D3D3D3D3D3D17
:100910003D3D3D3D0A002073616D706C696E672935
:100920000020252028000A417665726167652073E2
:100930006F696C206D6F6973747572653A20002061
:1009400073616D706C696E672900206F4320280009
:100950000A4176657261676520736F696C20746502
:100960006D70657261747572653A20002073616DF7
:10097000706C696E672900202800206D696C6956CB
:100980006F6C7473203D3E20496E6465783A200098
:100990000A417665726167652055562074656E73ED
:1009A000696F6E3A20002073616D706C696E672903
:1009B00000206C75782028000A41766572616765B1
:1009C000206C696768743A20002073616D706C69EF
:1009D0006E672900206F432028000A417665726106
:1009E0006765206169722068756D69646974793A18
:1009F00020002073616D706C696E672900206F4361
:100A00002028000A4176657261676520616972205D
:100A100074656D70657261747572653A2000206D41
:100A2000696C6C697365636F6E6473203D3D3D3D19
:100A30003D3D3D3D3D000A0A3D3D3D3D3D3D3D3D89
:100A40003D205472616E736D697474696E672061C4
:100A50007665726167652076616C75657320617477
:100A600020000A3D3D3D3D3D3D3D3D3D3D3D3D3D43
:100A70003D3D3D3D3D3D3D3D3D3D3D3D3D3D3D3DA6
:100A80003D3D3D3D3D3D3D3D3D3D3D3D3D3D3D3D96
:100A90003D3D3D3D3D3D3D3D3D3D3D3D3D3D0A00F6
:100AA0004661696C2072656164696E6720736F6965
:100AB0006C206D6F6973747572652073656E736FEA
:100AC000722E2E2E00202500202830202D2031309F
:100AD000323329203D3E20000A536F696C206D6F30
:100AE0006973747572653A20004661696C2072659D
:100AF0006164696E6720736F696C2074656D7065E1
:100B00007261747572652073656E736F722E2E2E0E
:100B100000206F43000A536F696C2074656D706527
:100B20007261747572653A20004661696C20726565
:100B30006164696E672055562073656E736F722EFF
:100B40002E2E00206D696C69566F6C7473203D3ECB
:100B500020496E6465783A20000A555620766F6CFD
:100B6000746167653A2000206C7578000A4C6967EB
:100B700068743A20004661696C2072656164696E30
:100B800067206C696768742073656E736F722E2EB0
:100B90002E00206D696C697365636F6E6473203D10
:100BA0003D3D3D3D3D3D3D3D000A0A3D3D3D3D3D18
:100BB0003D3D3D3D2053616D706C696E67207365EE
:100BC0006E736F722076616C75657320617420009E
:100BD00000002100240027002A002D0030003300EF
:100BE00001010000040107010A01000022002500A4
:100BF00028002B002E003100340002010000050106
:100C000008010B0100000A0B02090C0D0E08070376
:100C100004010000000000000000000000000000CF
:100C200000000000000000000000000000000000C4
:100C30001211100000000000000000000000000081
:100C40000000000000000000000005050505070584
:100C500008080808020202020A0A08080404040438
:100C60000101010101010101030303030303030364
:100C7000040707070C0C0C0C0C0C0C0C02020202F3
:100C800006060606060606060B0B0B0B0B0B0B0BDC
:100C9000010210202008081020401020408002018E
:100CA0000201080402010102040810204080804073
:100CB0002010080402018004020180402010080472
:100CC0000201080402010102040810204080010210
:100CD000040810204080891511241FBECFEFD1E2F7
:100CE000DEBFCDBF00E00CBF12E0A0E0B2E0E4E95F
:100CF000F9E400E00BBF02C007900D92A63DB107DA
:100D0000D9F724E0A6EDB2E001C01D92AB3DB207D9
:100D1000E1F716E0CCE6D6E000E006C02197010935
:100D2000802FFE010E943121CB36D10780E00807D9
:100D3000A9F70E9433160C94C8240C94000081502B
:100D4000823108F05AC0E82FF0E08827E555F94FC6
:100D50008F4F0C943121CB06CF06BD06C306C706C4
:100D6000FD06D206D806DC06E206E606EA06F0062E
:100D7000F406FD06F806FE060207809180008F77D4
:100D8000809380000895809180008F7DF9CF8091BD
:100D90008000877FF5CF84B58F7784BD089584B5B3
:100DA0008F7DFBCF8091B0008F778093B000089546
:100DB0008091B0008F7DF9CF809190008F778093E4
:100DC00090000895809190008F7DF9CF80919000E0
:100DD000877FF5CF8091A0008F778093A000089542
:100DE0008091A0008F7DF9CF8091A000877FF5CF03
:100DF000809120018F7780932001089580912001B8
:100E00008F7DF9CF80912001877FF5CF1F93CF93FE
:100E1000DF93282F30E0F901EC5FF34F8491F90163
:100E2000E057F34FD491F901E65BF34FC491CC2323
:100E3000A9F0162F81110E949F06EC2FF0E0EE0F13
:100E4000FF1FE651F44FA591B4918FB7F894EC9140
:100E5000111108C0D095DE23DC938FBFDF91CF91B5
:100E60001F910895DE2BF8CFCF93DF9390E0FC0124
:100E7000E057F34F2491865B934FFC0184918823C4
:100E8000C9F090E0880F991FFC01E053F44FA59141
:100E9000B491FC01E651F44FC591D49161110DC09C
:100EA0009FB7F8948C91209582238C938881282376
:100EB00028839FBFDF91CF910895623051F49FB78F
:100EC000F8943C91822F809583238C93E8812E2B7C
:100ED000EFCF8FB7F894EC912E2B2C938FBFEACFE6
:100EE0001F93CF93DF93182FEB0161E00E9434072B
:100EF000209739F460E0812FDF91CF911F910C94FE
:100F00000607CF3FD10511F461E0F5CFE12FF0E006
:100F1000EC5FF34FE491E150E23108F0B3C0F0E050
:100F20008827EA56F84F8F4F0C943121A807B00755
:100F3000B507BF07C9074208D307DB07E307ED077B
:100F4000F707010810081A08420824082E08380874
:100F500084B5806884BDC7BDDF91CF911F9108958E
:100F600084B5806284BDC8BDF7CF80918000806861
:100F700080938000D0938900C0938800EDCF80914A
:100F80008000806280938000D0938B00C0938A00A1
:100F9000E3CF80918000886080938000D0938D00A3
:100FA000C0938C00D9CF8091B00080688093B0004E
:100FB000C093B300D1CF8091B00080628093B00025
:100FC000C093B400C9CF8091900080688093900056
:100FD000D0939900C0939800BFCF80919000806219
:100FE00080939000D0939B00C0939A00B5CF8091DE
:100FF0009000886080939000D0939D00C0939C00E7
:10100000ABCF8091A00080688093A0008091A00069
:101010008F7B8093A000D093A900C093A8009CCFA1
:101020008091A00080628093A000D093AB00C09319
:10103000AA0092CF8091A00088608093A000D093F6
:10104000AD00C093AC0088CF809120018068809370
:101050002001D0932901C09328017ECF80912001E7
:10106000806280932001D0932B01C0932A0174CF1A
:1010700080912001886080932001D0932D01C0933E
:101080002C016ACFC038D1050CF03ECF33CFCF93BF
:10109000DF93D72FC82F8091D604681B770B77FF7B
:1010A00003C07195619571098091D3040E94700706
:1010B0008091D6042D2F281B330BB90137FF03C0B5
:1010C0007195619571098091D4040E947007809197
:1010D000D6042C2F281B330BB90137FF03C07195A1
:1010E000619571098091D504DF91CF910C947007BF
:1010F00060E070E080E00C94470890917B00977F5F
:1011000090937B008653806480937C0080917A006A
:10111000806480937A0080917A0086FDFCCF809174
:1011200078009091790008953FB7F8948091DB039F
:101130009091DC03A091DD03B091DE0326B5A89B5E
:1011400005C02F3F19F00196A11DB11D3FBFBA2F59
:10115000A92F982F8827BC01CD01620F711D811D19
:10116000911D42E0660F771F881F991F4A95D1F79E
:1011700008958F929F92AF92BF92CF92DF92EF929B
:10118000FF926B017C010E9494084B015C01C11429
:10119000D104E104F104B9F00E94940868197909B6
:1011A0008A099B09683E73408105910580F321E01F
:1011B000C21AD108E108F10888EE880E83E0981E73
:1011C000A11CB11CE4CFFF90EF90DF90CF90BF90B7
:1011D000AF909F908F9008952FB7F8946091D703A8
:1011E0007091D8038091D9039091DA032FBF0895AD
:1011F00008950895AF92BF92CF92DF92EF92FF923F
:101200000F931F93CF93DF936C017B018B01040F2E
:10121000151FEB015E01AE18BF08C017D10759F0CA
:101220006991D601ED91FC910190F081E02DC6010C
:101230001995892B79F7C501DF91CF911F910F91F6
:10124000FF90EF90DF90CF90BF90AF900895FC019A
:10125000538D448D252F30E0842F90E0821B930B1B
:10126000541710F0CF96089501970895FC01918DC1
:10127000828D981761F0A28DAE0FBF2FB11D5D96C4
:101280008C91928D9F5F9F73928F90E008958FEF66
:101290009FEF0895FC01918D828D981731F0828D1A
:1012A000E80FF11D858D90E008958FEF9FEF089571
:1012B000FC01918D228D892F90E0805C9F4F821BD5
:1012C00091098F73992708958FED93E00E94580933
:1012D00021E0892B09F420E0822F0895FC01A48DE0
:1012E000A80FB92FB11DA35ABF4F2C91848D90E048
:1012F00001968F739927848FA689B7892C93A0892B
:10130000B1898C91837080648C93938D848D9813B4
:1013100006C00288F389E02D80818F7D8083089547
:10132000EF92FF920F931F93CF93DF93EC0181E035
:10133000888F9B8D8C8D98131AC0E889F9898081DC
:1013400085FF15C09FB7F894EE89FF896083E8890F
:10135000F98980818370806480839FBF81E090E001
:10136000DF91CF911F910F91FF90EF900895F62E8E
:101370000B8D10E00F5F1F4F0F731127E02E8C8D28
:101380008E110CC00FB607FCFACFE889F98980816D
:1013900085FFF5CFCE010E946E09F1CFEB8DEC0FEA
:1013A000FD2FF11DE35AFF4FF0829FB7F8940B8F8A
:1013B000EA89FB8980818062CFCF0F931F93CF93FF
:1013C000DF938C01D0E0C0E0F801EC0FFD1F6491C9
:1013D000662341F08FED93E00E949009892B11F074
:1013E0002196F2CFCE01DF91CF911F910F910895F9
:1013F000CF93DF93EC01888D8823B9F0AA89BB894C
:10140000E889F9898C9185FD03C0808186FD0DC036
:101410000FB607FCF7CF8C9185FFF2CF808185FF57
:10142000EDCFCE010E946E09E9CFDF91CF910895F3
:1014300080E090E0892B29F00E94640981110E94CC
:10144000000080E090E0892B49F080E090E0892B5B
:1014500029F00E94000081110E94000080E090E0CD
:10146000892B49F080E090E0892B29F00E94000050
:1014700081110E94000080E090E0892B49F080E01B
:1014800090E0892B29F00E94000081110C9400004B
:101490000895DC0180E0615090F09D919827E92F3C
:1014A000EF70F0E0E053FE4F2491E92FE295EF70EA
:1014B000F0E0E052FE4FE491822F8E27ECCF0895AA
:1014C000DC012C911196ED91FC91F8948181822B95
:1014D00081839281322F30959323928387E090E02D
:1014E0000197F1F781818323818383E290E0019763
:1014F000F1F790817894EFECF0E03197F1F79223D7
:1015000081E009F480E00895FC0190810180F2817E
:10151000E02D292F209560FF14C0F894828182234A
:1015200082838181892B8183A3E2B0E01197F1F757
:101530008281982B9283789487ED90E00197F1F760
:101540000895F8948281822382838181892B81830B
:10155000AFEFB0E01197F1F78281982B92837894E6
:101560008FE090E0EBCFDF92EF92FF920F931F930B
:10157000CF93DF93EC01D62EE42E08E010E0FF2499
:10158000F39461E08D2D8F2109F460E0CE010E947B
:10159000840AFF0C01501109A1F7E11010C0F89462
:1015A000E981FA8191818881809589238183E9810C
:1015B000FA81928188818095892382837894DF9152
:1015C000CF911F910F91FF90EF90DF900895EF92D0
:1015D000FF920F931F93CF93DF938C017B0140E029
:1015E00065E50E94B30AE70188E0E80EF11C699105
:1015F00040E0C8010E94B30ACE15DF05C1F7DF91B4
:10160000CF911F910F91FF90EF900895FC01908171
:101610000180F281E02DF8948181292F2095822389
:10162000818378943DE743E050E0315029F1DA01BD
:101630001197F1F780818923C1F3F8948281822385
:1016400082838181892B81837894ABE7B7E01197FE
:10165000F1F7F894818182238183A3E1B1E01197AE
:10166000F1F78081982381E009F080E07894E3E647
:10167000F6E03197F1F7089580E008956F927F9238
:101680008F929F92AF92BF92CF92DF92EF92FF9292
:101690000F931F93CF93DF938C01EB018091910403
:1016A000909192040E94060B882309F43FC0B80170
:1016B00080919104909192040E94E70A40E06EEBC1
:1016C00080919104909192040E94B30A7E016E0170
:1016D00089E0C80ED11C8E01A0909104B0909204B4
:1016E00088E0882E912C712C66246394C5010E9499
:1016F000600A81117628660CE1E08E1A9108B1F734
:10170000F80171928F01CE16DF0631F780919104B6
:10171000909192040E94060B813041F4F70181916F
:101720007F01811105C0E017F107C1F790E008C003
:1017300068E0CE010E94490A91E028852813F6CF7F
:10174000892FDF91CF911F910F91FF90EF90DF9044
:10175000CF90BF90AF909F908F907F906F900895A3
:10176000DC01ED91FC910190F081E02D1994209124
:101770001703260F3327331F21323105ECF4209154
:101780007703FC0190E080E0243069F082E0089566
:10179000A09117032191AC0149505D4FA40FB52FC3
:1017A000B11D2C930196861798F380911703680F4B
:1017B0006093170380E0089581E008951092770305
:1017C00081E0809376031092710361E084E10E94CE
:1017D000060761E085E10E940607E9EBF0E0808101
:1017E0008E7F808380818D7F808388E48093B800A2
:1017F00085E48093BC000895CF93DF9391E09093AC
:10180000F6028823B9F0C091B800D091BA00809157
:10181000BC008A7B8093BC0060E084E10E940607E4
:1018200060E085E10E9406070E94DE0BD093BA00BB
:10183000C093B800DF91CF9108950895E0917E03A1
:1018400080917D03E81730F4F0E0E158FC4F80818F
:1018500090E008958FEF9FEF089590917E0380911F
:101860007D032FEF3FEF981748F4E92FF0E0E158A0
:10187000FC4F208130E09F5F90937E03C901089563
:1018800080917D0390917E03891B990B0895CF92DF
:10189000DF92EF92FF920F931F93CF93DF937C0120
:1018A000CB018A0120914103222389F0EB016B01D6
:1018B000C40ED51ECC15DD0569F06991D701ED91F7
:1018C000FC910190F081E02DC7011995F3CF642FB1
:1018D0000E94B70BC801DF91CF911F910F91FF902C
:1018E000EF90DF90CF900895CF93DF931F92CDB705
:1018F000DEB76983209141032223F9F020913E0352
:10190000203258F021E030E0FC013383228390E064
:1019100080E00F90DF91CF91089580913F03E82FF1
:10192000F0E0EA52FD4F998190838F5F80933F03EF
:1019300080933E0381E090E0ECCF61E0CE01019620
:101940000E94B70BF7CFCF92DF92EF92FF920F93E7
:101950001F93CF93DF93D0913E0381E0D13208F003
:101960009CC0C09140030E9494086B017C0180914F
:10197000770381116CC082E08093770381E08093CC
:1019800076038FEF8093750310927403D0937303E3
:10199000A6EDB2E0E1E5F3E080E0D8138DC010924F
:1019A000720380917203CC0FC82BC0937203809195
:1019B0007103813009F084C0109271030E94940871
:1019C0006B017C01809172038093BB00809179034D
:1019D00090917A03A0917B03B0917C03892B8A2B91
:1019E0008B2BA1F00E9494080091790310917A0347
:1019F00020917B0330917C036C197D098E099F092E
:101A0000061717072807390708F442C08091BC0061
:101A100083FDD8CF85EC8093BC000E9494086B01B5
:101A20007C0180917703823009F44CC0809175036A
:101A30008F3F09F469C080917503803209F466C054
:101A400080917503803309F463C084E026C08091DF
:101A5000790390917A03A0917B03B0917C03892B49
:101A60008A2B8B2B09F483CF0E9494080091790371
:101A700010917A0320917B0330917C036C197D09CE
:101A80008E099F09061717072807390708F06FCF37
:101A9000809178030E94FC0B85E010923F03109226
:101AA0003E0310924103DF91CF911F910F91FF9060
:101AB000EF90DF90CF9008959D9191938F5F6DCFC0
:101AC00085EEA9CF8091790390917A03A0917B0351
:101AD000B0917C03892B8A2B8B2B09F4A2CF0E9417
:101AE00094080091790310917A0320917B0330913F
:101AF0007C036C197D098E099F09061717072807B3
:101B0000390708F08ECFC4CF80E0C7CF82E0C5CFC1
:101B100083E0C3CF90E080E00895CF92DF92EF9210
:101B2000FF92CF93DF93DC011796CC911797D0E00B
:101B30006111DC2F18962C91189730E0220F331F7B
:101B40002A5C374F50E040E0F90185919491FC0107
:101B5000F080BA0190E080E0EF2DEC23ED1310C08F
:101B60004F5F5F4F1D96CD90DD90ED90FC905097AC
:101B70006C157D058E059F0538F36FEF7FEFCB0168
:101B8000DF91CF91FF90EF90DF90CF9008958F92EB
:101B90009F92AF92BF92CF92DF92EF92FF920F93FC
:101BA0001F93CF93DF93CDB7DEB7C054D1400FB6AC
:101BB000F894DEBF0FBECDBF8C010E94EC08F80187
:101BC000C184D284E384F4849B01AC012C193D09C7
:101BD0004E095F0969017A0130EDC31637E0D3067B
:101BE000E104F104A8F48189C05CDE4F0FB6F894DB
:101BF000DEBF0FBECDBFDF91CF911F910F91FF9040
:101C0000EF90DF90CF90BF90AF909F908F9008950E
:101C1000618772878387948714821382128211826C
:101C2000108262E085810E94340761E070E080E00C
:101C300090E00E94B90861E0F80185810E943407B4
:101C400060E0F80185810E940607F80186818551D0
:101C5000823028F58BE291E10197F1F762E0F8011B
:101C600085810E943407F801828990E082309105D5
:101C700038F0880F991F880F991F05970197F1F782
:101C8000F89460E0C8010E948D0D6F3F7F4F8F4F29
:101C90009F4F61F4F801118A789480E0A5CF64E148
:101CA00070E080E090E00E94B908D8CF61E0C80100
:101CB0000E948D0D6F3F7F4F8F4F9F4F59F39E01B5
:101CC0002F5F3F4F79015E013FEBA31A3EEFB30A4E
:101CD000670160E0C8010E948D0DF6016083718389
:101CE0008283938361E0C8010E948D0DF6016483B5
:101CF000758386839783F8E0CF0ED11CCA14DB046A
:101D000041F7789430E020E0F70180809180A28054
:101D1000B3804481558166817781FFEF8F169F06DE
:101D2000AF06BF0631F04F3F8FEF580768077807BF
:101D300019F4F801118AB1CFF90183E0F595E7951F
:101D40008A95E1F7E00FF11F8081880F84169506D0
:101D5000A606B706F0F080832F5F3F4FF8E0EF0E46
:101D6000F11C2832310581F6F801448120818181FE
:101D7000280F3327331F8281280F311D8381820F63
:101D8000932F911D99274817190699F681E0818BA9
:101D90002BCF8160E0CFFC0183898B3051F480E44C
:101DA00092E4AFE0B0E0FB0184A395A3A6A3B7A3A0
:101DB000089580E894E8AEE1B0E0F5CF0895833E61
:101DC0009105A8F19C01235E31092B35310588F17D
:101DD0002B5531092A35310570F12A5531092F3536
:101DE000310558F12F5531092736310540F1275675
:101DF00031092A35310528F12A55310923363105B3
:101E000010F12356310926353105F8F026553109F0
:101E10002F353105E0F02F55310927363105C8F04F
:101E2000875394408B359105B0F08BE0089580E0A6
:101E3000089581E0089582E0089583E0089584E0A4
:101E4000089585E0089586E0089587E0089588E084
:101E5000089589E008958AE008950895FC010190AD
:101E60000020E9F73197AF01481B590BBC018FEDFA
:101E700093E00C94FA088F929F92AF92BF920F93C7
:101E80001F93CF93DF93CDB7DEB7A1970FB6F8942A
:101E9000DEBF0FBECDBF19A2423008F44AE08E016A
:101EA0000F5D1F4F842E912CB12CA12CA501940104
:101EB0000E94D820E62FB901CA01EA30F4F4E05DAF
:101EC000D801EE938D01232B242B252B79F790E05D
:101ED00080E0109719F0CD010E942E0FA1960FB649
:101EE000F894DEBF0FBECDBFDF91CF911F910F9150
:101EF000BF90AF909F908F900895E95CE1CF0097DD
:101F000011F00C942E0F90E080E00895CF93DF93B2
:101F10000E94DD09EC018CE492E00E942E0F8C0FF0
:101F20009D1FDF91CF9108954F925F926F927F92A4
:101F30008F929F92AF92BF92CF92DF92EF92FF92D9
:101F40006B017C01AC019B010E948623882381F0F8
:101F50008FE492E0FF90EF90DF90CF90BF90AF9032
:101F60009F908F907F906F905F904F900C942E0F6A
:101F700046015701E894B7F82FEF3FEF4FE75FE7CF
:101F8000C501B4010E94862381110DC02FEF3FEFE0
:101F90004FE75FE7C501B4010E94B52118161CF494
:101FA00083E592E0D7CF2FEF3FEF4FE75FE4C70124
:101FB000B6010E94142318161CF487E592E0CACFDC
:101FC0002FEF3FEF4FE75FECC701B6010E94B5214D
:101FD00087FDF3CF20E030E0A901C701B6010E94E0
:101FE000B521B12CA12C87FF0AC06DE28FED93E0E3
:101FF0000E9490095C01F7FAF094F7F8F0942AE057
:1020000037ED43EA5BE3C701B6010E9449212B018A
:102010003C010E9433226B017C010E9462229B01E1
:10202000AC01C301B2010E9448212B013C014AE0EE
:10203000C701B6010E943B0F7C01EA0CFB1C6EE25B
:102040008FED93E00E949009E80EF91E20E030E049
:1020500040E251E4C301B2010E9419232B013C016B
:102060000E9433224B01B12CA12C4AE0C501B401DE
:102070000E943B0FE80EF91EC501B4010E946222C6
:102080009B01AC01C301B2010E94482120E030E075
:1020900040E251E40E9419230E94332290E080E044
:1020A0004AE00E943B0F8E0D9F1DFF90EF90DF9046
:1020B000CF90BF90AF909F908F907F906F905F90E8
:1020C0004F900895CF92DF92EF92FF92CF93DF93DC
:1020D00097FF1BC06B017C016DE28FED93E00E94C6
:1020E0009009EC0166277727CB016C197D098E09D1
:1020F0009F094AE00E943B0F8C0F9D1FDF91CF91FB
:10210000FF90EF90DF90CF9008954AE0DF91CF915C
:10211000FF90EF90DF90CF900C943B0FBF92CF9247
:10212000DF92EF92FF920F931F93CF93DF93EC0117
:10213000B62EC72E8D85811105C0CE010E94060BDB
:1021400081110EC01B861D861C8680E0DF91CF9119
:102150001F910F91FF90EF90DF90CF90BF90089567
:1021600040E060EFCE010E94B30A01E0E12CD12CE7
:1021700011E0CE010E94600AF82ECE010E94600A92
:1021800091E0F91218C0813099F51134D8F2DB864C
:10219000D11002C081E08D878B81882399F223962C
:1021A000EB2DFC2DCF01089629912193E817F90713
:1021B000D9F781E0CBCFEE2DF0E0F8120FC08B8580
:1021C0001817A0F4DE01AE0FBF1F13968C91802369
:1021D00079F4F12C193008F41C87D12EEC0FFD1F77
:1021E0008381902F9095892383830AC08113F1CF37
:1021F000FE01EE0DF11D8381802B8383FF24F39478
:102200006F2DCE010E94840A1F5F000F11F4E3942A
:1022100001E087E08E1508F0ACCFB7CF682F70E0F3
:1022200090E080E04AE00C943B0F85ED8093BC0089
:102230008091790390917A03A0917B03B0917C0304
:102240000796A11DB11D23E0B695A7959795879593
:102250002A95D1F72091BC0024FD03C0109277038A
:1022600008954091790350917A0360917B037091B6
:102270007C03452B462B472B69F30097A105B1053D
:1022800041F025E32A95F1F700000197A109B10972
:10229000E1CF809178030C94FC0BCF92DF92EF9208
:1022A000FF920F931F93CF93DF938C01EB01FB0100
:1022B000349680E2DF011D928A95E9F784E290E08E
:1022C000A0E0B0E088839983AA83BB83F80185816D
:1022D0009681A781B0858C839D83AE83BF838CE07C
:1022E00090E0A0E0B0E088879987AA87BB870E942A
:1022F000EC08688B798B8A8B9B8BD80113960D9198
:102300001C91C8010E94C70D882349F0F8018681FD
:102310008B3028F08D3040F08551823070F160E0D4
:1023200070E080EC9FE71BC0618170E090E080E08E
:102330000E9464222DEC3CEC4CEC5DE30E941923DE
:102340006B017C01F801608170E090E080E00E9408
:1023500064229B01AC01C701B6010E9449216C8B2C
:102360007D8B8E8B9F8B81E0DF91CF911F910F91A1
:10237000FF90EF90DF90CF90089560817181762774
:102380006727762790E080E00E9462222DEC3CECEB
:102390004CEC5DE30E941923E2CF8F929F92AF92A3
:1023A000BF92EF92FF921F93CF93DF937C01EB01DB
:1023B000FB01349680E2DF011D928A95E9F784E201
:1023C00090E0A0E0B0E088839983AA83BB83F70103
:1023D00085819681A781B0858C839D83AE83BF83E1
:1023E0008DE090E0A0E0B0E088879987AA87BB875E
:1023F0000E94EC08688B798B8A8B9B8BD701139694
:10240000ED90FC90C7010E94C70D882341F0F701B1
:1024100086818C3009F455C038F48B30E1F060E0EF
:1024200070E080EC9FE73EC085518230C0F712819A
:10243000612F70E0762F662766277F778381682B70
:1024400090E080E00E9462222DEC3CEC4CEC5DE3DD
:102450000E94192351C0628170E090E080E00E94E8
:1024600062224B015C01F701138117FF0AC0AC0126
:102470009B0160E070E080E89FEB0E9448214B01E7
:102480005C011F70612F70E090E080E00E94642288
:102490002DEC3CEC4CEC5DE30E941923A50194016A
:1024A0000E9449216C8B7D8B8E8B9F8B81E0DF910D
:1024B000CF911F91FF90EF90BF90AF909F908F9022
:1024C00008951281612F70E090E080E00E94622206
:1024D0004B015C01F70163816F7070E090E080E078
:1024E0000E9464222DEC3CEC4CEC5DE30E9419232D
:1024F000A50194010E94492117FFD4CF9058D2CF53
:10250000CF93DF93EB01FC0183894BE050E061E660
:1025100072E08C30C1F058F44BE050E06BE572E0B3
:102520008B3089F04BE050E063E772E00CC04BE089
:1025300050E067E672E0853131F04BE050E06DE647
:1025400072E0863179F7CE010E94B9241B86DF91B3
:10255000CF9108950F931F93CF93DF938C01EB01DD
:1025600088E2DB011D928A95E9F7F8018381948165
:102570000E94801281E090E0A0E0B0E08C879D870F
:10258000AE87BF87F80185819681A781B085888B4A
:10259000998BAA8BBB8B8CE090E0A0E0B0E08C8B99
:1025A0009D8BAE8BBF8BBE01838194810E94CB0E2D
:1025B000D8011396ED91FC9183898C3009F441C0C8
:1025C00078F48B3009F1188E198E1A8E1B8E1C8EA2
:1025D0001D8E1E8E1F8E18A219A21AA21BA22CC01D
:1025E0008551823080F780E090E0A8ECB2E4888FDB
:1025F000998FAA8FBB8F1C8E1D8E1E8E1F8E8DEC09
:102600009CECACECBDE314C080E090E0A0EAB2E446
:10261000888F998FAA8FBB8F80E090E0A0EAB1E409
:102620008C8F9D8FAE8FBF8F80E090E0A0EAB0E4EA
:1026300088A399A3AAA3BBA3DF91CF911F910F9168
:10264000089580E090E0AEEBB2E4E2CF0F931F93E9
:10265000CF93DF938C01EB0188E2DB011D928A9519
:10266000E9F7F801838194810E94801281E090E073
:10267000A0E0B0E08C879D87AE87BF87F801858199
:102680009681A781B085888B998BAA8BBB8B8DE0B7
:1026900090E0A0E0B0E08C8B9D8BAE8BBF8BBE0139
:1026A000838194810E94CB0ED8011396ED91FC9109
:1026B00083898C3091F178F48B30B1F0188E198EBB
:1026C0001A8E1B8E1C8E1D8E1E8E1F8E18A219A296
:1026D0001AA21BA21DC08531A9F1863179F780E0CD
:1026E00090E0AAEFB2E432C080E090E0A8E4B2E467
:1026F000888F998FAA8FBB8F1C8E1D8E1E8E1F8E6A
:1027000080E090E0A0E0B0E488A399A3AAA3BBA3D3
:10271000DF91CF911F910F91089580E090E0A0E7A5
:10272000B2E4888F998FAA8FBB8F80E090E0A0EAF7
:10273000B1EC8C8F9D8FAE8FBF8F80E090E0A0E0DA
:10274000BFE3E2CF80E090E0A0EAB2E4888F998F07
:10275000AA8FBB8F80E090E0A0E2B2EC8C8F9D8FBF
:10276000AE8FBF8F8DEC9CECACECBDE3CDCF0C9469
:1027700027240C9427241F920F920FB60F92112436
:102780002F933F938F939F93AF93BF938091D703E2
:102790009091D803A091D903B091DA033091D60378
:1027A00023E0230F2D3758F50196A11DB11D20936D
:1027B000D6038093D7039093D803A093D903B09303
:1027C000DA038091DB039091DC03A091DD03B091EB
:1027D000DE030196A11DB11D8093DB039093DC0302
:1027E000A093DD03B093DE03BF91AF919F918F91D2
:1027F0003F912F910F900FBE0F901F90189526E8D4
:10280000230F0296A11DB11DD2CF1F920F920FB6BA
:102810000F9211240BB60F922F933F934F935F9318
:102820006F937F938F939F93AF93BF93EF93FF9398
:102830008FED93E00E946E09FF91EF91BF91AF91F0
:102840009F918F917F916F915F914F913F912F91C8
:102850000F900BBE0F900FBE0F901F9018951F92F8
:102860000F920FB60F9211240BB60F922F938F93E6
:102870009F93EF93FF93E091EF03F091F00380813A
:10288000E091F503F091F60382FD1DC090818091E7
:10289000F8038F5F8F732091F903821741F0E09165
:1028A000F803F0E0E152FC4F958F8093F803FF911D
:1028B000EF919F918F912F910F900BBE0F900FBEB4
:1028C0000F901F9018958081F2CF1F920F920FB634
:1028D0000F9211240BB60F922F933F934F935F9358
:1028E0006F937F938F939F93AF93BF93EF93FF93D8
:1028F0008091B900887F803609F44DC008F040C04F
:10290000883209F4A9C028F5803109F49DC0C8F4C3
:10291000882309F4FBC0883009F496C0FF91EF9139
:10292000BF91AF919F918F917F916F915F914F91E7
:102930003F912F910F900BBE0F900FBE0F901F90E5
:102940001895883109F488C0803241F78093750367
:1029500014C0803409F49DC040F48033B9F3883347
:10296000E9F68093750385ECB0C0803509F485C025
:10297000883509F496C0883489F60E941511CECFA7
:10298000883909F48CC038F5883729F050F4883636
:1029900011F0803719F683E08093770310923903A2
:1029A00057C0883809F47BC0803919F0803809F0A5
:1029B000B5CF80913903803208F071C0E0913903BE
:1029C00081E08E0F809339038091BB00F0E0E75ED9
:1029D000FC4F80833DC0803B39F0E0F4803A09F43D
:1029E00079C0883A09F09ACF84E0809377031092F7
:1029F000180310921703E0913C03F0913D031995E1
:102A00008091170381110FC081E08093170310920A
:102A1000F70209C0803C09F4A6CF883C09F4A3CF93
:102A2000883B09F07BCFE091180381E08E0F809303
:102A30001803F0E0E950FD4F80818093BB00909136
:102A400018038091170329C0809172038093BB0003
:102A500085EC8093BC0062CF9091740380917303E6
:102A6000981758F5E091740381E08E0F80937403FA
:102A7000F0E0EF5AFC4F8081E9CFE091740381E0F0
:102A80008E0F809374038091BB00F0E0EF5AFC4FEF
:102A9000808390917403809173039817C8F285E83E
:102AA000D8CFE091740381E08E0F809374038091FE
:102AB000BB00F0E0EF5AFC4F8083809176038111D8
:102AC0005CCF81E08093710384EA8093BC00109214
:102AD000770324CF85EC8093BC001092770380911C
:102AE0003903803230F4E0913903F0E0E75EFC4FC7
:102AF00010826091390370E0E0913A03F0913B035A
:102B000089E193E019951092390308CF109275036B
:102B100034CFCF93DF93EFEDF3E01382128288EE90
:102B200093E0A0E0B0E084839583A683B78320E19F
:102B300032E03183208325EC30E03587248724EC94
:102B400030E03787268720EC30E0318B208B21EC7A
:102B500030E0338B228B22EC30E0358B248B26EC5B
:102B600030E0378B268B118E128E138E148ECCE7AD
:102B7000D4E01B821A828C839D83AE83BF8382E262
:102B800092E099838883E3EDF4E082E0808383E040
:102B9000818384E082838FEF8383ADEAB4E085E3B1
:102BA00015968C93159786E116968C931697E5ECFF
:102BB000FCE0E4911796EC931797EFE7FCE0E491C3
:102BC0001896EC93189740E85EE360E070E01D967D
:102BD0004D935D936D937C93509753968C9353973D
:102BE00082E492E055969C938E9354970A2E1B2E66
:102BF00058961C920E92112457974FEF5FEFBA012F
:102C000059964D935D936D937C935C9784E392E02A
:102C10005E969C938E935D970A2E1B2E91961C9226
:102C20000E921124909792964D935D936D937C93A1
:102C30009597EFE9F4E085E481838AE999E9A9E9C8
:102C4000BFE382839383A483B5831782168283E2D2
:102C50008083D187C087E8E8F4E0168A158A11825C
:102C6000DF91CF910895CF93DF93CDB7DEB7E39790
:102C70000FB6F894DEBF0FBECDBF789484B58260E6
:102C800084BD84B5816084BD85B5826085BD85B510
:102C9000816085BD80916E00816080936E0010928E
:102CA0008100809181008260809381008091810009
:102CB000816080938100809180008160809380009A
:102CC0008091B10084608093B1008091B0008160F8
:102CD0008093B000809191008260809391008091F8
:102CE0009100816080939100809190008160809339
:102CF00090008091A10082608093A1008091A1004A
:102D000081608093A1008091A00081608093A000E9
:102D10008091210182608093210180912101816055
:102D20008093210180912001816080932001809116
:102D30007A00846080937A0080917A008260809328
:102D40007A0080917A00816080937A0080917A0085
:102D5000806880937A001092C10061E08DE00E944B
:102D6000340761E08091D3040E94340761E08091D0
:102D7000D4040E94340761E08091D5040E94340796
:102D80006FEF70E08FEF0E944708E091EF03F09142
:102D9000F00382E08083E091EB03F091EC0310827A
:102DA000E091ED03F091EE0380E180831092F70350
:102DB000E091F303F091F40386E08083E091F10366
:102DC000F091F203808180618083E091F103F091C2
:102DD000F203808188608083E091F103F091F20337
:102DE000808180688083E091F103F091F20380811B
:102DF0008F7D808388E294E00E94DD0989EF93E073
:102E00000E94DD098AEC93E00E94DD098BE993E0E2
:102E10000E94DD098CE693E00E94DD098DE393E0DA
:102E20000E94DD098EE093E00E94DD098BEF92E0C5
:102E30000E94DD098CED92E00E94DD0988E792E0B6
:102E40000E947F0F8DEB92E00E94DD0983E892E003
:102E50000E947F0F8EE992E00E94DD098CE892E0EB
:102E60000E947F0F8FE792E00E94DD0980EA92E0E6
:102E70000E947F0F80E692E00E94DD0980EA92E0E6
:102E80000E947F0F81E492E00E94DD0986EA92E0D1
:102E90000E947F0F82E292E00E94DD0980ED92E0C5
:102EA0000E947F0F80EF91E00E94DD098FED93E09B
:102EB0000E94F80968E873E180E090E00E94B90898
:102EC0008DE795E00E94DD098FED93E00E94F809FF
:102ED00060E085E30E94340762E08091B2040E94C2
:102EE00034070E94EC08605D774081099109609386
:102EF000B6047093B7048093B8049093B90487E341
:102F00008093BF048091C3048BA782E492E09AA7C8
:102F100089A78091C4049091C5049DA78CA7809136
:102F2000C6049091C704A091C804B091C9048EA7AB
:102F30009FA7A8ABB9ABBE016F5F7F4FCE0189964B
:102F40000E9426136DE672E0CE0101960E94B02425
:102F5000892B09F008C189E695E00E94DD09CE01C0
:102F600001960E947F0F85E595E00E94DD096D8541
:102F70007E858F8598890E94621081E495E00E9489
:102F8000DD0969897A898B899C890E9462108DE2AA
:102F900095E00E94DD096DA17EA18FA198A528EE84
:102FA00033E040E050E00E94B920CA01B9010E941C
:102FB000621089E295E00E94DD0985E195E00E94BA
:102FC000DD098EEF94E00E94DD096D8D7E8D8F8D81
:102FD00098A10E94940F8AEF94E00E94DD0983EE8D
:102FE00094E00E94DD09698D7A8D8B8D9C8D0E9405
:102FF000940F8FED94E00E94DD0986EC94E00E942E
:10300000DD0969A17AA18BA19CA10E94940F82EC99
:1030100094E00E94DD098FED93E00E94F809809111
:10302000CC048BA784E392E09AA789A78091CD0472
:103030009091CE049DA78CA78091CF049091D0044D
:10304000A091D104B091D2048EA79FA7A8ABB9AB31
:10305000BE016F5F7F4FCE0189960E94AA1281EB5D
:1030600094E00E94DD0988E994E00E94DD096D8DFD
:103070007E8D8F8D98A10E94940F85E994E00E9427
:10308000DD098EE794E00E94DD09698D7A8D8B8DD4
:103090009C8D0E94940F8BE794E00E94DD0982E6EC
:1030A00094E00E94DD0969A17AA18BA19CA10E94F4
:1030B000940F8FE594E00E94DD098FED93E00E946C
:1030C000F809109250038CE098E00E94DD091092FC
:1030D0007E0310927D0310923F0310923E030E94E4
:1030E000DE0B88EF98E090933D0380933C0389EFDB
:1030F00098E090933B0380933A0387E098E00E9426
:10310000DD0988EE97E00E94DD0923E220939F0409
:103110008091A7049091A80401E0009341032093BB
:103120004003DC01ED91FC910190F081E02D61E123
:1031300019958091A7049091A8040E94A30C182FC0
:103140006AE070E080E090E00E94B908123009F473
:10315000ACC0D0F4112369F18CE097E01130E1F0BC
:1031600089E696E019C088E594E00E94DD098FEDBC
:1031700093E00E94F80981E0809350036FEF70E0C4
:1031800080E00E9447089FCF85EA96E0133021F047
:1031900089E896E0143021F70E94860F81E0809341
:1031A00050036FEF70E080E00E9447088CED97E0DD
:1031B00084C081E190E09093A6048093A5040E94CE
:1031C000EC086093A9047093AA048093AB049093D5
:1031D000AC048091A7049091A80420919F040093CF
:1031E00041032093400310923F0310923E0362E498
:1031F00070E00E94B00B8091A7049091A8040E94F7
:10320000A30C182F8091A7049091A80420919F04EB
:10321000009341032093400310923F0310923E031A
:1032200065E670E00E94B00B8091A7049091A8041D
:103230000E94A30C182B8091A7049091A8042091C0
:103240009F04009341032093400310923F03109288
:103250003E036091A5047091A6040E94B00B80917A
:10326000A7049091A8040E94A30C182B6AE070E0B8
:1032700080E090E00E94B908123009F4F9C050F4DF
:103280001123B1F08CE396E0113009F485CF89E980
:1032900095E082CF85ED95E0133009F47DCF89EB81
:1032A00095E0143009F478CFF2CF87ED96E074CF33
:1032B00085E48093A00483EE97E00E94DD0981EC11
:1032C00097E00E94DD0960E086E30E9434078CEB02
:1032D00097E00E94DD0988E997E00E94DD0960E03F
:1032E00083E30E943407E3ECFCE0E491E0934203C3
:1032F000EDE7FCE0E491F0E0EE0FFF1FEA5CF74F32
:1033000085919491909344038093430310924D03CD
:1033100010924F0310924E0310924C0310924B03E5
:1033200010924A03109249031092480310924703E7
:10333000109246031092450383E997E00E94DD094D
:1033400089E697E00E94DD0982E493E0909392047D
:103350008093910410928F0410929004109288042C
:1033600089E080938B0481E080938C0480938D04AA
:1033700080938E0410924D0310924F0310924E03CF
:1033800010924C0310924B0310924A03109249037F
:10339000109248031092470310924603109245037F
:1033A00011E0BE01675D7F4F80919104909192047E
:1033B0000E948E10882309F478C067E0CE018996B8
:1033C0000E94490A98A98913ECCF80918F048F5FDE
:1033D00080938F0489A5883231F008F04CC0803189
:1033E00011F08232F1F6809190048F5F8093900407
:1033F00080918804811128C0809191049091920459
:103400000E94060BBE01675D7F4F809191049091F1
:1034100092040E94E70A40E064EB8091910490914D
:1034200092040E94B30A80919104909192040E94A8
:10343000600A082F80919104909192040E94060BDB
:10344000011102C01093880489A58031F9F0BE01F2
:103450006F5F7F4FCE0189960E943E0B882331F02B
:103460008D818F33F1F070F48F31E9F080E011C07D
:1034700087E096E091CE8B3309F4B5CF823409F022
:1034800090CFB1CF8F3521F08F3781F78CE001C01D
:103490008BE090918B04981708F083CF80938B0476
:1034A00080CF8AE0F6CF89E0F4CFE0919104F091EB
:1034B000920413861586148612861186108617824A
:1034C000168215821482138264EA73E0809191045B
:1034D000909192040E948E10882329F067E084EA7C
:1034E00093E00E94490A84E697E00E94DD098EE39A
:1034F00097E00E94DD0960E087E30E94340789E3DA
:1035000097E00E94DD0980915003811102C00E9462
:10351000780811E024E3222E22E0322E44244A943B
:1035200033E0532E612C712C05EE0E94EC084B0108
:103530005C018092D2039092D303A092D403B09204
:10354000D5038091CE039091CF03A091D003B09189
:10355000D10388169906AA06BB0688F4AC01BD0102
:103560004095509560957095480D591D6A1D7B1DBD
:10357000483E53406105710510F01093CD03A5013D
:103580009401281B390B4A0B5B0BDA01C901883EF9
:103590009340A105B10528F48091CD03882309F457
:1035A000ADC38092CE039092CF03A092D003B0928D
:1035B000D1031092CD03E1E1FCE08491EDE9FCE060
:1035C000E490E7E5FCE0F490FF2079F081110E949F
:1035D0009F06EF2DF0E0EE0FFF1FEA5CF74FA5917D
:1035E000B4918C91E82260E009F461E08DE00E94E2
:1035F00006078091C9039091CA03A091CB03B091B3
:10360000CC0388169906AA06BB0688F4AC01BD0156
:103610004095509560957095480D591D6A1D7B1D0C
:10362000403157426105710510F01093C803A501A0
:103630009401281B390B4A0B5B0BDA01C90180315D
:103640009742A105B10528F48091C803882309F4A5
:10365000C8C18092C9039092CA03A092CB03B092D2
:10366000CC031092C80360E07FEF80E00E9447081F
:1036700089EA9BE00E94DD094AE0C501B4010E948D
:103680003B0F82E99BE00E94DD098FED93E00E94F1
:10369000F8098091C3048BA742E452E05AA749A7D6
:1036A0008091C4049091C5049DA78CA78091C60405
:1036B0009091C704A091C804B091C9048EA79FA798
:1036C000A8ABB9ABBE016F5F7F4FCE0189960E9458
:1036D000CD11CD88DE88EF88F88CA7019601C7014F
:1036E000B6010E948623882309F40BC382EA98E07E
:1036F0000E94860F8FED93E00E94F8096FEF70E053
:1037000080E00E9447088091CC048BA73AA629A6A6
:103710008091CD049091CE049DA78CA78091CF0479
:103720009091D004A091D104B091D2048EA79FA70C
:10373000A8ABB9ABBE016F5F7F4FCE0189960E94E7
:103740004D11CD88DE88EF88F88CA7019601C7015E
:10375000B6010E948623882309F4FFC283E798E01C
:103760000E94860F8FED93E00E94F8096FEF70E0E2
:1037700080E00E9447088091A5049091A604892BBF
:1037800009F017C380E598E00E94860FC12CD12C68
:10379000E12C80ECF82EC701B6010E9433226B01A8
:1037A000F12CE12CC701B6010E9462229B01AC0101
:1037B0000E948623882309F436C485E79BE00E9493
:1037C000860F86E30E947D08BC01990F880B990B38
:1037D0000E9464222AE038E240EA5BE30E94192357
:1037E00020E030E04AE754E40E9419230E942C2292
:1037F0004B016B01770FEE08FF08C701B6010E946D
:1038000064229B01AC010E948623811133C4809104
:10381000BB039091BC03A091BD03B091BE038C0D7E
:103820009D1DAE1DBF1D8093BB039093BC03A09351
:10383000BD03B093BE038091BF038F5F8093BF032E
:1038400089E59BE00E94DD09C701B6010E94621074
:1038500083E49BE00E94DD09C4010E94DF0E0E9408
:103860000E1180919104909192040E94060B40E009
:103870006CEC80919104909192040E94B30A409163
:10388000880464E480919104909192040E94B30AA8
:1038900080918C04882311F1E0918B0480918D0438
:1038A000882309F4ECC3809188048111E8C30E9445
:1038B000EC086B017C0180919104909192040E942C
:1038C000600A813059F00E94EC086C197D098E095C
:1038D0009F096E3E72408105910568F3BE016F5FDE
:1038E0007F4F84EA93E00E943E0B8111F0C3C12C0C
:1038F000D12C8EEFE82E82ECF82EA7019601609174
:10390000C0037091C1038091C2039091C3030E94D0
:1039100049216093C0037093C1038093C2039093C5
:10392000C3038091C4038F5F8093C40385E19BE050
:103930000E94DD09C701B6010E94940F81E19BE05E
:103940000E94DD0987E30E947D085C016C01990FEC
:10395000EE08FF08C701B6010E9464229B01AC017A
:103960000E948623811100C49501ACE9BFEF0E943B
:103970003921A30192010E94B92049015A01E4E6CC
:103980008E0E911CA11CB11C8091C5039091C603A1
:10399000880D991D9093C6038093C5038091C7033A
:1039A0008F5F8093C70388ED9AE00E94DD09C7010D
:1039B000B6010E94621088EC9AE00E94DD09C50100
:1039C000B4010E94621085EC9AE00E94DD0982E653
:1039D0009AE00E94DD098FED93E00E94F8090E94B1
:1039E00078080E94EC086B017C01C092D203D0924F
:1039F000D303E092D403F092D5038091A003909179
:103A0000A103A091A203B091A303C816D906EA06A8
:103A1000FB0688F4AC01BD0140955095609570950A
:103A20004C0D5D1D6E1D7F1D4035534C61057105AC
:103A300010F010939F03A7019601281B390B4A0B26
:103A40005B0BDA01C9018035934CA105B10528F45F
:103A500080919F03882309F451C1C092A003D092A2
:103A6000A103E092A203F092A30310929F0360E0EF
:103A700070E08FEF0E94470864EF71E080E090E013
:103A80000E94B90886E39AE00E94DD094AE0C70176
:103A9000B6010E943B0F8EE19AE00E94DD0983E0AF
:103AA0009AE00E94DD096091B00370E090E080E050
:103AB0000E9464229B01AC016091AC037091AD0344
:103AC0008091AE039091AF030E94BA210E94940F9F
:103AD0008DEF99E00E94DD098091B0030E940E11E4
:103AE00082EF99E00E94DD098AED99E00E94DD09EC
:103AF0006091B50370E090E080E00E9464229B0139
:103B0000AC016091B1037091B2038091B3039091C5
:103B1000B4030E94BA210E94940F84ED99E00E94A0
:103B2000DD098091B5030E940E1189EC99E00E9495
:103B3000DD0988EB99E00E94DD092091BA0330E0AD
:103B400050E040E06091B6037091B7038091B803F4
:103B50009091B9030E94D820CA01B9014AE00E949D
:103B60003B0F81EB99E00E94DD098091BA030E942E
:103B70000E1186EA99E00E94DD0980E999E00E9431
:103B8000DD092091BF0330E050E040E06091BB03CD
:103B90007091BC038091BD039091BE030E94D82018
:103BA000CA01B9014AE00E943B0F8AE799E00E94EE
:103BB000DD092091BF0330E050E040E06091BB039D
:103BC0007091BC038091BD039091BE030E94D820E8
:103BD000C9010E94DF0E0E940E1187E799E00E9442
:103BE000DD098091BF030E940E118CE699E00E94CE
:103BF000DD0980E599E00E94DD096091C40370E071
:103C000090E080E00E9464229B01AC016091C003BF
:103C10007091C1038091C2039091C3030E94BA21A5
:103C20000E94940F8AE499E00E94DD098091C40308
:103C30000E940E118FE399E00E94DD0986E299E06F
:103C40000E94DD096091C70370E08091C5039091E7
:103C5000C6030E94092190E080E04AE00E943B0FE9
:103C600081E299E00E94DD098091C7030E940E1154
:103C700086E199E00E94DD0988ED98E00E94DD0967
:103C80008FED93E00E94F8091092AC031092AD03FF
:103C90001092AE031092AF031092B0031092B103D2
:103CA0001092B2031092B3031092B4031092B503B2
:103CB0001092B6031092B7031092B8031092B90392
:103CC0001092BA031092BB031092BC031092BD0372
:103CD0001092BE031092BF031092C0031092C10352
:103CE0001092C2031092C3031092C4031092C60331
:103CF0001092C5031092C7030E9478080E94180A08
:103D000014CCA70196016091AC037091AD03809132
:103D1000AE039091AF030E9449216093AC0370936E
:103D2000AD038093AE039093AF038091B0038F5F98
:103D30008093B00385EC98E00E94DD096D897E894F
:103D40008F89988D0E94940F81EC98E00E94DD0984
:103D50008FED93E00E94F809D6CCA70196016091FF
:103D6000B1037091B2038091B3039091B4030E94A8
:103D700049216093B1037093B2038093B30390938E
:103D8000B4038091B5038F5F8093B50382E998E017
:103D90000E94DD096D897E898F89988D0E94940F1C
:103DA0008FE898E00E94DD098FED93E00E94F8090A
:103DB000E2CCB0909F040E9494086B017C0180913A
:103DC0007703811164C010937703109376038FEF0C
:103DD000809375031092740310937303109372030E
:103DE00080917203BB0CB82AB09272038091710368
:103DF000813009F0F1C0109271030E9494086B01A8
:103E00007C01809172038093BB0080917903909133
:103E10007A03A0917B03B0917C03892B8A2B8B2B97
:103E2000A1F00E9494088090790390907A03A0906A
:103E30007B03B0907C036C197D098E099F0986165F
:103E40009706A806B90608F443C08091BC0083FD1C
:103E5000D8CF55EC5093BC000E9494086B017C01B4
:103E600080917703813009F4BAC080917403823065
:103E700008F0D7C080917403A1E5B3E0EFE7F3E069
:103E800090E0981751F12D9121939F5FFACF809187
:103E9000790390917A03A0917B03B0917C03892BE5
:103EA0008A2B8B2B09F48BCF0E94940820917903E5
:103EB00030917A0340917B0350917C036C197D090A
:103EC0008E099F09261737074807590708F077CF4B
:103ED000809178030E94FC0B80E010927E03809317
:103EE0007D03C12CD12CB0E8EB2EBFEBFB2E823032
:103EF00019F58091A7049091A804DC01ED91FC9143
:103F00000284F385E02D19958BAB1AAA8091A70442
:103F10009091A804DC01ED91FC910284F385E02DE1
:103F20001995EAA9FBA98E2B9F2BBC0190E080E09C
:103F30000E9462226B017C010E94EC086093A9043C
:103F40007093AA048093AB049093AC0420E030E01B
:103F500040E85FEBC701B6010E94B521882309F450
:103F60001ACC6091A0046534A9F070E090E080E084
:103F70000E9462229B01AC0160E070E08AE892E45A
:103F80000E94BA219B01AC01C701B6010E9419230E
:103F90006B017C018091A5049091A604813291056A
:103FA00011F0419751F420E030E040E05FE3C701B9
:103FB000B6010E9419236B017C012091A10430916C
:103FC000A2044091A3045091A404C701B6010E9429
:103FD000BA216B017C01DFCB0093BC003DCF809107
:103FE000790390917A03A0917B03B0917C03892B94
:103FF0008A2B8B2B09F434CF0E949408809079038C
:1040000090907A03A0907B03B0907C036C197D099B
:104010008E099F0986169706A806B90608F020CFD4
:1040200057CF82E029CF8091B6039091B703A0913A
:10403000B803B091B9038C0D9D1DAE1DBF1D8093BB
:10404000B6039093B703A093B803B093B9038091DC
:10405000BA038F5F8093BA038CE69BE00E94DD0970
:104060004AE0C701B6010E943B0F87E69BE00E9431
:10407000DD09A7CB89E29BE00E94860FF2CBE950D5
:104080008EEE92E0E33038F4F0E0EE0FFF1FEA5FCF
:10409000FD4F808191816C01990FEE08FF0880919E
:1040A0008904882329F060E080918A040E94060731
:1040B000C701B6010E94B90880918904882309F4D8
:1040C0000DCC61E080918A040E94060707CC6A81CA
:1040D00070E0762F6627770F770F770F298148E0FA
:1040E000249F90011124262B372B8091A40380312B
:1040F000E1F468856623C9F070E08F81DB01A81BBD
:10410000B109CD019695982F8827979587950E949C
:104110001D21CB018097B90153E0660F771F5A9597
:10412000E1F760789C01260F371F2138B4EE3B077A
:104130000CF4DDCBB901330F880B990B0E9464227C
:1041400020E030E040E05CE30E9419236B017C0139
:10415000AC019B010E948623882309F4CECB89EE13
:104160009AE00E94860FEECB80EA9AE00E94860FCA
:104170002ECC052E97FB1EF400940E94D02057FDF4
:1041800007D00E94D82007FC03D04EF40C94D02016
:1041900050954095309521953F4F4F4F5F4F089573
:1041A00090958095709561957F4F8F4F9F4F0895A3
:1041B000A1E21A2EAA1BBB1BFD010DC0AA1FBB1F2B
:1041C000EE1FFF1FA217B307E407F50720F0A21B9D
:1041D000B30BE40BF50B661F771F881F991F1A940A
:1041E00069F760957095809590959B01AC01BD0134
:1041F000CF010895A29FB001B39FC001A39F700D8E
:10420000811D1124911DB29F700D811D1124911DDE
:104210000895AA1BBB1B51E107C0AA1FBB1FA6170D
:10422000B70710F0A61BB70B881F991F5A95A9F75F
:1042300080959095BC01CD01089597FB072E16F44B
:10424000009407D077FD09D00E94092107FC05D012
:104250003EF4909581959F4F0895709561957F4F9D
:104260000895EE0FFF1F881F8BBF0790F691E02D7A
:1042700019940E94FA20332312F48A1B9B0B0C948E
:1042800043210E94FA20B7FF0895821B930B0895E3
:104290005058BB27AA270E9460210C94DA220E9462
:1042A000CC2238F00E94D32220F039F49F3F19F439
:1042B00026F40C94C9220EF4E095E7FB0C94C3227B
:1042C000E92F0E94EB2258F3BA176207730784079D
:1042D000950720F079F4A6F50C940D230EF4E095E3
:1042E0000B2EBA2FA02D0B01B90190010C01CA01B0
:1042F000A0011124FF27591B99F0593F50F4503E5B
:1043000068F11A16F040A22F232F342F4427585F4C
:10431000F3CF469537952795A795F0405395C9F764
:104320007EF41F16BA0B620B730B840BBAF091501C
:10433000A1F0FF0FBB1F661F771F881FC2F70EC0BB
:10434000BA0F621F731F841F48F48795779567958E
:10435000B795F7959E3F08F0B0CF9395880F08F07A
:104360009927EE0F9795879508950E949F2208F44C
:1043700081E008950E94CE210C94DA220E94D3227B
:1043800058F00E94CC2240F029F45F3F29F00C94B1
:10439000C32251110C940E230C94C9220E94EB22CB
:1043A00068F39923B1F3552391F3951B550BBB2764
:1043B000AA2762177307840738F09F5F5F4F220FA9
:1043C000331F441FAA1FA9F335D00E2E3AF0E0E8A0
:1043D00032D091505040E695001CCAF72BD0FE2FEA
:1043E00029D0660F771F881FBB1F2617370748077E
:1043F000AB07B0E809F0BB0B802DBF01FF27935836
:104400005F4F3AF09E3F510578F00C94C3220C9414
:104410000E235F3FE4F3983ED4F386957795679536
:10442000B795F7959F5FC9F7880F911D969587956A
:1044300097F90895E1E0660F771F881FBB1F621789
:1044400073078407BA0720F0621B730B840BBA0B47
:10445000EE1F88F7E09508950E9433226894B11109
:104460000C940E2308950E94F32288F09F5798F031
:10447000B92F9927B751B0F0E1F0660F771F881F69
:10448000991F1AF0BA95C9F714C0B13091F00E9483
:104490000D23B1E008950C940D23672F782F882702
:1044A000B85F39F0B93FCCF3869577956795B395AA
:1044B000D9F73EF490958095709561957F4F8F4F19
:1044C0009F4F0895E89409C097FB3EF4909580951E
:1044D000709561957F4F8F4F9F4F9923A9F0F92FCA
:1044E00096E9BB279395F695879577956795B79548
:1044F000F111F8CFFAF4BB0F11F460FF1BC06F5F2E
:104500007F4F8F4F9F4F16C0882311F096E911C03F
:10451000772321F09EE8872F762F05C0662371F060
:1045200096E8862F70E060E02AF09A95660F771F74
:10453000881FDAF7880F9695879597F90895990F50
:104540000008550FAA0BE0E8FEEF16161706E8075D
:10455000F907C0F012161306E407F50798F0621B7E
:10456000730B840B950B39F40A2661F0232B242B53
:10457000252B21F408950A2609F4A140A6958FEF72
:10458000811D811D089597F99F6780E870E060E0C4
:1045900008959FEF80EC089500240A9416161706DC
:1045A00018060906089500240A9412161306140624
:1045B00005060895092E0394000C11F4882352F087
:1045C000BB0F40F4BF2B11F460FF04C06F5F7F4F3F
:1045D0008F4F9F4F089557FD9058440F551F59F026
:1045E0005F3F71F04795880F97FB991F61F09F3FE0
:1045F00079F087950895121613061406551FF2CF09
:104600004695F1DF08C0161617061806991FF1CF58
:1046100086957105610508940895E894BB2766277F
:104620007727CB0197F908950E949F2208F48FEF16
:1046300008950E942C230C94DA220E94CC2238F098
:104640000E94D32220F0952311F00C94C3220C94E5
:10465000C92211240C940E230E94EB2270F3959F23
:10466000C1F3950F50E0551F629FF001729FBB2769
:10467000F00DB11D639FAA27F00DB11DAA1F649F05
:104680006627B00DA11D661F829F2227B00DA11DB8
:10469000621F739FB00DA11D621F839FA00D611D3E
:1046A000221F749F3327A00D611D231F849F600D5F
:1046B000211D822F762F6A2F11249F5750409AF088
:1046C000F1F088234AF0EE0FFF1FBB1F661F771F14
:1046D000881F91505040A9F79E3F510580F00C94DF
:1046E000C3220C940E235F3FE4F3983ED4F38695E7
:1046F00077956795B795F795E7959F5FC1F7FE2B7F
:10470000880F911D9695879597F908950E949F228D
:10471000880B990B08950F931F93CF93DF938230EB
:10472000910510F482E090E0E091D904F091DA0470
:1047300030E020E0B0E0A0E0309799F42115310599
:1047400009F44AC0281B390B24303105D8F58A8179
:104750009B816115710589F1FB0193838283FE01C1
:1047600011C0408151810281138148175907E0F03F
:104770004817590799F4109761F012960C93129705
:1047800013961C933296CF01DF91CF911F910F9119
:1047900008950093D9041093DA04F4CF211531055C
:1047A00051F04217530738F0A901DB019A01BD010E
:1047B000DF01F801C1CFEF01F9CF9093DA048093C4
:1047C000D904CDCFFE01E20FF31F819391932250C4
:1047D000310939832883D7CF2091D7043091D80469
:1047E000232B41F420910202309103023093D8042C
:1047F0002093D70420910002309101022115310548
:1048000041F42DB73EB74091040250910502241B9C
:10481000350BE091D704F091D804E217F307A0F428
:104820002E1B3F0B2817390778F0AC014E5F5F4F06
:104830002417350748F04E0F5F1F5093D80440935C
:10484000D704819391939FCFF0E0E0E09CCFCF938A
:10485000DF930097E9F0FC01329713821282A09156
:10486000D904B091DA04ED0130E020E01097A1F412
:1048700020813181820F931F2091D7043091D80479
:104880002817390709F061C0F093D804E093D704E2
:10489000DF91CF910895EA01CE17DF07E8F54A814D
:1048A0005B819E0141155105B1F7E901FB83EA8364
:1048B00049915991C40FD51FEC17FD0761F4808110
:1048C00091810296840F951FE901998388838281E3
:1048D00093819B838A83F0E0E0E012968D919C9116
:1048E00013970097B9F52D913C911197CD01029640
:1048F000820F931F2091D7043091D80428173907CD
:1049000039F6309751F51092DA041092D904B09329
:10491000D804A093D704BCCFD383C28340815181F4
:10492000840F951FC817D90761F44E5F5F4F8881C8
:104930009981480F591F518340838A819B819383BA
:1049400082832115310509F0B0CFF093DA04E093AA
:10495000D9049ECFFD01DC01C0CF13821282D7CFD4
:10496000FB01DC018D91019080190110D9F3990BA5
:104970000895FB01DC014150504048F001900D9238
:104980000020C9F701C01D9241505040E0F7089542
:04499000F894FFCFC9
:104994000000DB0480005E00BC0077010000000022
:1049A4009009FA082709F809580936094A09000044
:1049B4000000740C470C8A0D1D0C400C2D0C1E0CB1
:1049C40000000000DE0EB9132D0F4D11AA120000D5
:1049D4000000DE0EB7132D0FCD1126130D0A006E45
:1049E400616E00696E66006F76660044485431312A
:1049F400004448543132004448543231004448544D
:104A04003232004448543F00506F776572204C693D
:104A14006E65004D45474132353630004C6F52616A
:104A240057414E202D2052484637362D303532001E
:104A3400302E312E30004448543232207C204759E5
:104A44002D3330207C2055564D2D333041207C2091
:104A540044533138423230207C2048442D333800CE
:064A64006E6F6E6500009C
:00000001FF
