:100000000C94AA020C9442270C9417270C94EC260B
:100010000C94C1260C9496260C946B260C944026C6
:100020000C9415260C94DB020C94DB020C94DB027E
:100030000C94DB020C94DB020C94DB020C94DB02CC
:100040000C94DB020C94DB020C94DB020C94DB02BC
:100050000C94DB020C94DB020C94DB020C94CB2599
:100060000C94DB020C94F7270C94CD270C94DB0244
:100070000C94DB020C94DB020C94DB020C94DB028C
:100080000C94DB020C94DB020C94DB020C94DB027C
:100090000C94DB020C94DB020C94DB020C942D28F4
:1000A0000C94DB020C94DB020C94DB020C94DB025C
:1000B0000C94DB020C94DB020C94DB020C94DB024C
:1000C0000C94DB020C94DB020C94DB020C9497275B
:1000D0000C946D270C94DB020C94DB020C94DB0275
:1000E0000C94DB020C944F200C94E2030C94EC0370
:1000F0000C94091D0C9499290C9479070C945805BB
:100100000C9402040C9453050C94C7030C94F00354
:100110000C9488190C9462050C9408040C94F61E37
:100120000C9476190C9476050C9407040C94D40D59
:100130000C94FE030C94FD1C0C94001D0C9494195B
:100140000C94420C0C94151D0C94F11C0C94EB0BAC
:100150000C94DC030C949A050C9482190C9491195C
:100160000C94A4050C9499110C9415070C94D906C1
:100170000C940E0C0C94761E0C9485190C94BE0DE8
:100180000C947C190C94C60D0C94061D0C94FA0367
:100190000C94EC360C94E8020C9441180C947919E8
:1001A0000C9429070C94F4030C94B3050C94C70524
:1001B0000C94150C0C94D31F0C940C1D0C94121D54
:1001C0000C946C050C940C040C9497110C94DB05A6
:1001D0000C94EE1C0C94D9030C94E9020C94370790
:1001E0000C940F1D0C94710C0C9490050C94FA1C3B
:1001F0000C94C6070C94F71C0C94E6030C94D105E0
:100200000C94031D0C944B050C947E050C949C06D9
:100210000C948E190C94CD030C94D1030C94BD0D49
:100220000C9486050C94FB0B0C94E5050C948B192F
:100230000C9406070C94EC0B0C94181D0C94F41CF5
:100240000C947F190C94D5030C94BD055B42483186
:100250003735305D204552524F523A20756E6465F5
:1002600066696E6564206572726F72005B42483128
:100270003735305D204552524F523A206F746865D1
:1002800072206572726F72005B4248313735305DA3
:10029000204552524F523A20726563656976656413
:1002A000204E41434B206F6E207472616E736D69F6
:1002B00074206F662064617461005B424831373599
:1002C000305D204552524F523A207265636569761F
:1002D0006564204E41434B206F6E207472616E73D3
:1002E0006D6974206F662061646472657373005B6E
:1002F0004248313735305D204552524F523A2074D2
:100300006F6F206C6F6E6720666F72207472616E03
:10031000736D697420627566666572005B42483170
:100320003735305D204552524F523A20756E646524
:1003300066696E6564206572726F72005B42483157
:100340003735305D204552524F523A206F74686500
:1003500072206572726F72005B4248313735305DD2
:10036000204552524F523A20726563656976656442
:10037000204E41434B206F6E207472616E736D6925
:1003800074206F662064617461005B4248313735C8
:10039000305D204552524F523A207265636569764E
:1003A0006564204E41434B206F6E207472616E7302
:1003B0006D6974206F662061646472657373005B9D
:1003C0004248313735305D204552524F523A207401
:1003D0006F6F206C6F6E6720666F72207472616E33
:1003E000736D69742062756666657200005EBCE2BA
:1003F000613FDD83C29C7E20A3FD1F41009D23BE83
:1004000046DB65F88C11AF32CA57E9740000200052
:100410002300260029002C002F00320000010000DC
:100420000301060109015B4248313735305D204444
:100430006576696365206973206E6F7420636F6EE3
:100440006669677572656421000000210024002739
:10045000002A002D003000330001010000040107D4
:10046000010A0100002200250028002B002E003187
:1004700000340002010000050108010B0100000A20
:100480000B02090C0D0E0807030401000000000018
:10049000000000000000000000000000000000005C
:1004A0000000000000000000001211100000000019
:1004B000000000000000000000000000000000003C
:1004C00000000005050505070508080808020202E6
:1004D000020A0A08080404040401010101010101DF
:1004E000010303030303030303040707070C0C0CB6
:1004F0000C0C0C0C0C02020202060606060606068E
:10050000060B0B0B0B0B0B0B0B010210202008082A
:100510001020401020408002010201080402010165
:10052000020408102040808040201008040201804E
:1005300004020180402010080402010804020101A5
:1005400002040810204080010204081020408000AE
:100550009929EC3611241FBECFEFD1E2DEBFCDBF0B
:1005600000E00CBF16E0A0E0B2E0E4E0F9E700E054
:100570000BBF02C007900D92A03BB107D9F72AE04C
:10058000A0EBB6E001C01D92AF35B207E1F712E073
:10059000C9EAD2E000E006C021970109802FFE01E0
:1005A0000E94F238C83AD10780E00807A9F70E94F4
:1005B0008B2A0C94703C0C9400008230910538F02A
:1005C000880F991F880F991F05970197F1F70895D4
:1005D000089508958FB7F89480916D078FBF08959F
:1005E000AF92BF92CF92DF92EF92FF920F931F9341
:1005F000CF93DF93EC0188819981892B89F06EBDBF
:100600000DB407FEFDCFBEB48B2DDF91CF911F91AE
:100610000F91FF90EF90DF90CF90BF90AF90089533
:100620008885998511E0892B09F010E8AA24A39404
:10063000862F812309F0A12C062F2C813D814E812C
:100640005F8160E271EA87E090E00E948938F22ED3
:10065000B02EE12CC22ED12CFF2019F0C6010E9431
:10066000DD028A85877F09F042C08D858F3F89F042
:10067000902F912381E009F480E08A1551F0EF85F5
:10068000F8898F89992369F19081892B8083AA2425
:10069000A394E989FA898081998D892B8083FF2031
:1006A00019F0C6010E94DD028E858F3F39F0EB897B
:1006B000FC898081988D892309F0E12AE989FA89EA
:1006C0009081898D8095892380838E858F3F09F065
:1006D000BE2C88859985892BB9F5110F1111BCCFD6
:1006E00093CF9081809589238083A12CD2CFE989F3
:1006F000FA898081998D892B8083FF2019F0C601AA
:100700000E94DD028D858F3F49F0EF85F8898F8942
:10071000902F9123A9F09081892B8083E989FA8910
:100720009081898D8095892380838E858F3F69F2A2
:10073000EB89FC898081988D892339F2E12AC5CF24
:10074000908180958923E9CF1695C8CF8CBD9DBD3A
:1007500008958150823108F05AC0E82FF0E08827D0
:10076000EB54FC4F8F4F0C94F238D503D903C703D9
:10077000CD03D1030704DC03E203E603EC03F0033B
:10078000F403FA03FE030704020408040C04809136
:1007900080008F77809380000895809180008F7D06
:1007A000F9CF80918000877FF5CF84B58F7784BDA6
:1007B000089584B58F7DFBCF8091B0008F778093B3
:1007C000B00008958091B0008F7DF9CF80919000A6
:1007D0008F77809390000895809190008F7DF9CF5E
:1007E00080919000877FF5CF8091A0008F778093D4
:1007F000A00008958091A0008F7DF9CF8091A00086
:10080000877FF5CF809120018F7780932001089515
:10081000809120018F7DF9CF80912001877FF5CFD6
:100820001F93CF93DF93282F30E0F901E358FB4F5C
:100830008491F901E75FFA4FD491F901ED53FB4F31
:10084000C491CC23A9F0162F81110E94A903EC2F8B
:10085000F0E0EE0FFF1FED59FB4FA591B4918FB75C
:10086000F894EC91111108C0D095DE23DC938FBF72
:10087000DF91CF911F910895DE2BF8CF8F929F9239
:10088000AF92BF92CF92DF92EF92FF920F931F939E
:10089000CF93DF93EC014B016A01B22EA32E888126
:1008A0009981892B31F0EA81FB81808191810E94BD
:1008B000A60360E08B850E9410047401C80CD91C4B
:1008C000EC14FD0479F4EB2CFA2C0E0D1F1D0E1503
:1008D0001F0579F06FEFCE010E94F002F7018193BE
:1008E0007F01F5CFF70161917F01CE010E94F002F7
:1008F000E7CF61E08B850E94100481E0DF91CF910A
:100900001F910F91FF90EF90DF90CF90BF90AF902D
:100910009F908F9008958F929F92AF92BF92CF92A7
:10092000DF92EF92FF920F931F93CF93DF93EC012F
:10093000B62EA72E6A01490188819981892B31F051
:10094000EA81FB81808191810E94A60360E08B8512
:100950000E9410047401080D191DE016F10671F4CF
:100960000B2D1A2DC00ED11EC016D10671F0F80144
:1009700061918F01CE010E94F002F6CFF7016191E3
:100980007F01CE010E94F002E8CF61E08B850E94DA
:10099000100481E0DF91CF911F910F91FF90EF90B4
:1009A000DF90CF90BF90AF909F908F900895CF939E
:1009B000DF9390E0FC01E75FFA4F24918D539B4F4A
:1009C000FC0184918823C9F090E0880F991FFC01F5
:1009D000E75BFB4FA591B491FC01ED59FB4FC5912D
:1009E000D49161110DC09FB7F8948C91209582230A
:1009F0008C938881282328839FBFDF91CF9108950E
:100A0000623051F49FB7F8943C91822F80958323F4
:100A10008C93E8812E2BEFCF8FB7F894EC912E2B8F
:100A20002C938FBFEACF1F93CF93DF93182FEB0147
:100A300061E00E94D704209739F460E0812FDF91B4
:100A4000CF911F910C941004CF3FD10511F461E0B8
:100A5000F5CFE12FF0E0E358FB4FE491E150E231B4
:100A600008F0B3C0F0E08827E75CFA4F8F4F0C9492
:100A7000F2384B055305580562056C05E50576050A
:100A80007E05860590059A05A405B305BD05E50517
:100A9000C705D105DB0584B5806884BDC7BDDF917E
:100AA000CF911F91089584B5806284BDC8BDF7CFF2
:100AB00080918000806880938000D0938900C093EB
:100AC0008800EDCF80918000806280938000D09379
:100AD0008B00C0938A00E3CF809180008860809370
:100AE0008000D0938D00C0938C00D9CF8091B0004E
:100AF00080688093B000C093B300D1CF8091B000E4
:100B000080628093B000C093B400C9CF8091900000
:100B1000806880939000D0939900C0939800BFCFD5
:100B200080919000806280939000D0939B00C0934E
:100B30009A00B5CF80919000886080939000D09308
:100B40009D00C0939C00ABCF8091A00080688093F3
:100B5000A0008091A0008F7B8093A000D093A9007B
:100B6000C093A8009CCF8091A00080628093A000D9
:100B7000D093AB00C093AA0092CF8091A000886070
:100B80008093A000D093AD00C093AC0088CF80913B
:100B90002001806880932001D0932901C09328010F
:100BA0007ECF80912001806280932001D0932B0121
:100BB000C0932A0174CF8091200188608093200126
:100BC000D0932D01C0932C016ACFC038D1050CF011
:100BD0003ECF33CFCF93DF93D72FC82F80919F097C
:100BE000681B770B77FF03C0719561957109809140
:100BF0009C090E94130580919F092D2F281B330B00
:100C0000B90137FF03C071956195710980919D0904
:100C10000E94130580919F092C2F281B330BB901CB
:100C200037FF03C071956195710980919E09DF912D
:100C3000CF910C94130560E070E080E00C94EA051D
:100C400090917B00977F90937B0086538064809384
:100C50007C0080917A00806480937A0080917A0091
:100C600086FDFCCF809178009091790008953FB780
:100C7000F8948091690790916A07A0916B07B091F1
:100C80006C0726B5A89B05C02F3F19F00196A11D42
:100C9000B11D3FBFBA2FA92F982F8827BC01CD01C6
:100CA000620F711D811D911D42E0660F771F881F25
:100CB000991F4A95D1F708958F929F92AF92BF9254
:100CC000CF92DF92EF92FF926B017C010E94370678
:100CD0004B015C01C114D104E104F104B9F00E949C
:100CE0003706681979098A099B09683E73408105AE
:100CF000910580F321E0C21AD108E108F10888EEDD
:100D0000880E83E0981EA11CB11CE4CFFF90EF90E9
:100D1000DF90CF90BF90AF909F908F9008952FB7A6
:100D2000F8946091650770916607809167079091CC
:100D300068072FBF0895089508950F931F93CF93C9
:100D4000DF93EC010E948F06688779878A879B87EB
:100D5000E881F9810284F385E02DCE01199597FF92
:100D600015C00E948F06088519852A853B85601B62
:100D7000710B820B930B0C811D812E813F816017BB
:100D800071078207930720F38FEF9FEFDF91CF91D9
:100D90001F910F910895DB0114964D915C91159769
:100DA0006D917C91DC01ED91FC910280F381E02D4D
:100DB0001994AF92BF92CF92DF92EF92FF920F936E
:100DC0001F93CF93DF936C017B018B01040F151FE1
:100DD000EB015E01AE18BF08C017D10759F0699149
:100DE000D601ED91FC910190F081E02DC60119959D
:100DF000892B79F7C501DF91CF911F910F91FF905A
:100E0000EF90DF90CF90BF90AF900895FC01538D8D
:100E1000448D252F30E0842F90E0821B930B5417D4
:100E200010F0CF96089501970895FC01918D828D61
:100E3000981761F0A28DAE0FBF2FB11D5D968C91FA
:100E4000928D9F5F9F73928F90E008958FEF9FEF39
:100E50000895FC01918D828D981731F0828DE80FF5
:100E6000F11D858D90E008958FEF9FEF0895FC01AF
:100E7000918D228D892F90E0805C9F4F821B91097C
:100E80008F739927089584EE97E00E94370721E039
:100E9000892B09F420E0822F089581E898E00E94D0
:100EA000370721E0892B09F420E0822F0895FC0107
:100EB000A48DA80FB92FB11DA35ABF4F2C91848DBB
:100EC00090E001968F739927848FA689B7892C9318
:100ED000A089B1898C91837080648C93938D848D6B
:100EE000981306C00288F389E02D80818F7D80836E
:100EF0000895EF92FF920F931F93CF93DF93EC012E
:100F000081E0888F9B8D8C8D98131AC0E889F989B0
:100F1000808185FF15C09FB7F894EE89FF896083B3
:100F2000E889F98980818370806480839FBF81E034
:100F300090E0DF91CF911F910F91FF90EF90089576
:100F4000F62E0B8D10E00F5F1F4F0F731127E02E51
:100F50008C8D8E110CC00FB607FCFACFE889F98989
:100F6000808185FFF5CFCE010E945707F1CFEB8D31
:100F7000EC0FFD2FF11DE35AFF4FF0829FB7F8945D
:100F80000B8FEA89FB8980818062CFCFCF93DF937B
:100F9000EC01888D8823B9F0AA89BB89E889F98991
:100FA0008C9185FD03C0808186FD0DC00FB607FCC6
:100FB000F7CF8C9185FFF2CF808185FFEDCFCE01F9
:100FC0000E945707E9CFDF91CF91089580E090E02C
:100FD000892B29F00E944D0781110E94000080E0BA
:100FE00090E0892B49F080E090E0892B29F00E9465
:100FF000000081110E94000080E090E0892B29F020
:101000000E94430781110E94000080E090E0892B3C
:1010100049F080E090E0892B29F00E9400008111C6
:101020000C9400000895DC0180E0615090F09D91E7
:101030009827E92FEF70F0E0E451FC4F2491E92F5D
:10104000E295EF70F0E0E450FC4FE491822F8E27A0
:10105000ECCF0895DC012C911196ED91FC91F89460
:101060008181822B81839281322F309593239283C9
:1010700087E090E00197F1F781818323818383E208
:1010800090E00197F1F790817894EFECF0E03197E0
:10109000F1F7922381E009F480E00895FC0190814A
:1010A0000180F281E02D292F209560FF14C0F89473
:1010B0008281822382838181892B8183A3E2B0E0B4
:1010C0001197F1F78281982B9283789487ED90E0C5
:1010D0000197F1F70895F8948281822382838181B8
:1010E000892B8183AFEFB0E01197F1F78281982BC4
:1010F000928378948FE090E0EBCFDF92EF92FF92B3
:101100000F931F93CF93DF93EC01D62EE42E08E0CC
:1011100010E0FF24F39461E08D2D8F2109F460E04D
:10112000CE010E944E08FF0C01501109A1F7E110F9
:1011300010C0F894E981FA81918188818095892392
:101140008183E981FA8192818881809589238283D4
:101150007894DF91CF911F910F91FF90EF90DF90E6
:101160000895EF92FF920F931F93CF93DF938C011B
:101170007B0140E065E50E947D08E70188E0E80E1C
:10118000F11C699140E0C8010E947D08CE15DF0581
:10119000C1F7DF91CF911F910F91FF90EF900895CC
:1011A000FC0190810180F281E02DF8948181292F4A
:1011B00020958223818378943DE743E050E03150CD
:1011C00029F1DA011197F1F780818923C1F3F894AD
:1011D0008281822382838181892B81837894ABE70A
:1011E000B7E01197F1F7F894818182238183A3E11D
:1011F000B1E01197F1F78081982381E009F080E058
:101200007894E3E6F6E03197F1F7089580E00895E9
:101210006F927F928F929F92AF92BF92CF92DF9206
:10122000EF92FF920F931F93CF93DF938C01EB010B
:1012300080915C0990915D090E94D008882309F48F
:101240003FC0B80180915C0990915D090E94B1088E
:1012500040E06EEB80915C0990915D090E947D08F1
:101260007E016E0189E0C80ED11C8E01A0905C0940
:10127000B0905D0988E0882E912C712C66246394CF
:10128000C5010E942A0881117628660CE1E08E1AB9
:101290009108B1F7F80171928F01CE16DF0631F790
:1012A00080915C0990915D090E94D008813041F4E1
:1012B000F70181917F01811105C0E017F107C1F7A6
:1012C00090E008C068E0CE010E94130891E02885F4
:1012D0002813F6CF892FDF91CF911F910F91FF90A7
:1012E000EF90DF90CF90BF90AF909F908F907F90C6
:1012F0006F900895DC01ED91FC910190F081E02D5B
:1013000019942091E006260F3327331F213231052F
:10131000ECF42091BA07FC0190E080E0243069F001
:1013200082E00895A091E0062191AC014054594F0C
:10133000A40FB52FB11D2C930196861798F38091B9
:10134000E006680F6093E00680E0089581E008956C
:101350001092BA0781E08093B9071092940761E078
:1013600084E10E94100461E085E10E941004E9EB31
:10137000F0E080818E7F808380818D7F808388E410
:101380008093B80085E48093BC00089510927307A1
:10139000109272071092C1071092E3070E94A809E9
:1013A00088EE92E0909371078093700789EE92E047
:1013B00090936F0780936E070895CF93DF9391E02A
:1013C0009093BF068823B9F0C091B800D091BA00BD
:1013D0008091BC008A7B8093BC0060E084E10E9425
:1013E000100460E085E10E9410040E94A809D093D7
:1013F000BA00C093B800DF91CF9108958F929F9269
:10140000AF92BF92CF92DF92EF92FF920F931F9312
:10141000CF93DF93D091E307D13208F0D7C0182FD4
:10142000C091E2070E9437066B017C018091BA07E8
:1014300081116BC082E08093BA071093B9078FEFD8
:101440008093B8071092B707D093B607A2ECB7E025
:10145000E6E9F7E080E0D81391C0109295078091FB
:101460009507CC0FC82BC0939507809194078130C6
:1014700009F088C0109294070E9437066B017C0126
:10148000809195078093BB008091BC079091BD0728
:10149000A091BE07B091BF07892B8A2B8B2BA1F09F
:1014A0000E9437060091BC071091BD072091BE072E
:1014B0003091BF076C197D098E099F090617170720
:1014C0002807390708F442C08091BC0083FDD8CFBB
:1014D00085EC8093BC000E9437066B017C018091F3
:1014E000BA07823009F450C08091B8078F3F09F4E1
:1014F0006FC08091B807803209F46CC08091B80742
:10150000803309F469C084E026C08091BC079091C3
:10151000BD07A091BE07B091BF07892B8A2B8B2BEB
:1015200009F484CF0E9437068090BC079090BD07D5
:10153000A090BE07B090BF076C197D098E099F0966
:1015400086169706A806B90608F070CF8091BB07EB
:101550000E94DD0985E01092C1071092E307109206
:10156000C007DF91CF911F910F91FF90EF90DF9017
:10157000CF90BF90AF909F908F9008959D91919341
:101580008F5F69CF85EEA5CF8091BC079091BD0795
:10159000A091BE07B091BF07892B8A2B8B2B09F432
:1015A0009ECF0E9437060091BC071091BD07209185
:1015B000BE073091BF076C197D098E099F09061778
:1015C00017072807390708F08ACFC0CF81E0C3CFBB
:1015D00080E0C1CF82E0BFCF83E0BDCFCF93DF9368
:1015E000EC018B818823A1F0888191E09093C00762
:1015F0008093E2071092C1071092E30781E00E94F6
:10160000FE0991E0811190E0892FDF91CF9108953B
:101610000E94C60981E08B83CE010E94EE0A982FBA
:101620008111E2CFF1CF8F929F92AF92BF92CF9272
:10163000DF92EF92FF920F931F93CF93DF93D82FF8
:10164000C62F142F613208F09CC00E9437066B0130
:101650007C018091BA0781116FC081E08093BA0745
:101660001093B9079FEF9093B8071092B7079C0F9C
:101670009093B6078093950780919507DD0FD82B3F
:10168000D093950780919407813009F07CC0109227
:1016900094070E9437066B017C0180919507809327
:1016A000BB008091BC079091BD07A091BE07B0918F
:1016B000BF07892B8A2B8B2BA1F00E943706009144
:1016C000BC071091BD072091BE073091BF076C1970
:1016D0007D098E099F09061717072807390708F49F
:1016E0004CC08091BC0083FDD8CF85EC8093BC00BA
:1016F0000E9437066B017C018091BA07813009F4A2
:1017000044C08091B7078C1710F4C091B707E6E981
:10171000F7E0A4E7B7E080E08C1359C08C2FDF918D
:10172000CF911F910F91FF90EF90DF90CF90BF90DE
:10173000AF909F908F9008958091BC079091BD07C6
:10174000A091BE07B091BF07892B8A2B8B2B09F480
:1017500080CF0E9437068090BC079090BD07A09074
:10176000BE07B090BF076C197D098E099F098616C8
:101770009706A806B90608F06CCF8091BB070E94B7
:10178000DD09C0E0CBCF85EEB1CF8091BC07909151
:10179000BD07A091BE07B091BF07892B8A2B8B2B69
:1017A00009F4AACF0E9437060091BC071091BD072B
:1017B0002091BE073091BF076C197D098E099F09E2
:1017C000061717072807390708F096CFD6CF91914B
:1017D0009D938F5FA1CF0895E09173078091720769
:1017E000E81730F4F0E0EC58F84F808190E008956D
:1017F0008FEF9FEF089590917307809172072FEFFD
:101800003FEF981748F4E92FF0E0EC58F84F2081AB
:1018100030E09F5F90937307C9010895809172072C
:1018200090917307891B990B0895CF92DF92EF92E5
:10183000FF920F931F93CF93DF937C01CB018A011B
:101840002091C007222389F0EB016B01C40ED51E45
:10185000CC15DD0569F06991D701ED91FC910190FE
:10186000F081E02DC7011995F3CF642F0E94810903
:10187000C801DF91CF911F910F91FF90EF90DF9002
:10188000CF900895CF93DF931F92CDB7DEB76983D2
:101890002091C0072223F9F02091E307203258F06D
:1018A00021E030E0FC013383228390E080E00F9060
:1018B000DF91CF9108958091C107E82FF0E0EE53BA
:1018C000F84F998190838F5F8093C1078093E307DE
:1018D00081E090E0ECCF61E0CE0101960E948109A9
:1018E000F7CF90E080E00895CF92DF92EF92FF92E1
:1018F000CF93DF93DC011796CC911797D0E061115D
:10190000DC2F18962C91189730E0220F331F245F9C
:101910003B4F50E040E0F90185919491FC01F0804B
:10192000BA0190E080E0EF2DEC23ED1310C04F5F83
:101930005F4F1D96CD90DD90ED90FC9050976C150B
:101940007D058E059F0538F36FEF7FEFCB01DF91AB
:10195000CF91FF90EF90DF90CF9008958F929F925C
:10196000AF92BF92CF92DF92EF92FF920F931F93AD
:10197000CF93DF93CDB7DEB7C054D1400FB6F89404
:10198000DEBF0FBECDBF8C010E948F06F801C1845F
:10199000D284E384F4849B01AC012C193D094E09E7
:1019A0005F0969017A0130EDC31637E0D306E1041F
:1019B000F104A8F48189C05CDE4F0FB6F894DEBF55
:1019C0000FBECDBFDF91CF911F910F91FF90EF9090
:1019D000DF90CF90BF90AF909F908F9008956187D8
:1019E00072878387948714821382128211821082F5
:1019F00062E085810E94D70461E070E080E090E0C1
:101A00000E945C0661E0F80185810E94D70460E0D5
:101A1000F80185810E941004F80186818551823089
:101A2000E8F48BE291E10197F1F762E0F80185813A
:101A30000E94D704F801828990E00E94DD02F894A8
:101A400060E0C8010E94740C6F3F7F4F8F4F9F4F23
:101A500061F4F801118A789480E0ADCF64E170E020
:101A600080E090E00E945C06E0CF61E0C8010E9447
:101A7000740C6F3F7F4F8F4F9F4F59F39E012F5F25
:101A80003F4F79015E013FEBA31A3EEFB30A6701B6
:101A900060E0C8010E94740CF60160837183828348
:101AA000938361E0C8010E94740CF601648375831E
:101AB00086839783F8E0CF0ED11CCA14DB0441F76C
:101AC000789430E020E0F70180809180A280B3809C
:101AD0004481558166817781FFEF8F169F06AF069F
:101AE000BF0631F04F3F8FEF58076807780719F4AA
:101AF000F801118AB1CFF90183E0F595E7958A9550
:101B0000E1F7E00FF11F8081880F84169506A60685
:101B1000B706F0F080832F5F3F4FF8E0EF0EF11C27
:101B20002832310581F6F801448120818181280F16
:101B30003327331F8281280F311D8381820F932F1A
:101B4000911D99274817190699F681E0818B33CFAB
:101B50008160E0CFFC0183898B3051F480E492E412
:101B6000AFE0B0E0FB0184A395A3A6A3B7A30895BB
:101B700080E894E8AEE1B0E0F5CF0895EBE0F7E05F
:101B800082A993A9019693AB82AB0895EBE0F7E0AD
:101B900086A197A1A0A5B1A50196A11DB11D86A3FF
:101BA00097A3A0A7B1A708950895BF92CF92DF92FF
:101BB000EF92FF920F931F93CF93DF93EC01B62E1A
:101BC000C72E8D85811105C0CE010E94D0088111DC
:101BD0000EC01B861D861C8680E0DF91CF911F9171
:101BE0000F91FF90EF90DF90CF90BF90089540E06D
:101BF00060EFCE010E947D0801E0E12CD12C11E0C4
:101C0000CE010E942A08F82ECE010E942A0891E0F7
:101C1000F91218C0813099F51134D8F2DB86D11051
:101C200002C081E08D878B81882399F22396EB2D6A
:101C3000FC2DCF01089629912193E817F907D9F7D0
:101C400081E0CBCFEE2DF0E0F8120FC08B85181796
:101C5000A0F4DE01AE0FBF1F13968C91802379F4A0
:101C6000F12C193008F41C87D12EEC0FFD1F838155
:101C7000902F9095892383830AC08113F1CFFE01B1
:101C8000EE0DF11D8381802B8383FF24F3946F2D50
:101C9000CE010E944E081F5F000F11F4E39401E093
:101CA00087E08E1508F0ACCFB7CF2F923F924F92BE
:101CB0005F926F927F928F929F92AF92BF92CF92DC
:101CC000DF92EF92FF920F931F93CF93DF9300D099
:101CD000CDB7DEB76C014B015A012983B8012DB78E
:101CE0003EB73B832A83DC0111968D919C9112971C
:101CF0002C9131E03093C0072093E2071092C10786
:101D00001092E307E114F104C9F5F60164807580CF
:101D10006A147B0408F442C081819281DC01ED9158
:101D2000FC910280F381E02DA501B40119958A157B
:101D30009B0591F589810E94FE0991E081112CC0DB
:101D4000892FEA81FB810FB6F894FEBF0FBEEDBF6D
:101D50000F900F900F90DF91CF911F910F91FF90F7
:101D6000EF90DF90CF90BF90AF909F908F907F903B
:101D70006F905F904F903F902F900895012B29F224
:101D8000DC01ED91FC910280F381E02DA701199512
:101D90008E159F0509F4B9CF90E0D2CF2DB63EB68F
:101DA000EDB7FEB7E619F7090FB6F894FEBF0FBE00
:101DB000EDBF2DB73EB72F5F3F4F2901F12CE12C2E
:101DC000EA14FB0460F585010E191F0960167106FF
:101DD00008F48301D401AE0DBF1DF2019201200F62
:101DE000311FE217F30719F08D918193FACFE00EBE
:101DF000F11ED60111968D919C91DC01ED91FC9123
:101E00000280F381E02DA801B20119958017910796
:101E1000B9F20FB6F8943EBE0FBE2DBEBDCF0FB6C1
:101E2000F8943EBE0FBE2DBE85CFEF92FF920F936A
:101E30001F93CF93DF931F921F92CDB7DEB7FC01A4
:101E40004787508B618B728B8285882339F1448759
:101E5000452F562F672F7727882311F14387BF011E
:101E6000655F7F4F9681478199834A83A081B181C5
:101E70001097C1F0E184F12C8E010F5F1F4F21E01C
:101E800042E050E0CD010E94550E0F900F90DF917F
:101E9000CF911F910F91FF90EF9008954387D8CF76
:101EA0004487DDCFA281B38180E0109771F3248154
:101EB0003581018510E02330310571F44E7F49836F
:101EC0009A830F5F1F4F9E012F5F3F4F42E050E00C
:101ED000CD010E948B04D9CF2115310519F49F77CC
:101EE0009983F1CF2230310511F49068F9CF213078
:101EF000310549F79F779064F3CF2F923F924F922D
:101F00005F926F927F928F929F92AF92BF92CF9289
:101F1000DF92EF92FF920F931F93CF93DF9300D046
:101F200000D000D0CDB7DEB74C01590168012E2D8D
:101F30008DB79EB799878887F12CE12C10E000E0DF
:101F4000C4010E94550E8983811122C019828981A2
:101F5000288539850FB6F8943EBF0FBE2DBF299650
:101F60000FB6F894DEBF0FBECDBFDF91CF911F91AA
:101F70000F91FF90EF90DF90CF90BF90AF909F9028
:101F80008F907F906F905F904F903F902F9008952B
:101F9000D40114964D905C904C145D0420F16C2D8E
:101FA000613208F060E241E0F40180810E94130B8D
:101FB00010927307809372078C151D0439F6CA0CB2
:101FC000DB1CCA14DB0419F2D40111968D919C918B
:101FD000DC01ED91FC910284F385E02D1995F5016A
:101FE00081935F01EECF2DB73EB73D832C838DB734
:101FF0009EB7841995090FB6F8949EBF0FBE8DBF8A
:10200000ADB7BEB71196BB83AA83F12CE12CEC14BB
:10201000FD0408F042C086010E191F094016510642
:1020200008F48201602F013208F060E240E0F40120
:1020300080810E94130B10927307809372078017A0
:10204000110651F52A803B809101200F311F3F83FB
:102050002E8331018E819F818615970549F4F50104
:10206000EE0DFF1D2614370491F4E00EF11ECFCFC4
:10207000D40111968D919C91DC01ED91FC9102842B
:10208000F385E02D1995F30181933F01E3CFD10151
:102090008D911D018193E6CF1982EC81FD810FB6F0
:1020A000F894FEBF0FBEEDBF52CFEF920F931F9378
:1020B000CF93DF9300D0CDB7DEB78B83EE24E394CC
:1020C00002E010E09E012F5F3F4F41E050E0BE0173
:1020D0006D5F7F4F80912A0990912B090E947D0F9F
:1020E00089819A819827892798270F900F900F90C0
:1020F000DF91CF911F910F91EF900895EF92FF9292
:102100000F931F93CF93DF931F921F92CDB7DEB72C
:102110008EE28A8384EF8983EE24E394F12C8E018E
:102120000F5F1F4F21E041E050E0BE016E5F7F4F27
:1021300080912A0990912B090E94550E65E070E06C
:1021400080E090E00E945C0686EF0E9455100F90A0
:102150000F90DF91CF911F910F91FF90EF90089515
:10216000FB0101900020E9F73197AF01461B570BA7
:10217000DC01ED91FC910280F381E02D19940F9325
:102180001F93CF93DF938C01D0E0C0E0F801EC0FF8
:10219000FD1F6491662341F081E898E00E94790771
:1021A000892B11F02196F2CF66EE72E081E898E07B
:1021B0000E94B0108C0F9D1FDF91CF911F910F9146
:1021C00008950F931F93CF93DF93EC010E94CB06EA
:1021D0008C0166EE72E0CE010E94B010800F911F5C
:1021E000DF91CF911F910F9108950C94B010CF9370
:1021F000DF93DC0114962D913C911597232B79F0F8
:10220000FB01CD91DC9160817181CE010E94563C31
:10221000009729F08C1B9D0BDF91CF9108958FEFD4
:102220009FEFFACF0F931F93CF93DF938C01EB01B6
:10223000FC01808191810097E1F0688179816115CD
:102240007105A9F0428153812C813D8142175307CA
:1022500070F00E94403C8C819D81F80195838483BD
:102260001D821C82DF91CF911F910F9108950E94D2
:10227000C43A88819981F801918380838A819B8106
:10228000938382838C819D819583848319821882B4
:102290001B821A82E5CFCF93DF93EC01888199816D
:1022A000009711F00E94C43A198218821D821C8284
:1022B0001B821A82DF91CF910895FC018081918168
:1022C000009711F00C94C43A0895CF93DF93EC017A
:1022D000835B9F4F0E945D11CE018B5B9F4F0E94DD
:1022E0005D11CE01CD960E945D11CE01C7960E9470
:1022F0005D11CE01C1960E945D11CE018B960E94A8
:102300005D11CE0185960E945D11CE014F960E940F
:102310005D11CE0149960E945D11CE0143960E9447
:102320005D11CE010D96DF91CF910C945D110C944F
:10233000C43A0C94C43A0F931F93CF93DF93EC01EC
:1023400088819981009759F02A813B8126173707A8
:1023500030F081E0DF91CF911F910F9108958B01B3
:102360006F5F7F4F0E944D3B009759F099838883A0
:102370001B830A832C813D81232B59F7FC0110829A
:10238000E8CF80E0E7CFEF92FF920F931F93CF93B8
:10239000DF936115710541F480E0DF91CF911F91CA
:1023A0000F91FF90EF90089541155105B1F07B0119
:1023B000EC010C811D81040F151FB8010E949B11B7
:1023C000882351F3288139818C819D81B701820F47
:1023D000931F0E94403C1D830C8381E0DECFEF926F
:1023E000FF920F931F93CF93DF9300D000D01F92E3
:1023F0001F92CDB7DEB77C01CB014AE08E010F5FA3
:102400001F4FB8010E94FE36F80101900020E9F745
:102410003197AF01401B510BB801C7010E94C31196
:1024200028960FB6F894DEBF0FBECDBFDF91CF91D7
:102430001F910F91FF90EF900895FB0101900020F4
:10244000E9F73197AF01461B570B0C94C311FB0101
:1024500044815581608171810C94C311EF92FF9288
:102460000F931F93CF93DF93EC017B018A01BA0195
:102470000E949B1181110BC0CE010E944B11CE0115
:10248000DF91CF911F910F91FF90EF9008951D83E1
:102490000C83B701888199810E94403CF0CFFB01F9
:1024A00001900020E9F73197AF01461B570B0C94C0
:1024B0002E12CF93DF93EC016115710531F00E946C
:1024C0004F12CE01DF91CF9108950E944B11F9CFA9
:1024D0000F931F93CF93DF9300D000D000D0CDB7E0
:1024E000DEB78C01862FF8011182108213821282CE
:1024F0001582148240E1BE016F5F7F4F90E00E9421
:102500000937BE016F5F7F4FC8010E944F122996A5
:102510000FB6F894DEBF0FBECDBFDF91CF911F91F4
:102520000F910895CF93DF93EC01FB018617970776
:1025300049F0608171816115710541F044815581D7
:102540000E942E12CE01DF91CF9108950E944B116F
:10255000F9CFFC011182108213821282158214823B
:102560000C949212FC011182108213821282158245
:102570001482FB0101900020E9F73197AF01461B5F
:10258000570B0C942E12AF92BF92CF92DF92EF9224
:10259000FF920F931F93CF93DF935C016B017A013E
:1025A00089012417350720F48F2D7901042F182F66
:1025B00062EF72E0C5010E94B212D6011496CD916D
:1025C000DC91EC16FD06C8F40C171D0708F4E801B1
:1025D000D601ED91FC911197EC0FFD1F1081108237
:1025E0006D917C916E0D7F1DC5010E945912F601FF
:1025F00080819181C80FD91F1883C501DF91CF91C8
:102600001F910F91FF90EF90DF90CF90BF90AF9010
:102610000895EF92FF920F931F93CF93DF931F9232
:102620001F92CDB7DEB78C017B0162EF72E00E9492
:10263000B212C7010E949D0697FD0BC089831A82C2
:1026400041E050E0BE016F5F7F4FC8010E94C3119F
:10265000F0CFC8010F900F90DF91CF911F910F9194
:10266000FF90EF900895EF92FF920F931F93CF93F7
:10267000DF93CDB7DEB768970FB6F894DEBF0FBE15
:10268000CDBF8C01DC018D919C9111979093A7098E
:102690008093A60912968C9112978093A80913969D
:1026A0008D919C9114979093AA098093A9091596EE
:1026B0008D919C9116979093AC098093AB091796D6
:1026C0008D919C9118979093AE098093AD091996BE
:1026D0008D919C911A979093B0098093AF091B96A6
:1026E0008D919C919093B2098093B109B801635F79
:1026F0007F4F83EB99E00E949212B8016D5E7F4F8D
:1027000089EB99E00E949212B801675E7F4F8FEBD0
:1027100099E00E949212B801615E7F4F85EC99E0CA
:102720000E949212B8016B5D7F4F8BEC99E00E9482
:102730009212B801655D7F4F81ED99E00E9492127F
:10274000B8016F5C7F4F87ED99E00E949212B8014B
:10275000695C7F4F8DED99E00E949212B801635C35
:102760007F4F83EE99E00E949212F801ED5BFF4FDC
:10277000808191819093EA098093E909B8016B5BAC
:102780007F4F8BEE99E00E949212F801E55BFF4FBC
:10279000808191819093F2098093F109B801635B84
:1027A0007F4F83EF99E00E949212F801ED5AFF4F9C
:1027B000808191819093FA098093F9093296808102
:1027C0008093FB093196808191819093FD098093DC
:1027D000FC093296808191819093FF098093FE09D4
:1027E00062EF72E0CE010D960E94B21262EF72E0CB
:1027F000CE0107960E94B2128091FB09882399F0BE
:102800006CE572E08091FC099091FD090E94F51041
:102810008091FC099091FD09DC01ED91FC9106800D
:10282000F781E02D1995E091FE09F091FF09A0894B
:10283000B18982E08C93A485B5851C92A685B78565
:102840008FEC8C93108EA489B58986E08C93A28935
:10285000B3898C9180618C93A289B3898C918860B3
:102860008C93A289B3898C9180688C930288F389B8
:10287000E02D80818F7D80838091FE099091FF09FA
:102880000097F1F38091FB09882399F06AE972E0DF
:102890008091FC099091FD090E94F5108091FC093E
:1028A0009091FD09DC01ED91FC910680F781E02D0E
:1028B00019958091FB09882399F06FE972E0809166
:1028C000FC099091FD090E94F5108091FC099091FE
:1028D000FD09DC01ED91FC910680F781E02D199551
:1028E0006CED72E0CE0107960E944F12BE01695F47
:1028F0007F4F8091FE099091FF090E94E110609145
:10290000FE097091FF09CE0101960E940913BE01D4
:102910006F5F7F4FCE010D960E941211CE0101967E
:102920000E945D116FED72E08D859E850E94373C9F
:102930002091FB09892B09F4EDC22223E1F069EE15
:1029400072E08091FC099091FD090E94F510BE0192
:10295000635F7F4F8091FC099091FD090E94CB0637
:102960008091FC099091FD09DC01ED91FC910680BC
:10297000F781E02D199511E0CE0107960E945D11B7
:10298000CE010D960E945D1181E011110C94E11CA5
:1029900062EF72E0CE010D960E94B21262EF72E019
:1029A000CE0107960E94B2128091FB09882399F00C
:1029B00063EF72E08091FC099091FD090E94F5108F
:1029C0008091FC099091FD09DC01ED91FC9106805C
:1029D000F781E02D19956FE073E0CE0107960E9414
:1029E0004F12BE01695F7F4F8091FE099091FF09F0
:1029F0000E94E1106091FE097091FF09CE010196DD
:102A00000E940913BE016F5F7F4FCE010D960E9499
:102A10001211CE0101960E945D118091FB0988235D
:102A200031F10091FC091091FD0929893A89225060
:102A3000310950E040E0BE01635F7F4FCE01019657
:102A40000E94C312BE016F5F7F4FC8010E94CB0678
:102A5000CE0101960E945D118091FC099091FD09C3
:102A6000DC01ED91FC910680F781E02D1995CE01F6
:102A700007960E945D11CE010D960E945D1164EFD4
:102A800071E080E090E00E945C068091FB09882361
:102A900009F464C068E173E08091FC099091FD093C
:102AA0000E94F5100091FC091091FD0962EF72E09F
:102AB000CE010D960E94B21262EF72E0CE0107962F
:102AC0000E94B2126EE273E0CE0107960E944F128E
:102AD000BE01695F7F4F8091FE099091FF090E94BE
:102AE000E1106091FE097091FF09CE0101960E94EC
:102AF0000913BE016F5F7F4FCE010D960E94121128
:102B0000CE0101960E945D1129893A89225031092E
:102B100046E050E0BE01635F7F4FCE0101960E9408
:102B2000C312CE0107960E945D11CE010D960E9440
:102B30005D11BE016F5F7F4FC8010E94CB06CE01C1
:102B400001960E945D118091FC099091FD09DC01C4
:102B5000ED91FC910680F781E02D199562EF72E00E
:102B6000CE010D960E94B21262EF72E0CE0107967E
:102B70000E94B2128091FB09882399F065E373E00B
:102B80008091FC099091FD090E94F5108091FC094B
:102B90009091FD09DC01ED91FC910680F781E02D1B
:102BA000199563E573E0CE0107960E944F1280915C
:102BB000A6099091A70960E673E08130910559F06C
:102BC0006AE573E08130910530F066E673E00297C4
:102BD00011F06CE673E0CE0101960E94B212BE01C4
:102BE0006F5F7F4FCE0107960E942712CE0101969C
:102BF0000E945D11BE01695F7F4F8091FE09909137
:102C0000FF090E94E1106091FE097091FF09CE0159
:102C100001960E940913BE016F5F7F4FCE010D9692
:102C20000E941211CE0101960E945D118091FB0954
:102C3000882331F10091FC091091FD0929893A8915
:102C40002250310950E040E0BE01635F7F4FCE016A
:102C500001960E94C312BE016F5F7F4FC8010E94A0
:102C6000CB06CE0101960E945D118091FC099091E6
:102C7000FD09DC01ED91FC910680F781E02D1995AD
:102C8000CE0107960E945D11CE010D960E945D1146
:102C900062EF72E0CE010D960E94B21262EF72E016
:102CA000CE0107960E94B2128091FB09882399F009
:102CB00062E773E08091FC099091FD090E94F51094
:102CC0008091FC099091FD09DC01ED91FC91068059
:102CD000F781E02D19958091A809813009F031C163
:102CE00008E010E06FE873E0CE0107960E944F12F3
:102CF000B801CE0107960E94EF1166E973E0CE019C
:102D000007960E941D12BE01695F7F4F8091FE09E8
:102D10009091FF090E94E1106091FE097091FF09F6
:102D2000CE0101960E940913BE016F5F7F4FCE0155
:102D30000D960E941211CE0101960E945D110F5F47
:102D40001F4F0834110571F6CE0107960E945D11E0
:102D5000CE010D960E945D1162EF72E0CE010D96DC
:102D60000E94B21262EF72E0CE0107960E94B21288
:102D70008091FB09882399F06AE973E08091FC094E
:102D80009091FD090E94F5108091FC099091FD0938
:102D9000DC01ED91FC910680F781E02D199564EB43
:102DA00073E0CE0107960E944F128091A90990917D
:102DB000AA096EEB73E08130910559F067E075E088
:102DC0008130910530F06DE876E0029711F06CE605
:102DD00073E0CE0101960E94B212BE016F5F7F4F79
:102DE000CE0107960E942712CE0101960E945D1126
:102DF000BE01695F7F4F8091FE099091FF090E949B
:102E0000E1106091FE097091FF09CE0101960E94C8
:102E10000913BE016F5F7F4FCE010D960E94121104
:102E2000CE0101960E945D118091FB09882331F14A
:102E30000091FC091091FD0929893A892250310934
:102E400050E040E0BE01635F7F4FCE0101960E94DB
:102E5000C312BE016F5F7F4FC8010E94CB06CE0137
:102E600001960E945D118091FC099091FD09DC01A1
:102E7000ED91FC910680F781E02D1995CE01079622
:102E80000E945D11CE010D960E945D1162EF72E00D
:102E9000CE010D960E94B21262EF72E0CE0107964B
:102EA0000E94B2128091FB09882399F060EC73E0D4
:102EB0008091FC099091FD090E94F5108091FC0918
:102EC0009091FD09DC01ED91FC910680F781E02DE8
:102ED000199560EF73E0CE0107960E944F12E091C2
:102EE000AB09F091AC096CE673E0EB30F10508F04A
:102EF000CAC08827E158F84E8F4F0C94F238411819
:102F0000761979197C197F198219851988198B19F5
:102F10008E199119222399F06AE972E08091FC09D7
:102F20009091FD090E94F5108091FC099091FD0996
:102F3000DC01ED91FC910680F781E02D199510E000
:102F40001BCD823009F000CF10E000E06FE873E0A5
:102F5000CE0107960E944F12B801CE0107960E943B
:102F6000EF1166E973E0CE0107960E941D12BE01C3
:102F7000695F7F4F8091FE099091FF090E94E110E7
:102F80006091FE097091FF09CE0101960E9409131C
:102F9000BE016F5F7F4FCE010D960E941211CE01D0
:102FA00001960E945D110F5F1F4F0830110571F6E9
:102FB00000E110E06FE873E0CE0107960E944F1227
:102FC000B801CE0107960E94EF1166E973E0CE01C9
:102FD00007960E941D12BE01695F7F4F8091FE0916
:102FE0009091FF090E94E1106091FE097091FF0924
:102FF000CE0101960E940913BE016F5F7F4FCE0183
:103000000D960E941211CE0101960E945D110F5F74
:103010001F4F0134110571F602E410E06FE873E010
:10302000CE0107960E944F12B801CE0107960E946A
:10303000EF1166E973E0CE0107960E941D12BE01F2
:10304000695F7F4F8091FE099091FF090E94E11016
:103050006091FE097091FF09CE0101960E9409134B
:10306000BE016F5F7F4FCE010D960E941211CE01FF
:1030700001960E945D110F5F1F4F0834110571F614
:1030800063CE6AEF73E0CE0101960E94B212BE01D8
:103090006F5F7F4FCE0107960E942712CE010196E7
:1030A0000E945D11BE01695F7F4F8091FE09909182
:1030B000FF090E94E1106091FE097091FF09CE01A5
:1030C00001960E940913BE016F5F7F4FCE010D96DE
:1030D0000E941211CE0101960E945D118091FB09A0
:1030E000882331F10091FC091091FD0929893A8961
:1030F0002250310950E040E0BE01635F7F4FCE01B6
:1031000001960E94C312BE016F5F7F4FC8010E94EB
:10311000CB06CE0101960E945D118091FC09909131
:10312000FD09DC01ED91FC910680F781E02D1995F8
:10313000CE0107960E945D11CE010D960E945D1191
:1031400062EF72E0CE010D960E94B21262EF72E061
:10315000CE0107960E94B2128091FB09882361F08C
:103160006CE074E08091FC099091FD090E94F510DB
:1031700081E898E00E94C60764E274E0CE010796F9
:103180000E944F128091AF099091B0096CE274E0F7
:10319000009731F06FE274E0019711F06CE673E094
:1031A000CE0101960E94B212BE016F5F7F4FCE0129
:1031B00007960E942712CE0101960E945D11BE0162
:1031C000695F7F4F8091FE099091FF090E94E11095
:1031D0006091FE097091FF09CE0101960E940913CA
:1031E000BE016F5F7F4FCE010D960E941211CE017E
:1031F00001960E945D118091FB09882331F10091B5
:10320000FC091091FD0929893A892250310950E0C1
:1032100040E0BE01635F7F4FCE0101960E94C31262
:10322000BE016F5F7F4FC8010E94CB06CE010196A1
:103230000E945D118091FC099091FD09DC01ED91E6
:10324000FC910680F781E02D1995CE0107960E942A
:103250005D11CE010D960E945D1162EF72E0CE010C
:1032600043960E94B21262EF72E0CE010D960E9468
:10327000B2128091FB09882399F063E374E0809196
:10328000FC099091FD090E94F5108091FC09909134
:10329000FD09DC01ED91FC910680F781E02D199587
:1032A00063E573E0CE010D960E944F12E091AD09E7
:1032B000F091AE096CE673E0E031F10508F036C03C
:1032C0008827EA59F64E8F4F0C94F2389419EE1C69
:1032D000F11CF41CF71CFA1CFD1C001D031D061D2F
:1032E000091D0C1D0F1D121D151D181D6DEF73E01E
:1032F000CACE60E074E0C7CE63E074E0C4CE6BE396
:1033000076E0C1CE69E673E0BECE66E074E0BBCE87
:1033100069E074E0B8CE65E974E0B5CE6BE874E0BE
:10332000B2CE61E874E0AFCE67E574E0CE010196FD
:103330000E94B212BE016F5F7F4FCE010D960E94B8
:103340002712CE0101960E945D11BE01635F7F4F7F
:103350008091FE099091FF090E94E1106091FE09A1
:103360007091FF09CE0101960E940913BE016F5FA3
:103370007F4FCE0143960E941211CE0101960E940A
:103380005D118091FB09882309F46CC00091FC0950
:103390001091FD0967EE72E0CE0101960E94B21213
:1033A000BE016F5F7F4FCE0143960E94F7109C01D4
:1033B0002150310950E040E0BE016D5E7F4FCE01EB
:1033C00007960E94C312BE01695F7F4FC8010E9429
:1033D000CB06CE0107960E945D11CE0101960E9498
:1033E0005D116DE974E08091FC099091FD090E94E6
:1033F000F510E090FC09F090FD090F89188D02503E
:10340000110967EE72E0CE0101960E94B212BE0170
:103410006F5F7F4FCE0143960E94F710AC014E5F65
:103420005F4F9801BE016D5E7F4FCE0107960E94EF
:10343000C312BE01695F7F4FC7010E94CB06CE0158
:1034400007960E945D11CE0101960E945D11809148
:10345000FC099091FD09DC01ED91FC910680F7815A
:10346000E02D1995CE010D960E945D11CE01439677
:103470000E945D1162EF72E0CE010D960E94B212C1
:1034800062EF72E0CE0107960E94B2128091FB09B2
:10349000882399F061EA74E08091FC099091FD091C
:1034A0000E94F5108091FC099091FD09DC01ED91DD
:1034B000FC910680F781E02D19956CEB74E0CE014C
:1034C00007960E944F1263EB79E0CE0107960E94A7
:1034D000271269EC74E0CE0107960E941D12BE010E
:1034E000695F7F4F8091FE099091FF090E94E11072
:1034F0006091FE097091FF09CE0101960E940913A7
:10350000BE016F5F7F4FCE010D960E941211CE015A
:1035100001960E945D118091FB09882331F1009191
:10352000FC091091FD0929893A892250310950E09E
:1035300040E0BE01635F7F4FCE0101960E94C3123F
:10354000BE016F5F7F4FC8010E94CB06CE0101967E
:103550000E945D118091FC099091FD09DC01ED91C3
:10356000FC910680F781E02D1995CE0107960E9407
:103570005D11CE010D960E945D1162EF72E0CE01E9
:103580000D960E94B21262EF72E0CE0107960E9481
:10359000B2128091FB09882399F06BEC74E0809162
:1035A000FC099091FD090E94F5108091FC09909111
:1035B000FD09DC01ED91FC910680F781E02D199564
:1035C00063EF74E0CE0107960E944F128091B1091B
:1035D0009091B20962E075E08130910559F06CEF8D
:1035E00074E08130910530F069E075E0029711F0E8
:1035F0006CE673E0CE0101960E94B212BE016F5FCD
:103600007F4FCE0107960E942712CE0101960E949D
:103610005D11BE01695F7F4F8091FE099091FF09A6
:103620000E94E1106091FE097091FF09CE010196A0
:103630000E940913BE016F5F7F4FCE010D960E945D
:103640001211CE0101960E945D118091FB09882321
:1036500031F10091FC091091FD0929893A89225024
:10366000310950E040E0BE01635F7F4FCE0101961B
:103670000E94C312BE016F5F7F4FC8010E94CB063C
:10368000CE0101960E945D118091FC099091FD0987
:10369000DC01ED91FC910680F781E02D1995CE01BA
:1036A00007960E945D11CE010D960E945D1162EF9A
:1036B00072E0CE010D960E94B21262EF72E0CE016E
:1036C00007960E94B2128091FB09882399F060E16D
:1036D00075E08091FC099091FD090E94F5108091A0
:1036E000FC099091FD09DC01ED91FC910680F781C8
:1036F000E02D199563E375E0CE0107960E944F1205
:103700006BEC79E0CE0107960E94271269EC74E019
:10371000CE0107960E941D12BE01695F7F4F809106
:10372000FE099091FF090E94E1106091FE097091DD
:10373000FF09CE0101960E940913BE016F5F7F4F02
:10374000CE010D960E941211CE0101960E945D11CC
:103750008091FB09882331F10091FC091091FD094A
:1037600029893A892250310950E040E0BE01635F67
:103770007F4FCE0101960E94C312BE016F5F7F4F43
:10378000C8010E94CB06CE0101960E945D11809176
:10379000FC099091FD09DC01ED91FC910680F78117
:1037A000E02D1995CE0107960E945D11CE010D9670
:1037B0000E945D1162EF72E0CE010D960E94B2127E
:1037C00062EF72E0CE0107960E94B2128091FB096F
:1037D000882399F063E475E08091FC099091FD09DC
:1037E0000E94F5108091FC099091FD09DC01ED919A
:1037F000FC910680F781E02D19956BE675E0CE010E
:1038000007960E944F126DED79E0CE0107960E9457
:10381000271269EC74E0CE0107960E941D12BE01CA
:10382000695F7F4F8091FE099091FF090E94E1102E
:103830006091FE097091FF09CE0101960E94091363
:10384000BE016F5F7F4FCE010D960E941211CE0117
:1038500001960E945D118091FB09882331F100914E
:10386000FC091091FD0929893A892250310950E05B
:1038700040E0BE01635F7F4FCE0101960E94C312FC
:10388000BE016F5F7F4FC8010E94CB06CE0101963B
:103890000E945D118091FC099091FD09DC01ED9180
:1038A000FC910680F781E02D1995CE0107960E94C4
:1038B0005D11CE010D960E945D1162EF72E0CE01A6
:1038C0000D960E94B21262EF72E0CE0107960E943E
:1038D000B2128091FB09882399F06CE775E0809122
:1038E000FC099091FD090E94F5108091FC099091CE
:1038F000FD09DC01ED91FC910680F781E02D199521
:1039000068EA75E0CE0107960E944F1267ED79E0F4
:10391000CE0107960E94271269EC74E0CE0107964B
:103920000E941D12BE01695F7F4F8091FE09909138
:10393000FF090E94E1106091FE097091FF09CE011C
:1039400001960E940913BE016F5F7F4FCE010D9655
:103950000E941211CE0101960E945D118091FB0917
:10396000882331F10091FC091091FD0929893A89D8
:103970002250310950E040E0BE01635F7F4FCE012D
:1039800001960E94C312BE016F5F7F4FC8010E9463
:10399000CB06CE0101960E945D118091FC099091A9
:1039A000FD09DC01ED91FC910680F781E02D199570
:1039B000CE0107960E945D11CE010D960E945D1109
:1039C00080E068960FB6F894DEBF0FBECDBFDF91E2
:1039D000CF911F910F91FF90EF9008956BE574E0E8
:1039E000A5CC6FE574E0A2CC63E674E09FCC67E6FB
:1039F00074E09CCC6BE674E099CC6FE674E096CCF6
:103A000063E774E093CC67E774E090CC6BE774E015
:103A10008DCC6FE774E08ACC64E874E087CC69E809
:103A200074E084CC6EE874E081CC63E974E07ECC11
:103A300068E974E07BCCEF92FF920F931F93CF93D2
:103A4000DF93CDB7DEB762970FB6F894DEBF0FBE37
:103A5000CDBF8C0162EF72E0CE010D960E94B212D2
:103A600062EF72E0CE0107960E94B21281E080936D
:103A7000000A8091FB09882381F069EB75E081E8F9
:103A800098E00E94F51064EE75E081E898E00E94ED
:103A9000F51081E898E00E94C6076CEF75E0CE0152
:103AA00007960E944F1261E070E0CE0107960E94D7
:103AB000EF11BE01695F7F4F8091FE099091FF0970
:103AC0000E94E1106091FE097091FF09CE010196FC
:103AD0000E940913BE016F5F7F4FCE010D960E94B9
:103AE0001211CE0101960E945D118091FB0988237D
:103AF00031F1E090FC09F090FD0929893A892250C2
:103B0000310950E040E0BE01635F7F4FCE01019676
:103B10000E94C312BE016F5F7F4FC7010E94CB0698
:103B2000CE0101960E945D118091FC099091FD09E2
:103B3000DC01ED91FC910680F781E02D19958091D3
:103B4000FB09882399F065E076E08091FC0990916B
:103B5000FD090E94F5108091FC099091FD09DC019E
:103B6000ED91FC910680F781E02D199562EF72E0EE
:103B7000CE010D960E944F126AE176E0CE010796C3
:103B80000E944F12B801CE0107960E94271269ECDD
:103B900074E0CE0107960E941D12BE01695F7F4F3F
:103BA0008091FE099091FF090E94E11068EE73E098
:103BB00080E090E00E945C06CE0107960E945D11B5
:103BC000CE010D960E945D1180E062960FB6F894CA
:103BD000DEBF0FBECDBFDF91CF911F910F91FF9040
:103BE000EF900895EF92FF920F931F93CF93DF937F
:103BF00000D000D0CDB7DEB78C017B0162EF72E060
:103C00000E94B2128FE08E1528F068E973E0C801B7
:103C10000E941D126E2DCE0101960E946812BE01F7
:103C20006F5F7F4FC8010E942712CE0101960E944C
:103C30005D118FE08F1528F068E973E0C8010E94DC
:103C40001D126F2DCE0101960E946812BE016F5F9A
:103C50007F4FC8010E942712CE0101960E945D117C
:103C6000C80126960FB6F894DEBF0FBECDBFDF9118
:103C7000CF911F910F91FF90EF90089585ED809364
:103C8000BC008091BC079091BD07A091BE07B09188
:103C9000BF070796A11DB11D23E0B695A79597957F
:103CA00087952A95D1F72091BC0024FD03C010927E
:103CB000BA0708954091BC075091BD076091BE07B7
:103CC0007091BF07452B462B472B69F30097A10541
:103CD000B10541F025E32A95F1F700000197A1090C
:103CE000B109E1CF8091BB070C94DD09CF92DF923F
:103CF000EF92FF920F931F93CF93DF938C01EB0111
:103D0000FB01349680E2DF011D928A95E9F784E297
:103D100090E0A0E0B0E088839983AA83BB83F80198
:103D200084819581A681B7818C839D83AE83BF8377
:103D30008CE090E0A0E0B0E088879987AA87BB87F5
:103D40000E948F06688B798B8A8B9B8BD801129689
:103D50000D911C91C8010E94AE0C882349F0F80116
:103D600086818B3028F08D3040F08551823070F1A3
:103D700060E070E080EC9FE71BC0618170E090E044
:103D800080E00E943A372DEC3CEC4CEC5DE30E9465
:103D900099376B017C01F801608170E090E080E070
:103DA0000E943A379B01AC01C701B6010E940A3953
:103DB0006C8B7D8B8E8B9F8B81E0DF91CF911F91E0
:103DC0000F91FF90EF90DF90CF9008956081718107
:103DD00076276727762790E080E00E9438372DEC21
:103DE0003CEC4CEC5DE30E949937E2CF8F929F92BE
:103DF000AF92BF92EF92FF921F93CF93DF937C011C
:103E0000EB01FB01349680E2DF011D928A95E9F710
:103E100084E290E0A0E0B0E088839983AA83BB832A
:103E2000F70184819581A681B7818C839D83AE83C0
:103E3000BF838DE090E0A0E0B0E088879987AA87F3
:103E4000BB870E948F06688B798B8A8B9B8BD701EF
:103E50001296ED90FC90C7010E94AE0C882341F0B1
:103E6000F70186818C3009F455C038F48B30E1F0CD
:103E700060E070E080EC9FE73EC085518230C0F783
:103E80001281612F70E0762F662766277F77838106
:103E9000682B90E080E00E9438372DEC3CEC4CEC35
:103EA0005DE30E94993751C0628170E090E080E04C
:103EB0000E9438374B015C01F701138117FF0AC0DC
:103EC000AC019B0160E070E080E89FEB0E94093943
:103ED0004B015C011F70612F70E090E080E00E9458
:103EE0003A372DEC3CEC4CEC5DE30E949937A50190
:103EF00094010E940A396C8B7D8B8E8B9F8B81E0A5
:103F0000DF91CF911F91FF90EF90BF90AF909F9066
:103F10008F9008951281612F70E090E080E00E9400
:103F200038374B015C01F70163816F7070E090E0FE
:103F300080E00E943A372DEC3CEC4CEC5DE30E94B3
:103F40009937A50194010E940A3917FFD4CF9058E0
:103F5000D2CFCF93DF93EB01FC0183894BE050E09C
:103F60006CE276E08C30C1F058F44BE050E066E251
:103F700076E08B3089F04BE050E06EE376E00CC0E9
:103F80004BE050E062E376E0853131F04BE050E009
:103F900068E376E0863179F7CE010E94473C1B86C4
:103FA000DF91CF9108950F931F93CF93DF938C01EF
:103FB000EB0188E2DB011D928A95E9F7F801828125
:103FC00093810E94A91F81E090E0A0E0B0E08C877F
:103FD0009D87AE87BF87F80184819581A681B781CF
:103FE000888B998BAA8BBB8B8CE090E0A0E0B0E033
:103FF0008C8B9D8BAE8BBF8BBE01828193810E9487
:10400000AA0DD8011296ED91FC9183898C3009F4A8
:1040100041C078F48B3009F1188E198E1A8E1B8EE0
:104020001C8E1D8E1E8E1F8E18A219A21AA21BA2F4
:104030002CC08551823080F780E090E0A8ECB2E49B
:10404000888F998FAA8FBB8F1C8E1D8E1E8E1F8E00
:104050008DEC9CECACECBDE314C080E090E0A0EAF9
:10406000B2E4888F998FAA8FBB8F80E090E0A0EA9E
:10407000B1E48C8F9D8FAE8FBF8F80E090E0A0EA7F
:10408000B0E488A399A3AAA3BBA3DF91CF911F910A
:104090000F91089580E090E0AEEBB2E4E2CF0F9391
:1040A0001F93CF93DF938C01EB0188E2DB011D921C
:1040B0008A95E9F7F801828193810E94A91F81E026
:1040C00090E0A0E0B0E08C879D87AE87BF87F801C5
:1040D00084819581A681B781888B998BAA8BBB8BB4
:1040E0008DE090E0A0E0B0E08C8B9D8BAE8BBF8B21
:1040F000BE01828193810E94AA0DD8011296ED9192
:10410000FC9183898C3091F178F48B30B1F0188E6A
:10411000198E1A8E1B8E1C8E1D8E1E8E1F8E18A23F
:1041200019A21AA21BA21DC08531A9F1863179F707
:1041300080E090E0AAEFB2E432C080E090E0A8E432
:10414000B2E4888F998FAA8FBB8F1C8E1D8E1E8E16
:104150001F8E80E090E0A0E0B0E488A399A3AAA31A
:10416000BBA3DF91CF911F910F91089580E090E064
:10417000A0E7B2E4888F998FAA8FBB8F80E090E090
:10418000A0EAB1EC8C8F9D8FAE8FBF8F80E090E066
:10419000A0E0BFE3E2CF80E090E0A0EAB2E4888F45
:1041A000998FAA8FBB8F80E090E0A0E2B2EC8C8F59
:1041B0009D8FAE8FBF8F8DEC9CECACECBDE3CDCF73
:1041C000EF92FF920F931F93CF93DF93CDB7DEB79C
:1041D000CE56D1090FB6F894DEBF0FBECDBF61E059
:1041E0008DE00E94D70461E080919C090E94D70471
:1041F00061E080919D090E94D70461E080919E0951
:104200000E94D7046FEF70E08FEF0E94EA0568E824
:1042100073E180E090E00E945C0660E085E00E942F
:10422000D70462E080917D090E94D7040E948F0626
:10423000605D7740810991096093810970938209DB
:10424000809383099093840987E380938A0982E5A8
:1042500092E06D969FAF8EAF6D9780918E09909191
:104260008F096F969FAF8EAF6F9780919009909155
:104270009109A0919209B0919309A3968CAF9DAF3B
:10428000AEAFBFAFA397BE016F5F7F4FCE01855A20
:104290009F4F0E944F2068E376E0CE0101960E9476
:1042A000373C892BC1F16FEF70E080E00E94EA0596
:1042B0000E94C6091092BE0623E220936A098091EB
:1042C00072099091730901E00093C0072093E207FF
:1042D0001092C1071092E307DC01ED91FC9101906F
:1042E000F081E02D61E1199581E00E94FE09182F0F
:1042F0006AE070E080E090E00E945C06123009F411
:10430000AEC070F51123C1F18FEB93E0113081F154
:104310008CE193E02DC084E492E06D969FAF8EAF68
:104320006D9780919609909197096F969FAF8EAF88
:104330006F978091980990919909A0919A09B091ED
:104340009B09A3968CAF9DAFAEAFBFAFA397BE0145
:104350006F5F7F4FCE01855A9F4F0E94D31FA8CF1A
:1043600088E593E0133021F08CE393E0143081F67C
:104370000E94BF1081E07AC081E190E090937109C2
:10438000809370090E948F06609374097093750979
:1043900080937609909377098091720990917309BF
:1043A00020916A090093C0072093E2071092C10789
:1043B0001092E30762E470E00E947A0981E00E94B3
:1043C000FE09182F809172099091730920916A0952
:1043D0000093C0072093E2071092C1071092E307F1
:1043E00065E670E00E947A0981E00E94FE09182BC0
:1043F000809172099091730920916A090093C00716
:104400002093E2071092C1071092E30760917009B0
:10441000709171090E947A0981E00E94FE09182BAF
:104420006AE070E080E090E00E945C06123009F4DF
:104430000AC250F41123B1F08FEE92E0113009F46A
:1044400097CF8CE492E094CF88E892E0133009F49F
:104450008FCF8CE692E0143009F48ACFF2CF8AE84D
:1044600093E086CF85E480936B0980E08093BE065D
:104470008091430990914409892BA9F486E090E04A
:104480000E94283AFC018091460980838EE199E0E0
:1044900092838183138280E290E095838483F093FA
:1044A0004409E0934309E0904309F09044090E94D5
:1044B000C60911E0F7011383C7010E94EE0A8823A1
:1044C00009F4C4C180E090E1A0E0B0E08093470926
:1044D00090934809A0934909B0934A098AE090E073
:1044E000A0E0B0E080934B0990934C09A0934D0954
:1044F000B0934E0980E090E0A0E0B0E480934F09D3
:1045000090935009A0935109B093520980914309A7
:1045100090914409AE961CAE1DAE1EAE1FAEAE9776
:104520006D969FAF8EAF6D976F961FAE1EAE6F9755
:10453000A5961FAFA59785E090E0A3969FAF8EAF9D
:10454000A397A6961FAFA69702E0A4960FAFA497D5
:1045500040E050E160E070E0CE01855A9F4F0E943C
:10456000150F8091430990914409188A198A1A8A73
:104570001B8A9A8389831C821B821A8718861F8252
:104580001B8709874FE959E360E070E0CE0101968F
:104590000E94150F8093450980E08093BE0683E05A
:1045A00080932C0980912A0990912B09009711F092
:1045B0000E94C43A86E090E00E94283A8C0187E786
:1045C000D8018C938EE199E012969C938E9311976B
:1045D00013961C92139780E290E015969C938E930D
:1045E000149710932B0900932A090E94C60981E0B1
:1045F000F8018383C8010E94EE0A882309F428C1C8
:1046000080EDAF968FAFAF97EE24E39401E010E01A
:104610009E012F5F3F4F41E050E0BE0162597F4F46
:1046200080912A0990912B090E947D0F89818535FF
:1046300009F00EC18AEA0E94551090932E098093CA
:104640002D098CEA0E9455109093300980932F0910
:104650008EEA0E945510909332098093310980EBC5
:104660000E94551090933E0980933D0982EB0E9471
:1046700055109093400980933F0984EB0E94551098
:10468000909342098093410986EB0E9455109093C4
:1046900034098093330988EB0E94551090933609B2
:1046A000809335098AEB0E945510909338098093C6
:1046B00037098CEB0E94551090933A098093390981
:1046C0008EEB0E94551090933C0980933B0960E06B
:1046D00084E00E94D704EDE0F5E0E491E093B006B9
:1046E000E7ECF4E0E491F0E0EE0FFF1FE45FFB4F36
:1046F000859194919093B2068093B1061092BB0677
:104700001092BD061092BC061092BE0680EB96E099
:1047100090935D0980935C0910925A0910925B098D
:104720001092530989E08093560981E080935709DC
:1047300080935809809359091092BA061092B906CD
:104740001092B8061092B7061092B6061092B506EF
:104750001092B4061092B30611E0BE01655A7F4F65
:1047600080915C0990915D090E94D50D882309F420
:104770008FC067E0CE01855A9F4F0E941308A39611
:104780009FADA3978913E9CF80915A098F5F8093DA
:104790005A096C968FAD6C97883231F008F05EC084
:1047A000803111F08232C9F680915B098F5F80936E
:1047B0005B0980915309811128C080915C09909117
:1047C0005D090E94D008BE01655A7F4F80915C0947
:1047D00090915D090E94B10840E064EB80915C0912
:1047E00090915D090E947D0880915C0990915D091E
:1047F0000E942A08082F80915C0990915D090E940F
:10480000D008011102C0109353096C968FAD6C97BC
:10481000803179F1BE016F5F7F4FCE01855A9F4F86
:104820000E940809882369F08D816C969FAD6C9772
:104830009B3311F487FD1DC08F33E9F0B0F48F3145
:1048400019F180E019C08AEB92E092CD81E0A5CE0B
:104850006FEF70E080E00E94EA0539CF8B3309F4F6
:10486000A3CF823409F079CF9FCF8F3579F08F377E
:1048700041F78CE001C08AE090915609981708F042
:104880006CCF8093560969CF89E0F6CF8BE0F4CFE7
:10489000E0915C09F0915D091386158614861286F5
:1048A000118610861782168215821482138263E0A5
:1048B00077E080915C0990915D090E94D50D882375
:1048C00029F067E083E097E00E941308BE016F5F64
:1048D0007F4F83E097E00E940809811108C081E0C2
:1048E0008093BE066FEF70E080E00E94EA051092B0
:1048F000310710923207109233071092340786EC7A
:104900009DE0909301028093000280916A00836091
:1049100080936A00EC9A10923E0710923D078EEB4E
:104920009DE0909303028093020280916A008C6064
:1049300080936A00ED9A84EE97E090935A0A8093F0
:10494000590A82E090E09093020A8093010A8093D2
:10495000030A1092050A1092040A85E090E09093F1
:10496000070A8093060A81E090E09093090A8093F9
:10497000080A90934D0A80934C0A9093550A8093AD
:10498000540A28E030E03093450A2093440A90937B
:104990000B0A80930A0A10920D0A10920C0A63E423
:1049A00076E08EE09AE00E94591264E576E084E1B8
:1049B0009AE00E94591265E676E086E29AE00E944B
:1049C00059126EE676E082E39AE00E9459126FE88F
:1049D00076E088E39AE00E9459128091010A909152
:1049E000020A9A8389838091030A8B838091040A47
:1049F0009091050A9D838C838091060A9091070A05
:104A00009F838E838091080A9091090A99878887ED
:104A100080910A0A90910B0A9B878A8780910C0AE1
:104A200090910D0A9D878C876EE07AE0CE010E96FC
:104A30000E94A91264E17AE0CE0144960E94A91274
:104A40006AE17AE0CE014A960E94A91260E27AE019
:104A5000CE0180960E94A91266E27AE0CE01869687
:104A60000E94A9126CE27AE0CE018C960E94A912F3
:104A700062E37AE0CE01C2960E94A91268E37AE06E
:104A8000CE01C8960E94A9126EE37AE0CE01CE96BE
:104A90000E94A9128091440A9091450A26969FAFE0
:104AA0008EAF269766E47AE0CE018A5B9F4F0E9424
:104AB000A91280914C0A90914D0A2E969FAF8EAF0D
:104AC0002E976EE47AE0CE01825B9F4F0E94A9127E
:104AD0008091540A9091550A66969FAF8EAF669763
:104AE0008091560A67968FAF67978091570A909189
:104AF000580A69969FAF8EAF69978091590A909135
:104B00005A0A6B969FAF8EAF6B97CE0101960E94AB
:104B10003313182FCE0101960E946511112369F0FD
:104B20006FEF70E080E00E94EA0560E67AEE80E0D8
:104B300090E00E945C060E94E0208091BE068111F8
:104B400002C00E941B060E948F066093520770935A
:104B500053078093540790935507609357077093BA
:104B600058078093590790935A0760935C07709396
:104B70005D0780935E0790935F07C259DF4F0FB6C2
:104B8000F894DEBF0FBECDBFDF91CF911F910F9183
:104B9000FF90EF9008951F920F920FB60F9211247D
:104BA0002F933F938F939F93AF93BF93809165070C
:104BB00090916607A0916707B091680730916407EC
:104BC00023E0230F2D3758F50196A11DB11D209329
:104BD00064078093650790936607A0936707B09377
:104BE00068078091690790916A07A0916B07B0915F
:104BF0006C070196A11DB11D8093690790936A0708
:104C0000A0936B07B0936C07BF91AF919F918F9169
:104C10003F912F910F900FBE0F901F90189526E88F
:104C2000230F0296A11DB11DD2CF1F920F920FB676
:104C30000F9211240BB60F922F933F934F935F93D4
:104C40006F937F938F939F93AF93BF93EF93FF9354
:104C5000E0910E02F0910F021995FF91EF91BF9133
:104C6000AF919F918F917F916F915F914F913F9104
:104C70002F910F900BBE0F900FBE0F901F901895A5
:104C80001F920F920FB60F9211240BB60F922F9313
:104C90003F934F935F936F937F938F939F93AF93C4
:104CA000BF93EF93FF93E0910C02F0910D021995E1
:104CB000FF91EF91BF91AF919F918F917F916F91F4
:104CC0005F914F913F912F910F900BBE0F900FBEB0
:104CD0000F901F9018951F920F920FB60F921124EC
:104CE0000BB60F922F933F934F935F936F937F93E6
:104CF0008F939F93AF93BF93EF93FF93E091020243
:104D0000F09103021995FF91EF91BF91AF919F919F
:104D10008F917F916F915F914F913F912F910F9064
:104D20000BBE0F900FBE0F901F9018951F920F9201
:104D30000FB60F9211240BB60F922F933F934F9300
:104D40005F936F937F938F939F93AF93BF93EF93F3
:104D5000FF93E0910002F09101021995FF91EF910C
:104D6000BF91AF919F918F917F916F915F914F9183
:104D70003F912F910F900BBE0F900FBE0F901F9081
:104D800018951F920F920FB60F9211240BB60F9227
:104D90002F933F934F935F936F937F938F939F9343
:104DA000AF93BF93EF93FF93E0910A02F0910B0250
:104DB0001995FF91EF91BF91AF919F918F917F9145
:104DC0006F915F914F913F912F910F900BBE0F907C
:104DD0000FBE0F901F9018951F920F920FB60F9253
:104DE00011240BB60F922F933F934F935F936F93C2
:104DF0007F938F939F93AF93BF93EF93FF93E09134
:104E00000802F09109021995FF91EF91BF91AF91BE
:104E10009F918F917F916F915F914F913F912F91D2
:104E20000F900BBE0F900FBE0F901F9018951F9202
:104E30000F920FB60F9211240BB60F922F933F9340
:104E40004F935F936F937F938F939F93AF93BF9392
:104E5000EF93FF93E0910602F09107021995FF91FD
:104E6000EF91BF91AF919F918F917F916F915F91E2
:104E70004F913F912F910F900BBE0F900FBE0F904F
:104E80001F9018951F920F920FB60F9211240BB618
:104E90000F922F933F934F935F936F937F938F93D3
:104EA0009F93AF93BF93EF93FF93E0910402F09130
:104EB00005021995FF91EF91BF91AF919F918F914D
:104EC0007F916F915F914F913F912F910F900BBE0A
:104ED0000F900FBE0F901F9018951F920F920FB654
:104EE0000F9211240BB60F922F933F934F935F9322
:104EF0006F937F938F939F93AF93BF93EF93FF93A2
:104F000084EE97E00E945707FF91EF91BF91AF9118
:104F10009F918F917F916F915F914F913F912F91D1
:104F20000F900BBE0F900FBE0F901F9018951F9201
:104F30000F920FB60F9211240BB60F922F938F93EF
:104F40009F93EF93FF93E091F407F091F507808131
:104F5000E091FA07F091FB0782FD1DC090818091DE
:104F6000FD078F5F8F732091FE07821741F0E0915C
:104F7000FD07F0E0EC51F84F958F8093FD07FF910E
:104F8000EF919F918F912F910F900BBE0F900FBEBD
:104F90000F901F9018958081F2CF1F920F920FB63D
:104FA0000F9211240BB60F922F933F934F935F9361
:104FB0006F937F938F939F93AF93BF93EF93FF93E1
:104FC00081E898E00E945707FF91EF91BF91AF9160
:104FD0009F918F917F916F915F914F913F912F9111
:104FE0000F900BBE0F900FBE0F901F9018951F9241
:104FF0000F920FB60F9211240BB60F922F938F932F
:105000009F93EF93FF93E0919108F0919208808134
:10501000E0919708F091980882FD1DC090818091E1
:105020009A088F5F8F7320919B08821741F0E0915F
:105030009A08F0E0EF57F74F958F80939A08FF9109
:10504000EF919F918F912F910F900BBE0F900FBEFC
:105050000F901F9018958081F2CF1F920F920FB67C
:105060000F9211240BB60F922F933F934F935F93A0
:105070006F937F938F939F93AF93BF93EF93FF9320
:105080008091B900887F803609F44DC008F040C097
:10509000883209F4A9C028F5803109F49DC0C8F40C
:1050A000882309F4FBC0883009F496C0FF91EF9182
:1050B000BF91AF919F918F917F916F915F914F9130
:1050C0003F912F910F900BBE0F900FBE0F901F902E
:1050D0001895883109F488C0803241F78093B80769
:1050E00014C0803409F49DC040F48033B9F3883390
:1050F000E9F68093B80785ECB0C0803509F485C027
:10510000883509F496C0883489F60E943E1ECECFB9
:10511000883909F48CC038F5883729F050F488367E
:1051200011F0803719F683E08093BA0710920207D6
:1051300057C0883809F47BC0803919F0803809F0ED
:10514000B5CF80910207803208F071C0E09102076C
:1051500081E08E0F809302078091BB00F0E0EE515A
:10516000F94F80833DC0803B39F0E0F4803A09F488
:1051700079C0883A09F09ACF84E08093BA071092F8
:10518000E1061092E006E0917007F0917107199521
:105190008091E00681110FC081E08093E0061092BB
:1051A000C00609C0803C09F4A6CF883C09F4A3CF0F
:1051B000883B09F07BCFE091E10681E08E0F809380
:1051C000E106F0E0E054F94F80818093BB009091BC
:1051D000E1068091E00629C0809195078093BB008D
:1051E00085EC8093BC0062CF9091B7078091B607A1
:1051F000981758F5E091B70781E08E0F8093B707B5
:10520000F0E0EA56F84F8081E9CFE091B70781E0FE
:105210008E0F8093B7078091BB00F0E0EA56F84FFD
:1052200080839091B7078091B6079817C8F285E8F8
:10523000D8CFE091B70781E08E0F8093B7078091B8
:10524000BB00F0E0EA56F84F80838091B9078111E6
:105250005CCF81E08093940784EA8093BC00109235
:10526000BA0724CF85EC8093BC001092BA078091D6
:105270000207803230F4E0910207F0E0EE51F94F7E
:1052800010826091020770E0E0916E07F0916F0765
:1052900082EE96E019951092020708CF1092B80797
:1052A00034CFCF93DF93EC0162EF72E00D960E9452
:1052B000B21262EF72E0CE0143960E94B21262EF28
:1052C00072E0CE0149960E94B21262EF72E0CE0106
:1052D0004F960E94B21262EF72E0CE0185960E9454
:1052E000B21262EF72E0CE018B960E94B21262EFB0
:1052F00072E0CE01C1960E94B21262EF72E0CE015E
:10530000C7960E94B21262EF72E0CE01CD960E9463
:10531000B21262EF72E0CE018B5B9F4F0E94B2121D
:1053200062EF72E0CE01835B9F4FDF91CF910C94CF
:10533000B212CF93DF93E4EEF7E01382128288EE8D
:1053400093E0A0E0B0E084839583A683B78320E256
:1053500032E03183208345ED50E05587448744EDAA
:1053600050E05787468740ED50E0518B408B41ED30
:1053700050E0538B428B42ED50E0558B448B46ED11
:1053800050E0578B468B118E128E138E148EE1E8EF
:10539000F8E01382128284839583A683B7833183D6
:1053A000208325EC30E03587248724EC30E03787F4
:1053B000268720EC30E0318B208B21EC30E0338BE2
:1053C000228B22EC30E0358B248B26EC30E0378BBF
:1053D000268B118E128E138E148ECEE1D9E01B8295
:1053E0001A828C839D83AE83BF8382E392E099838C
:1053F000888381E09AE00E94512986EA99E00E9420
:1054000051291092000A62EF72E080EA99E00E944E
:10541000B212ECE9F9E088E0808389E081838AE0D8
:1054200082838FEF8383A8E7B9E085E015968C939C
:10543000159786E116968C931697EEE0F5E0E491C9
:105440001796EC931797E8ECF4E0E4911896EC9338
:10545000189740E85EE360E070E01D964D935D9321
:105460006D937C93509753968C93539782E592E07B
:1054700055969C938E9354970A2E1B2E57961C92EA
:105480000E92112456974FEF5FEFBA0158964D9345
:105490005D936D937C935B9784E492E05D969C931F
:1054A0008E935C970A2E1B2E5F961C920E921124EF
:1054B0005E9790964D935D936D937C939397EAE6F8
:1054C000F9E085E481838AE999E9A9E9BFE3828368
:1054D0009383A483B5831782168283E28083D18766
:1054E000C087E3E5F9E0168A158A1182E3E4F9E062
:1054F0001182108280E483831086118612861386BF
:10550000148615861686178610922B0910922A0982
:10551000DF91CF910895CF93DF93CDB7DEB7E597B5
:105520000FB6F894DEBF0FBECDBF789484B582600D
:1055300084BD84B5816084BD85B5826085BD85B537
:10554000816085BD80916E00816080936E001092B5
:105550008100809181008260809381008091810030
:1055600081608093810080918000816080938000C1
:105570008091B10084608093B1008091B00081601F
:105580008093B0008091910082608093910080911F
:105590009100816080939100809190008160809360
:1055A00090008091A10082608093A1008091A10071
:1055B00081608093A1008091A00081608093A00011
:1055C000809121018260809321018091210181607D
:1055D000809321018091200181608093200180913E
:1055E0007A00846080937A0080917A008260809350
:1055F0007A0080917A00816080937A0080917A00AD
:10560000806880937A001092C1000E94E0200E947E
:105610008F066B017C01C0926007D0926107E09217
:105620006207F092630780915C0790915D07A091FB
:105630005E07B0915F07C816D906EA06FB0690F42C
:10564000AC01BD0140955095609570954C0D5D1D68
:105650006E1D7F1D483E53406105710518F021E025
:1056600020935B07A7019601281B390B4A0B5B0BA4
:10567000DA01C901883E9340A105B10530F480915B
:105680005B07882311F40C94E935C0925C07D09233
:105690005D07E0925E07F0925F0710925B07EAE811
:1056A000F4E08491E6E1F5E0B490E0EDF4E01491EB
:1056B000112379F081110E94A903E12FF0E0EE0F90
:1056C000FF1FE45FFB4FA591B491EC91BE2260E017
:1056D00009F461E08DE00E941004809157079091D9
:1056E0005807A0915907B0915A07C816D906EA067B
:1056F000FB0690F4AC01BD01409550956095709506
:105700004C0D5D1D6E1D7F1D40365A4E61057105A5
:1057100018F021E020935607A7019601281B390BAA
:105720004A0B5B0BDA01C90180369A4EA105B1051F
:1057300028F480915607882309F499C6C092570728
:10574000D0925807E0925907F0925A0710925607E4
:1057500060E07FEF80E00E94EA0582E592E09EA390
:105760008DA380918E0990918F0998A78FA3809126
:10577000900990919109A0919209B091930989A7FC
:105780009AA7ABA7BCA7BE016F5F7F4FCE018596DE
:105790000E94F61ECD88DE88EF88F88CA70196015E
:1057A000C701B6010E94233A811193C020E030E086
:1057B00040E252ECC701B6010E94333787FD89C031
:1057C00020E030E040EA52E4C701B6010E941E3AF0
:1057D00018160CF47EC0A701960160910B0770911A
:1057E0000C0780910D0790910E070E940A39609373
:1057F0000B0770930C0780930D0790930E07809111
:105800000F078F5F80930F0784E492E09EA38DA320
:10581000809196099091970998A78FA380919809F4
:1058200090919909A0919A09B0919B0989A79AA78B
:10583000ABA7BCA7BE016F5F7F4FCE0185960E94CC
:10584000761ECD88DE88EF88F88CA7019601C70107
:10585000B6010E94233A811142C020E030E0A90144
:10586000C701B6010E94333787FD39C020E030E020
:1058700048EC52E4C701B6010E941E3A18167CF1AA
:10588000A70196016091100770911107809112078E
:10589000909113070E940A396093100770931107C3
:1058A0008093120790931307809114078F5F809362
:1058B00014078091700990917109892BB1F486E2E7
:1058C00094E00E94BF106FEF70E080E00E94EA0554
:1058D000CAC06FEF70E080E00E94EA0595CF6FEFDD
:1058E00070E080E00E94EA05E4CF41E062E0809150
:1058F0006A090E94130B1092730780937207C12CE0
:10590000D12C10E8E12E1FEBF12E823019F5809199
:10591000720990917309DC01ED91FC910284F38589
:10592000E02D19958DAB1CAA809172099091730995
:10593000DC01ED91FC910284F385E02D1995ECA931
:10594000FDA98E2B9F2BBC0190E080E00E94383790
:105950006B017C010E948F06609374097093750936
:10596000809376099093770920E030E040E85FEB80
:10597000C701B6010E943337882309F4A4CF609190
:105980006B096534A9F070E090E080E00E94383740
:105990009B01AC0160E070E08AE892E40E947639F5
:1059A0009B01AC01C701B6010E9499376B017C01D4
:1059B00080917009909171098132910511F04197A0
:1059C00051F420E030E040E05FE3C701B6010E94FF
:1059D00099376B017C0120916C0930916D094091E0
:1059E0006E0950916F09C701B6010E9476396B01AB
:1059F0007C01AC019B010E94233A811164CF20E01D
:105A000030E040E85FE3C701B6010E94333787FD0D
:105A10005ACF20E03FEF4FE757E4C701B6010E949D
:105A20001E3A18160CF44FCFC701B6010E94EF3989
:105A3000C0901507D0901607E0901707F090180750
:105A4000DC01CB018C0D9D1DAE1DBF1D8093150784
:105A500090931607A0931707B09318078091190722
:105A60008F5F809319078AE30E942006BC01990F7B
:105A7000880B990B0E943A372AE038E240EA5BE350
:105A80000E94993720E030E04AE754E40E949937B9
:105A90000E94E8397B014B01770FAA08BB08C501BA
:105AA000B4010E943A379B01AC010E94233A811154
:105AB0000C94ED35F5E6EF16F9E1FF0610F00C94C5
:105AC000ED3580911A0790911B07A0911C07B091AA
:105AD0001D07880E991EAA1EBB1E80921A0790925F
