:100000000C94AA020C949D270C9472270C944727F9
:100010000C941C270C94F1260C94C6260C949B2659
:100020000C9470260C94DB020C94DB020C94DB0223
:100030000C94DB020C94DB020C94DB020C94DB02CC
:100040000C94DB020C94DB020C94DB020C94DB02BC
:100050000C94DB020C94DB020C94DB020C9426263D
:100060000C94DB020C9452280C9428280C94DB028C
:100070000C94DB020C94DB020C94DB020C94DB028C
:100080000C94DB020C94DB020C94DB020C94DB027C
:100090000C94DB020C94DB020C94DB020C94882899
:1000A0000C94DB020C94DB020C94DB020C94DB025C
:1000B0000C94DB020C94DB020C94DB020C94DB024C
:1000C0000C94DB020C94DB020C94DB020C94F22700
:1000D0000C94C8270C94DB020C94DB020C94DB021A
:1000E0000C94DB020C9494190C940F1D0C94F236B2
:1000F0000C94F41C0C94BD050C94F4290C94A720CA
:100100000C9479190C9476190C94FE030C944118F4
:100110000C94D9060C940C1D0C9437070C94EC0B22
:100120000C94C7030C94001D0C94121D0C9499118F
:100130000C9497110C94DB050C9486050C947F1994
:100140000C94E2030C9462050C9488190C94EE1C38
:100150000C94B3050C94FB0B0C940C040C94151D1F
:100160000C94EB0B0C94F11C0C9458050C940804A3
:100170000C949A050C940E0C0C9453050C940704E3
:100180000C94FA030C94FD1C0C94C6070C949C066A
:100190000C9479070C94D5030C9490050C94911948
:1001A0000C948B190C94BD0D0C946C050C94F003FD
:1001B0000C9415070C94FA1C0C948E190C94E603FD
:1001C0000C94E9020C94091D0C9406070C94181D5C
:1001D0000C94F4030C94D9030C94150C0C940204A5
:1001E0000C94E5050C94D40D0C94710C0C94C60D74
:1001F0000C94EC030C947E050C947C190C942B202D
:100200000C94E8020C94420C0C944B050C944E1F79
:100210000C94BE0D0C94F71C0C94C7050C94A4050B
:100220000C9476050C94CE1E0C94CD030C94031DF7
:100230000C94D1030C94DC030C94061D0C948519CA
:100240000C9429070C9482190C94D1055B42483117
:100250003735305D204552524F523A20756E6465F5
:1002600066696E6564206572726F72005B42483128
:100270003735305D204552524F523A206F746865D1
:1002800072206572726F72005B4248313735305DA3
:10029000204552524F523A20726563656976656413
:1002A000204E41434B206F6E207472616E736D69F6
:1002B00074206F662064617461005B424831373599
:1002C000305D204552524F523A207265636569761F
:1002D0006564204E41434B206F6E207472616E73D3
:1002E0006D6974206F662061646472657373005B6E
:1002F0004248313735305D204552524F523A2074D2
:100300006F6F206C6F6E6720666F72207472616E03
:10031000736D697420627566666572005B42483170
:100320003735305D204552524F523A20756E646524
:1003300066696E6564206572726F72005B42483157
:100340003735305D204552524F523A206F74686500
:1003500072206572726F72005B4248313735305DD2
:10036000204552524F523A20726563656976656442
:10037000204E41434B206F6E207472616E736D6925
:1003800074206F662064617461005B4248313735C8
:10039000305D204552524F523A207265636569764E
:1003A0006564204E41434B206F6E207472616E7302
:1003B0006D6974206F662061646472657373005B9D
:1003C0004248313735305D204552524F523A207401
:1003D0006F6F206C6F6E6720666F72207472616E33
:1003E000736D69742062756666657200005EBCE2BA
:1003F000613FDD83C29C7E20A3FD1F41009D23BE83
:1004000046DB65F88C11AF32CA57E9740000200052
:100410002300260029002C002F00320000010000DC
:100420000301060109015B4248313735305D204444
:100430006576696365206973206E6F7420636F6EE3
:100440006669677572656421000000210024002739
:10045000002A002D003000330001010000040107D4
:10046000010A0100002200250028002B002E003187
:1004700000340002010000050108010B0100000A20
:100480000B02090C0D0E0807030401000000000018
:10049000000000000000000000000000000000005C
:1004A0000000000000000000001211100000000019
:1004B000000000000000000000000000000000003C
:1004C00000000005050505070508080808020202E6
:1004D000020A0A08080404040401010101010101DF
:1004E000010303030303030303040707070C0C0CB6
:1004F0000C0C0C0C0C02020202060606060606068E
:10050000060B0B0B0B0B0B0B0B010210202008082A
:100510001020401020408002010201080402010165
:10052000020408102040808040201008040201804E
:1005300004020180402010080402010804020101A5
:1005400002040810204080010204081020408000AE
:10055000F429F23611241FBECFEFD1E2DEBFCDBFAA
:1005600000E00CBF16E0A0E0B2E0E0E1F9E700E057
:100570000BBF02C007900D92A63BB107D9F72AE046
:10058000A6EBB6E001C01D92A736B207E1F712E074
:10059000C9EAD2E000E006C021970109802FFE01E0
:1005A0000E94F838C83AD10780E00807A9F70E94EE
:1005B000E62A0C94763C0C9400008230910538F0C9
:1005C000880F991F880F991F05970197F1F70895D4
:1005D000089508958FB7F894809173078FBF089599
:1005E000AF92BF92CF92DF92EF92FF920F931F9341
:1005F000CF93DF93EC0188819981892B89F06EBDBF
:100600000DB407FEFDCFBEB48B2DDF91CF911F91AE
:100610000F91FF90EF90DF90CF90BF90AF90089533
:100620008885998511E0892B09F010E8AA24A39404
:10063000862F812309F0A12C062F2C813D814E812C
:100640005F8160E271EA87E090E00E948F38F22ECD
:10065000B02EE12CC22ED12CFF2019F0C6010E9431
:10066000DD028A85877F09F042C08D858F3F89F042
:10067000902F912381E009F480E08A1551F0EF85F5
:10068000F8898F89992369F19081892B8083AA2425
:10069000A394E989FA898081998D892B8083FF2031
:1006A00019F0C6010E94DD028E858F3F39F0EB897B
:1006B000FC898081988D892309F0E12AE989FA89EA
:1006C0009081898D8095892380838E858F3F09F065
:1006D000BE2C88859985892BB9F5110F1111BCCFD6
:1006E00093CF9081809589238083A12CD2CFE989F3
:1006F000FA898081998D892B8083FF2019F0C601AA
:100700000E94DD028D858F3F49F0EF85F8898F8942
:10071000902F9123A9F09081892B8083E989FA8910
:100720009081898D8095892380838E858F3F69F2A2
:10073000EB89FC898081988D892339F2E12AC5CF24
:10074000908180958923E9CF1695C8CF8CBD9DBD3A
:1007500008958150823108F05AC0E82FF0E08827D0
:10076000EB54FC4F8F4F0C94F838D503D903C703D3
:10077000CD03D1030704DC03E203E603EC03F0033B
:10078000F403FA03FE030704020408040C04809136
:1007900080008F77809380000895809180008F7D06
:1007A000F9CF80918000877FF5CF84B58F7784BDA6
:1007B000089584B58F7DFBCF8091B0008F778093B3
:1007C000B00008958091B0008F7DF9CF80919000A6
:1007D0008F77809390000895809190008F7DF9CF5E
:1007E00080919000877FF5CF8091A0008F778093D4
:1007F000A00008958091A0008F7DF9CF8091A00086
:10080000877FF5CF809120018F7780932001089515
:10081000809120018F7DF9CF80912001877FF5CFD6
:100820001F93CF93DF93282F30E0F901E358FB4F5C
:100830008491F901E75FFA4FD491F901ED53FB4F31
:10084000C491CC23A9F0162F81110E94A903EC2F8B
:10085000F0E0EE0FFF1FED59FB4FA591B4918FB75C
:10086000F894EC91111108C0D095DE23DC938FBF72
:10087000DF91CF911F910895DE2BF8CF8F929F9239
:10088000AF92BF92CF92DF92EF92FF920F931F939E
:10089000CF93DF93EC014B016A01B22EA32E888126
:1008A0009981892B31F0EA81FB81808191810E94BD
:1008B000A60360E08B850E9410047401C80CD91C4B
:1008C000EC14FD0479F4EB2CFA2C0E0D1F1D0E1503
:1008D0001F0579F06FEFCE010E94F002F7018193BE
:1008E0007F01F5CFF70161917F01CE010E94F002F7
:1008F000E7CF61E08B850E94100481E0DF91CF910A
:100900001F910F91FF90EF90DF90CF90BF90AF902D
:100910009F908F9008958F929F92AF92BF92CF92A7
:10092000DF92EF92FF920F931F93CF93DF93EC012F
:10093000B62EA72E6A01490188819981892B31F051
:10094000EA81FB81808191810E94A60360E08B8512
:100950000E9410047401080D191DE016F10671F4CF
:100960000B2D1A2DC00ED11EC016D10671F0F80144
:1009700061918F01CE010E94F002F6CFF7016191E3
:100980007F01CE010E94F002E8CF61E08B850E94DA
:10099000100481E0DF91CF911F910F91FF90EF90B4
:1009A000DF90CF90BF90AF909F908F900895CF939E
:1009B000DF9390E0FC01E75FFA4F24918D539B4F4A
:1009C000FC0184918823C9F090E0880F991FFC01F5
:1009D000E75BFB4FA591B491FC01ED59FB4FC5912D
:1009E000D49161110DC09FB7F8948C91209582230A
:1009F0008C938881282328839FBFDF91CF9108950E
:100A0000623051F49FB7F8943C91822F80958323F4
:100A10008C93E8812E2BEFCF8FB7F894EC912E2B8F
:100A20002C938FBFEACF1F93CF93DF93182FEB0147
:100A300061E00E94D704209739F460E0812FDF91B4
:100A4000CF911F910C941004CF3FD10511F461E0B8
:100A5000F5CFE12FF0E0E358FB4FE491E150E231B4
:100A600008F0B3C0F0E08827E75CFA4F8F4F0C9492
:100A7000F8384B055305580562056C05E505760504
:100A80007E05860590059A05A405B305BD05E50517
:100A9000C705D105DB0584B5806884BDC7BDDF917E
:100AA000CF911F91089584B5806284BDC8BDF7CFF2
:100AB00080918000806880938000D0938900C093EB
:100AC0008800EDCF80918000806280938000D09379
:100AD0008B00C0938A00E3CF809180008860809370
:100AE0008000D0938D00C0938C00D9CF8091B0004E
:100AF00080688093B000C093B300D1CF8091B000E4
:100B000080628093B000C093B400C9CF8091900000
:100B1000806880939000D0939900C0939800BFCFD5
:100B200080919000806280939000D0939B00C0934E
:100B30009A00B5CF80919000886080939000D09308
:100B40009D00C0939C00ABCF8091A00080688093F3
:100B5000A0008091A0008F7B8093A000D093A9007B
:100B6000C093A8009CCF8091A00080628093A000D9
:100B7000D093AB00C093AA0092CF8091A000886070
:100B80008093A000D093AD00C093AC0088CF80913B
:100B90002001806880932001D0932901C09328010F
:100BA0007ECF80912001806280932001D0932B0121
:100BB000C0932A0174CF8091200188608093200126
:100BC000D0932D01C0932C016ACFC038D1050CF011
:100BD0003ECF33CFCF93DF93D72FC82F8091A70974
:100BE000681B770B77FF03C0719561957109809140
:100BF000A4090E9413058091A7092D2F281B330BF0
:100C0000B90137FF03C07195619571098091A509FC
:100C10000E9413058091A7092C2F281B330BB901C3
:100C200037FF03C07195619571098091A609DF9125
:100C3000CF910C94130560E070E080E00C94EA051D
:100C400090917B00977F90937B0086538064809384
:100C50007C0080917A00806480937A0080917A0091
:100C600086FDFCCF809178009091790008953FB780
:100C7000F89480916F0790917007A0917107B091DF
:100C8000720726B5A89B05C02F3F19F00196A11D3C
:100C9000B11D3FBFBA2FA92F982F8827BC01CD01C6
:100CA000620F711D811D911D42E0660F771F881F25
:100CB000991F4A95D1F708958F929F92AF92BF9254
:100CC000CF92DF92EF92FF926B017C010E94370678
:100CD0004B015C01C114D104E104F104B9F00E949C
:100CE0003706681979098A099B09683E73408105AE
:100CF000910580F321E0C21AD108E108F10888EEDD
:100D0000880E83E0981EA11CB11CE4CFFF90EF90E9
:100D1000DF90CF90BF90AF909F908F9008952FB7A6
:100D2000F89460916B0770916C0780916D079091BA
:100D30006E072FBF0895089508950F931F93CF93C3
:100D4000DF93EC010E948F06688779878A879B87EB
:100D5000E881F9810284F385E02DCE01199597FF92
:100D600015C00E948F06088519852A853B85601B62
:100D7000710B820B930B0C811D812E813F816017BB
:100D800071078207930720F38FEF9FEFDF91CF91D9
:100D90001F910F910895DB0114964D915C91159769
:100DA0006D917C91DC01ED91FC910280F381E02D4D
:100DB0001994AF92BF92CF92DF92EF92FF920F936E
:100DC0001F93CF93DF936C017B018B01040F151FE1
:100DD000EB015E01AE18BF08C017D10759F0699149
:100DE000D601ED91FC910190F081E02DC60119959D
:100DF000892B79F7C501DF91CF911F910F91FF905A
:100E0000EF90DF90CF90BF90AF900895FC01538D8D
:100E1000448D252F30E0842F90E0821B930B5417D4
:100E200010F0CF96089501970895FC01918D828D61
:100E3000981761F0A28DAE0FBF2FB11D5D968C91FA
:100E4000928D9F5F9F73928F90E008958FEF9FEF39
:100E50000895FC01918D828D981731F0828DE80FF5
:100E6000F11D858D90E008958FEF9FEF0895FC01AF
:100E7000918D228D892F90E0805C9F4F821B91097C
:100E80008F73992708958AEE97E00E94370721E033
:100E9000892B09F420E0822F089587E898E00E94CA
:100EA000370721E0892B09F420E0822F0895FC0107
:100EB000A48DA80FB92FB11DA35ABF4F2C91848DBB
:100EC00090E001968F739927848FA689B7892C9318
:100ED000A089B1898C91837080648C93938D848D6B
:100EE000981306C00288F389E02D80818F7D80836E
:100EF0000895EF92FF920F931F93CF93DF93EC012E
:100F000081E0888F9B8D8C8D98131AC0E889F989B0
:100F1000808185FF15C09FB7F894EE89FF896083B3
:100F2000E889F98980818370806480839FBF81E034
:100F300090E0DF91CF911F910F91FF90EF90089576
:100F4000F62E0B8D10E00F5F1F4F0F731127E02E51
:100F50008C8D8E110CC00FB607FCFACFE889F98989
:100F6000808185FFF5CFCE010E945707F1CFEB8D31
:100F7000EC0FFD2FF11DE35AFF4FF0829FB7F8945D
:100F80000B8FEA89FB8980818062CFCFCF93DF937B
:100F9000EC01888D8823B9F0AA89BB89E889F98991
:100FA0008C9185FD03C0808186FD0DC00FB607FCC6
:100FB000F7CF8C9185FFF2CF808185FFEDCFCE01F9
:100FC0000E945707E9CFDF91CF91089580E090E02C
:100FD000892B29F00E944D0781110E94000080E0BA
:100FE00090E0892B49F080E090E0892B29F00E9465
:100FF000000081110E94000080E090E0892B29F020
:101000000E94430781110E94000080E090E0892B3C
:1010100049F080E090E0892B29F00E9400008111C6
:101020000C9400000895DC0180E0615090F09D91E7
:101030009827E92FEF70F0E0E451FC4F2491E92F5D
:10104000E295EF70F0E0E450FC4FE491822F8E27A0
:10105000ECCF0895DC012C911196ED91FC91F89460
:101060008181822B81839281322F309593239283C9
:1010700087E090E00197F1F781818323818383E208
:1010800090E00197F1F790817894EFECF0E03197E0
:10109000F1F7922381E009F480E00895FC0190814A
:1010A0000180F281E02D292F209560FF14C0F89473
:1010B0008281822382838181892B8183A3E2B0E0B4
:1010C0001197F1F78281982B9283789487ED90E0C5
:1010D0000197F1F70895F8948281822382838181B8
:1010E000892B8183AFEFB0E01197F1F78281982BC4
:1010F000928378948FE090E0EBCFDF92EF92FF92B3
:101100000F931F93CF93DF93EC01D62EE42E08E0CC
:1011100010E0FF24F39461E08D2D8F2109F460E04D
:10112000CE010E944E08FF0C01501109A1F7E110F9
:1011300010C0F894E981FA81918188818095892392
:101140008183E981FA8192818881809589238283D4
:101150007894DF91CF911F910F91FF90EF90DF90E6
:101160000895EF92FF920F931F93CF93DF938C011B
:101170007B0140E065E50E947D08E70188E0E80E1C
:10118000F11C699140E0C8010E947D08CE15DF0581
:10119000C1F7DF91CF911F910F91FF90EF900895CC
:1011A000FC0190810180F281E02DF8948181292F4A
:1011B00020958223818378943DE743E050E03150CD
:1011C00029F1DA011197F1F780818923C1F3F894AD
:1011D0008281822382838181892B81837894ABE70A
:1011E000B7E01197F1F7F894818182238183A3E11D
:1011F000B1E01197F1F78081982381E009F080E058
:101200007894E3E6F6E03197F1F7089580E00895E9
:101210006F927F928F929F92AF92BF92CF92DF9206
:10122000EF92FF920F931F93CF93DF938C01EB010B
:1012300080916209909163090E94D008882309F483
:101240003FC0B80180916209909163090E94B10882
:1012500040E06EEB80916209909163090E947D08E5
:101260007E016E0189E0C80ED11C8E01A09062093A
:10127000B090630988E0882E912C712C66246394C9
:10128000C5010E942A0881117628660CE1E08E1AB9
:101290009108B1F7F80171928F01CE16DF0631F790
:1012A00080916209909163090E94D008813041F4D5
:1012B000F70181917F01811105C0E017F107C1F7A6
:1012C00090E008C068E0CE010E94130891E02885F4
:1012D0002813F6CF892FDF91CF911F910F91FF90A7
:1012E000EF90DF90CF90BF90AF909F908F907F90C6
:1012F0006F900895DC01ED91FC910190F081E02D5B
:1013000019942091E606260F3327331F2132310529
:10131000ECF42091C007FC0190E080E0243069F0FB
:1013200082E00895A091E6062191AC014A53594FFD
:10133000A40FB52FB11D2C930196861798F38091B9
:10134000E606680F6093E60680E0089581E0089560
:101350001092C00781E08093BF0710929A0761E066
:1013600084E10E94100461E085E10E941004E9EB31
:10137000F0E080818E7F808380818D7F808388E410
:101380008093B80085E48093BC000895109279079B
:10139000109278071092C7071092E9070E94A809D7
:1013A00088EE92E0909377078093760789EE92E03B
:1013B00090937507809374070895CF93DF9391E01E
:1013C0009093C5068823B9F0C091B800D091BA00B7
:1013D0008091BC008A7B8093BC0060E084E10E9425
:1013E000100460E085E10E9410040E94A809D093D7
:1013F000BA00C093B800DF91CF9108958F929F9269
:10140000AF92BF92CF92DF92EF92FF920F931F9312
:10141000CF93DF93D091E907D13208F0D7C0182FCE
:10142000C091E8070E9437066B017C018091C007DC
:1014300081116BC082E08093C0071093BF078FEFCC
:101440008093BE071092BD07D093BC07A8ECB7E00D
:10145000ECE9F7E080E0D81391C010929B078091EF
:101460009B07CC0FC82BC0939B0780919A078130B4
:1014700009F088C010929A070E9437066B017C0120
:1014800080919B078093BB008091C2079091C30716
:10149000A091C407B091C507892B8A2B8B2BA1F093
:1014A0000E9437060091C2071091C3072091C4071C
:1014B0003091C5076C197D098E099F09061717071A
:1014C0002807390708F442C08091BC0083FDD8CFBB
:1014D00085EC8093BC000E9437066B017C018091F3
:1014E000C007823009F450C08091BE078F3F09F4D5
:1014F0006FC08091BE07803209F46CC08091BE0736
:10150000803309F469C084E026C08091C2079091BD
:10151000C307A091C407B091C507892B8A2B8B2BD9
:1015200009F484CF0E9437068090C2079090C307C9
:10153000A090C407B090C5076C197D098E099F095A
:1015400086169706A806B90608F070CF8091C107E5
:101550000E94DD0985E01092C7071092E9071092FA
:10156000C607DF91CF911F910F91FF90EF90DF9011
:10157000CF90BF90AF909F908F9008959D91919341
:101580008F5F69CF85EEA5CF8091C2079091C30789
:10159000A091C407B091C507892B8A2B8B2B09F426
:1015A0009ECF0E9437060091C2071091C307209179
:1015B000C4073091C5076C197D098E099F0906176C
:1015C00017072807390708F08ACFC0CF81E0C3CFBB
:1015D00080E0C1CF82E0BFCF83E0BDCFCF93DF9368
:1015E000EC018B818823A1F0888191E09093C6075C
:1015F0008093E8071092C7071092E90781E00E94E4
:10160000FE0991E0811190E0892FDF91CF9108953B
:101610000E94C60981E08B83CE010E94EE0A982FBA
:101620008111E2CFF1CF8F929F92AF92BF92CF9272
:10163000DF92EF92FF920F931F93CF93DF93D82FF8
:10164000C62F142F613208F09CC00E9437066B0130
:101650007C018091C00781116FC081E08093C00739
:101660001093BF079FEF9093BE071092BD079C0F8A
:101670009093BC0780939B0780919B07DD0FD82B2D
:10168000D0939B0780919A07813009F07CC010921B
:101690009A070E9437066B017C0180919B0780931B
:1016A000BB008091C2079091C307A091C407B0917D
:1016B000C507892B8A2B8B2BA1F00E94370600913E
:1016C000C2071091C3072091C4073091C5076C1958
:1016D0007D098E099F09061717072807390708F49F
:1016E0004CC08091BC0083FDD8CF85EC8093BC00BA
:1016F0000E9437066B017C018091C007813009F49C
:1017000044C08091BD078C1710F4C091BD07ECE96F
:10171000F7E0AAE7B7E080E08C1359C08C2FDF9187
:10172000CF911F910F91FF90EF90DF90CF90BF90DE
:10173000AF909F908F9008958091C2079091C307BA
:10174000A091C407B091C507892B8A2B8B2B09F474
:1017500080CF0E9437068090C2079090C307A09068
:10176000C407B090C5076C197D098E099F098616BC
:101770009706A806B90608F06CCF8091C1070E94B1
:10178000DD09C0E0CBCF85EEB1CF8091C20790914B
:10179000C307A091C407B091C507892B8A2B8B2B57
:1017A00009F4AACF0E9437060091C2071091C3071F
:1017B0002091C4073091C5076C197D098E099F09D6
:1017C000061717072807390708F096CFD6CF91914B
:1017D0009D938F5FA1CF0895E0917907809178075D
:1017E000E81730F4F0E0E658F84F808190E0089573
:1017F0008FEF9FEF089590917907809178072FEFF1
:101800003FEF981748F4E92FF0E0E658F84F2081B1
:1018100030E09F5F90937907C90108958091780720
:1018200090917907891B990B0895CF92DF92EF92DF
:10183000FF920F931F93CF93DF937C01CB018A011B
:101840002091C607222389F0EB016B01C40ED51E3F
:10185000CC15DD0569F06991D701ED91FC910190FE
:10186000F081E02DC7011995F3CF642F0E94810903
:10187000C801DF91CF911F910F91FF90EF90DF9002
:10188000CF900895CF93DF931F92CDB7DEB76983D2
:101890002091C6072223F9F02091E907203258F061
:1018A00021E030E0FC013383228390E080E00F9060
:1018B000DF91CF9108958091C707E82FF0E0E853BA
:1018C000F84F998190838F5F8093C7078093E907D2
:1018D00081E090E0ECCF61E0CE0101960E948109A9
:1018E000F7CF90E080E00895CF92DF92EF92FF92E1
:1018F000CF93DF93DC011796CC911797D0E061115D
:10190000DC2F18962C91189730E0220F331F245F9C
:101910003B4F50E040E0F90185919491FC01F0804B
:10192000BA0190E080E0EF2DEC23ED1310C04F5F83
:101930005F4F1D96CD90DD90ED90FC9050976C150B
:101940007D058E059F0538F36FEF7FEFCB01DF91AB
:10195000CF91FF90EF90DF90CF9008958F929F925C
:10196000AF92BF92CF92DF92EF92FF920F931F93AD
:10197000CF93DF93CDB7DEB7C054D1400FB6F89404
:10198000DEBF0FBECDBF8C010E948F06F801C1845F
:10199000D284E384F4849B01AC012C193D094E09E7
:1019A0005F0969017A0130EDC31637E0D306E1041F
:1019B000F104A8F48189C05CDE4F0FB6F894DEBF55
:1019C0000FBECDBFDF91CF911F910F91FF90EF9090
:1019D000DF90CF90BF90AF909F908F9008956187D8
:1019E00072878387948714821382128211821082F5
:1019F00062E085810E94D70461E070E080E090E0C1
:101A00000E945C0661E0F80185810E94D70460E0D5
:101A1000F80185810E941004F80186818551823089
:101A2000E8F48BE291E10197F1F762E0F80185813A
:101A30000E94D704F801828990E00E94DD02F894A8
:101A400060E0C8010E94740C6F3F7F4F8F4F9F4F23
:101A500061F4F801118A789480E0ADCF64E170E020
:101A600080E090E00E945C06E0CF61E0C8010E9447
:101A7000740C6F3F7F4F8F4F9F4F59F39E012F5F25
:101A80003F4F79015E013FEBA31A3EEFB30A6701B6
:101A900060E0C8010E94740CF60160837183828348
:101AA000938361E0C8010E94740CF601648375831E
:101AB00086839783F8E0CF0ED11CCA14DB0441F76C
:101AC000789430E020E0F70180809180A280B3809C
:101AD0004481558166817781FFEF8F169F06AF069F
:101AE000BF0631F04F3F8FEF58076807780719F4AA
:101AF000F801118AB1CFF90183E0F595E7958A9550
:101B0000E1F7E00FF11F8081880F84169506A60685
:101B1000B706F0F080832F5F3F4FF8E0EF0EF11C27
:101B20002832310581F6F801448120818181280F16
:101B30003327331F8281280F311D8381820F932F1A
:101B4000911D99274817190699F681E0818B33CFAB
:101B50008160E0CFFC0183898B3051F480E492E412
:101B6000AFE0B0E0FB0184A395A3A6A3B7A30895BB
:101B700080E894E8AEE1B0E0F5CF0895E1E1F7E068
:101B800082A993A9019693AB82AB0895E1E1F7E0B6
:101B900086A197A1A0A5B1A50196A11DB11D86A3FF
:101BA00097A3A0A7B1A708950895BF92CF92DF92FF
:101BB000EF92FF920F931F93CF93DF93EC01B62E1A
:101BC000C72E8D85811105C0CE010E94D0088111DC
:101BD0000EC01B861D861C8680E0DF91CF911F9171
:101BE0000F91FF90EF90DF90CF90BF90089540E06D
:101BF00060EFCE010E947D0801E0E12CD12C11E0C4
:101C0000CE010E942A08F82ECE010E942A0891E0F7
:101C1000F91218C0813099F51134D8F2DB86D11051
:101C200002C081E08D878B81882399F22396EB2D6A
:101C3000FC2DCF01089629912193E817F907D9F7D0
:101C400081E0CBCFEE2DF0E0F8120FC08B85181796
:101C5000A0F4DE01AE0FBF1F13968C91802379F4A0
:101C6000F12C193008F41C87D12EEC0FFD1F838155
:101C7000902F9095892383830AC08113F1CFFE01B1
:101C8000EE0DF11D8381802B8383FF24F3946F2D50
:101C9000CE010E944E081F5F000F11F4E39401E093
:101CA00087E08E1508F0ACCFB7CF2F923F924F92BE
:101CB0005F926F927F928F929F92AF92BF92CF92DC
:101CC000DF92EF92FF920F931F93CF93DF9300D099
:101CD000CDB7DEB76C014B015A012983B8012DB78E
:101CE0003EB73B832A83DC0111968D919C9112971C
:101CF0002C9131E03093C6072093E8071092C70774
:101D00001092E907E114F104C9F5F60164807580C9
:101D10006A147B0408F442C081819281DC01ED9158
:101D2000FC910280F381E02DA501B40119958A157B
:101D30009B0591F589810E94FE0991E081112CC0DB
:101D4000892FEA81FB810FB6F894FEBF0FBEEDBF6D
:101D50000F900F900F90DF91CF911F910F91FF90F7
:101D6000EF90DF90CF90BF90AF909F908F907F903B
:101D70006F905F904F903F902F900895012B29F224
:101D8000DC01ED91FC910280F381E02DA701199512
:101D90008E159F0509F4B9CF90E0D2CF2DB63EB68F
:101DA000EDB7FEB7E619F7090FB6F894FEBF0FBE00
:101DB000EDBF2DB73EB72F5F3F4F2901F12CE12C2E
:101DC000EA14FB0460F585010E191F0960167106FF
:101DD00008F48301D401AE0DBF1DF2019201200F62
:101DE000311FE217F30719F08D918193FACFE00EBE
:101DF000F11ED60111968D919C91DC01ED91FC9123
:101E00000280F381E02DA801B20119958017910796
:101E1000B9F20FB6F8943EBE0FBE2DBEBDCF0FB6C1
:101E2000F8943EBE0FBE2DBE85CFEF92FF920F936A
:101E30001F93CF93DF931F921F92CDB7DEB7FC01A4
:101E40004787508B618B728B8285882339F1448759
:101E5000452F562F672F7727882311F14387BF011E
:101E6000655F7F4F9681478199834A83A081B181C5
:101E70001097C1F0E184F12C8E010F5F1F4F21E01C
:101E800042E050E0CD010E94550E0F900F90DF917F
:101E9000CF911F910F91FF90EF9008954387D8CF76
:101EA0004487DDCFA281B38180E0109771F3248154
:101EB0003581018510E02330310571F44E7F49836F
:101EC0009A830F5F1F4F9E012F5F3F4F42E050E00C
:101ED000CD010E948B04D9CF2115310519F49F77CC
:101EE0009983F1CF2230310511F49068F9CF213078
:101EF000310549F79F779064F3CF2F923F924F922D
:101F00005F926F927F928F929F92AF92BF92CF9289
:101F1000DF92EF92FF920F931F93CF93DF9300D046
:101F200000D000D0CDB7DEB74C01590168012E2D8D
:101F30008DB79EB799878887F12CE12C10E000E0DF
:101F4000C4010E94550E8983811122C019828981A2
:101F5000288539850FB6F8943EBF0FBE2DBF299650
:101F60000FB6F894DEBF0FBECDBFDF91CF911F91AA
:101F70000F91FF90EF90DF90CF90BF90AF909F9028
:101F80008F907F906F905F904F903F902F9008952B
:101F9000D40114964D905C904C145D0420F16C2D8E
:101FA000613208F060E241E0F40180810E94130B8D
:101FB00010927907809378078C151D0439F6CA0CA6
:101FC000DB1CCA14DB0419F2D40111968D919C918B
:101FD000DC01ED91FC910284F385E02D1995F5016A
:101FE00081935F01EECF2DB73EB73D832C838DB734
:101FF0009EB7841995090FB6F8949EBF0FBE8DBF8A
:10200000ADB7BEB71196BB83AA83F12CE12CEC14BB
:10201000FD0408F042C086010E191F094016510642
:1020200008F48201602F013208F060E240E0F40120
:1020300080810E94130B1092790780937807801794
:10204000110651F52A803B809101200F311F3F83FB
:102050002E8331018E819F818615970549F4F50104
:10206000EE0DFF1D2614370491F4E00EF11ECFCFC4
:10207000D40111968D919C91DC01ED91FC9102842B
:10208000F385E02D1995F30181933F01E3CFD10151
:102090008D911D018193E6CF1982EC81FD810FB6F0
:1020A000F894FEBF0FBEEDBF52CFEF920F931F9378
:1020B000CF93DF9300D0CDB7DEB78B83EE24E394CC
:1020C00002E010E09E012F5F3F4F41E050E0BE0173
:1020D0006D5F7F4F80913009909131090E947D0F93
:1020E00089819A819827892798270F900F900F90C0
:1020F000DF91CF911F910F91EF900895EF92FF9292
:102100000F931F93CF93DF931F921F92CDB7DEB72C
:102110008EE28A8384EF8983EE24E394F12C8E018E
:102120000F5F1F4F21E041E050E0BE016E5F7F4F27
:1021300080913009909131090E94550E65E070E060
:1021400080E090E00E945C0686EF0E9455100F90A0
:102150000F90DF91CF911F910F91FF90EF90089515
:10216000FB0101900020E9F73197AF01461B570BA7
:10217000DC01ED91FC910280F381E02D19940F9325
:102180001F93CF93DF938C01D0E0C0E0F801EC0FF8
:10219000FD1F6491662341F087E898E00E9479076B
:1021A000892B11F02196F2CF66EE72E087E898E075
:1021B0000E94B0108C0F9D1FDF91CF911F910F9146
:1021C00008950F931F93CF93DF93EC010E94CB06EA
:1021D0008C0166EE72E0CE010E94B010800F911F5C
:1021E000DF91CF911F910F9108950C94B010CF9370
:1021F000DF93DC0114962D913C911597232B79F0F8
:10220000FB01CD91DC9160817181CE010E945C3C2B
:10221000009729F08C1B9D0BDF91CF9108958FEFD4
:102220009FEFFACF0F931F93CF93DF938C01EB01B6
:10223000FC01808191810097E1F0688179816115CD
:102240007105A9F0428153812C813D8142175307CA
:1022500070F00E94463C8C819D81F80195838483B7
:102260001D821C82DF91CF911F910F9108950E94D2
:10227000CA3A88819981F801918380838A819B8100
:10228000938382838C819D819583848319821882B4
:102290001B821A82E5CFCF93DF93EC01888199816D
:1022A000009711F00E94CA3A198218821D821C827E
:1022B0001B821A82DF91CF910895FC018081918168
:1022C000009711F00C94CA3A0895CF93DF93EC0174
:1022D000835B9F4F0E945D11CE018B5B9F4F0E94DD
:1022E0005D11CE01CD960E945D11CE01C7960E9470
:1022F0005D11CE01C1960E945D11CE018B960E94A8
:102300005D11CE0185960E945D11CE014F960E940F
:102310005D11CE0149960E945D11CE0143960E9447
:102320005D11CE010D96DF91CF910C945D110C944F
:10233000CA3A0C94CA3A0F931F93CF93DF93EC01E0
:1023400088819981009759F02A813B8126173707A8
:1023500030F081E0DF91CF911F910F9108958B01B3
:102360006F5F7F4F0E94533B009759F0998388839A
:102370001B830A832C813D81232B59F7FC0110829A
:10238000E8CF80E0E7CFEF92FF920F931F93CF93B8
:10239000DF936115710541F480E0DF91CF911F91CA
:1023A0000F91FF90EF90089541155105B1F07B0119
:1023B000EC010C811D81040F151FB8010E949B11B7
:1023C000882351F3288139818C819D81B701820F47
:1023D000931F0E94463C1D830C8381E0DECFEF9269
:1023E000FF920F931F93CF93DF9300D000D01F92E3
:1023F0001F92CDB7DEB77C01CB014AE08E010F5FA3
:102400001F4FB8010E940437F80101900020E9F73E
:102410003197AF01401B510BB801C7010E94C31196
:1024200028960FB6F894DEBF0FBECDBFDF91CF91D7
:102430001F910F91FF90EF900895FB0101900020F4
:10244000E9F73197AF01461B570B0C94C311FB0101
:1024500044815581608171810C94C311EF92FF9288
:102460000F931F93CF93DF93EC017B018A01BA0195
:102470000E949B1181110BC0CE010E944B11CE0115
:10248000DF91CF911F910F91FF90EF9008951D83E1
:102490000C83B701888199810E94463CF0CFFB01F3
:1024A00001900020E9F73197AF01461B570B0C94C0
:1024B0002E12CF93DF93EC016115710531F00E946C
:1024C0004F12CE01DF91CF9108950E944B11F9CFA9
:1024D0000F931F93CF93DF9300D000D000D0CDB7E0
:1024E000DEB78C01862FF8011182108213821282CE
:1024F0001582148240E1BE016F5F7F4F90E00E9421
:102500000F37BE016F5F7F4FC8010E944F1229969F
:102510000FB6F894DEBF0FBECDBFDF91CF911F91F4
:102520000F910895CF93DF93EC01FB018617970776
:1025300049F0608171816115710541F044815581D7
:102540000E942E12CE01DF91CF9108950E944B116F
:10255000F9CFFC011182108213821282158214823B
:102560000C949212FC011182108213821282158245
:102570001482FB0101900020E9F73197AF01461B5F
:10258000570B0C942E12AF92BF92CF92DF92EF9224
:10259000FF920F931F93CF93DF935C016B017A013E
:1025A00089012417350720F48F2D7901042F182F66
:1025B00062EF72E0C5010E94B212D6011496CD916D
:1025C000DC91EC16FD06C8F40C171D0708F4E801B1
:1025D000D601ED91FC911197EC0FFD1F1081108237
:1025E0006D917C916E0D7F1DC5010E945912F601FF
:1025F00080819181C80FD91F1883C501DF91CF91C8
:102600001F910F91FF90EF90DF90CF90BF90AF9010
:102610000895EF92FF920F931F93CF93DF931F9232
:102620001F92CDB7DEB78C017B0162EF72E00E9492
:10263000B212C7010E949D0697FD0BC089831A82C2
:1026400041E050E0BE016F5F7F4FC8010E94C3119F
:10265000F0CFC8010F900F90DF91CF911F910F9194
:10266000FF90EF900895EF92FF920F931F93CF93F7
:10267000DF93CDB7DEB768970FB6F894DEBF0FBE15
:10268000CDBF8C01DC018D919C9111979093AF0986
:102690008093AE0912968C9112978093B00913968D
:1026A0008D919C9114979093B2098093B1091596DE
:1026B0008D919C9116979093B4098093B3091796C6
:1026C0008D919C9118979093B6098093B5091996AE
:1026D0008D919C911A979093B8098093B7091B9696
:1026E0008D919C919093BA098093B909B801635F69
:1026F0007F4F8BEB99E00E949212B8016D5E7F4F85
:1027000081EC99E00E949212B801675E7F4F87ECDE
:1027100099E00E949212B801615E7F4F8DEC99E0C2
:102720000E949212B8016B5D7F4F83ED99E00E9489
:102730009212B801655D7F4F89ED99E00E94921277
:10274000B8016F5C7F4F8FED99E00E949212B80143
:10275000695C7F4F85EE99E00E949212B801635C3C
:102760007F4F8BEE99E00E949212F801ED5BFF4FD4
:10277000808191819093F2098093F109B8016B5B9C
:102780007F4F83EF99E00E949212F801E55BFF4FC3
:10279000808191819093FA098093F909B801635B74
:1027A0007F4F8BEF99E00E949212F801ED5AFF4F94
:1027B000808191819093020A8093010A32968081F0
:1027C0008093030A3196808191819093050A8093CA
:1027D000040A3296808191819093070A8093060AB9
:1027E00062EF72E0CE010D960E94B21262EF72E0CB
:1027F000CE0107960E94B2128091030A882399F0B5
:102800006CE572E08091040A9091050A0E94F5102F
:102810008091040A9091050ADC01ED91FC910680FB
:10282000F781E02D1995E091060AF091070AA08939
:10283000B18982E08C93A485B5851C92A685B78565
:102840008FEC8C93108EA489B58986E08C93A28935
:10285000B3898C9180618C93A289B3898C918860B3
:102860008C93A289B3898C9180688C930288F389B8
:10287000E02D80818F7D80838091060A9091070AE8
:102880000097F1F38091030A882399F06AE972E0D6
:102890008091040A9091050A0E94F5108091040A23
:1028A0009091050ADC01ED91FC910680F781E02D05
:1028B00019958091030A882399F06FE972E080915D
:1028C000040A9091050A0E94F5108091040A9091E3
:1028D000050ADC01ED91FC910680F781E02D199548
:1028E0006CED72E0CE0107960E944F12BE01695F47
:1028F0007F4F8091060A9091070A0E94E110609133
:10290000060A7091070ACE0101960E940913BE01C2
:102910006F5F7F4FCE010D960E941211CE0101967E
:102920000E945D116FED72E08D859E850E943D3C99
:102930002091030A892B09F4EDC22223E1F069EE0C
:1029400072E08091040A9091050A0E94F510BE0180
:10295000635F7F4F8091040A9091050A0E94CB0625
:102960008091040A9091050ADC01ED91FC910680AA
:10297000F781E02D199511E0CE0107960E945D11B7
:10298000CE010D960E945D1181E011110C94E11CA5
:1029900062EF72E0CE010D960E94B21262EF72E019
:1029A000CE0107960E94B2128091030A882399F003
:1029B00063EF72E08091040A9091050A0E94F5107D
:1029C0008091040A9091050ADC01ED91FC9106804A
:1029D000F781E02D19956FE073E0CE0107960E9414
:1029E0004F12BE01695F7F4F8091060A9091070ADE
:1029F0000E94E1106091060A7091070ACE010196CB
:102A00000E940913BE016F5F7F4FCE010D960E9499
:102A10001211CE0101960E945D118091030A882354
:102A200031F10091040A1091050A29893A8922504E
:102A3000310950E040E0BE01635F7F4FCE01019657
:102A40000E94C312BE016F5F7F4FC8010E94CB0678
:102A5000CE0101960E945D118091040A9091050AB1
:102A6000DC01ED91FC910680F781E02D1995CE01F6
:102A700007960E945D11CE010D960E945D1164EFD4
:102A800071E080E090E00E945C068091030A882358
:102A900009F464C068E173E08091040A9091050A2A
:102AA0000E94F5100091040A1091050A62EF72E08D
:102AB000CE010D960E94B21262EF72E0CE0107962F
:102AC0000E94B2126EE273E0CE0107960E944F128E
:102AD000BE01695F7F4F8091060A9091070A0E94AC
:102AE000E1106091060A7091070ACE0101960E94DA
:102AF0000913BE016F5F7F4FCE010D960E94121128
:102B0000CE0101960E945D1129893A89225031092E
:102B100046E050E0BE01635F7F4FCE0101960E9408
:102B2000C312CE0107960E945D11CE010D960E9440
:102B30005D11BE016F5F7F4FC8010E94CB06CE01C1
:102B400001960E945D118091040A9091050ADC01B2
:102B5000ED91FC910680F781E02D199562EF72E00E
:102B6000CE010D960E94B21262EF72E0CE0107967E
:102B70000E94B2128091030A882399F065E373E002
:102B80008091040A9091050A0E94F5108091040A30
:102B90009091050ADC01ED91FC910680F781E02D12
:102BA000199563E573E0CE0107960E944F1280915C
:102BB000AE099091AF0960E673E08130910559F05C
:102BC0006AE573E08130910530F066E673E00297C4
:102BD00011F06CE673E0CE0101960E94B212BE01C4
:102BE0006F5F7F4FCE0107960E942712CE0101969C
:102BF0000E945D11BE01695F7F4F8091060A90912E
:102C0000070A0E94E1106091060A7091070ACE013E
:102C100001960E940913BE016F5F7F4FCE010D9692
:102C20000E941211CE0101960E945D118091030A4B
:102C3000882331F10091040A1091050A29893A8903
:102C40002250310950E040E0BE01635F7F4FCE016A
:102C500001960E94C312BE016F5F7F4FC8010E94A0
:102C6000CB06CE0101960E945D118091040A9091DD
:102C7000050ADC01ED91FC910680F781E02D1995A4
:102C8000CE0107960E945D11CE010D960E945D1146
:102C900062EF72E0CE010D960E94B21262EF72E016
:102CA000CE0107960E94B2128091030A882399F000
:102CB00062E773E08091040A9091050A0E94F51082
:102CC0008091040A9091050ADC01ED91FC91068047
:102CD000F781E02D19958091B009813009F031C15B
:102CE00008E010E06FE873E0CE0107960E944F12F3
:102CF000B801CE0107960E94EF1166E973E0CE019C
:102D000007960E941D12BE01695F7F4F8091060ADF
:102D10009091070A0E94E1106091060A7091070ADB
:102D2000CE0101960E940913BE016F5F7F4FCE0155
:102D30000D960E941211CE0101960E945D110F5F47
:102D40001F4F0834110571F6CE0107960E945D11E0
:102D5000CE010D960E945D1162EF72E0CE010D96DC
:102D60000E94B21262EF72E0CE0107960E94B21288
:102D70008091030A882399F06AE973E08091040A3C
:102D80009091050A0E94F5108091040A9091050A1D
:102D9000DC01ED91FC910680F781E02D199564EB43
:102DA00073E0CE0107960E944F128091B109909175
:102DB000B2096EEB73E08130910559F067E075E080
:102DC0008130910530F062E976E0029711F06CE60F
:102DD00073E0CE0101960E94B212BE016F5F7F4F79
:102DE000CE0107960E942712CE0101960E945D1126
:102DF000BE01695F7F4F8091060A9091070A0E9489
:102E0000E1106091060A7091070ACE0101960E94B6
:102E10000913BE016F5F7F4FCE010D960E94121104
:102E2000CE0101960E945D118091030A882331F141
:102E30000091040A1091050A29893A892250310922
:102E400050E040E0BE01635F7F4FCE0101960E94DB
:102E5000C312BE016F5F7F4FC8010E94CB06CE0137
:102E600001960E945D118091040A9091050ADC018F
:102E7000ED91FC910680F781E02D1995CE01079622
:102E80000E945D11CE010D960E945D1162EF72E00D
:102E9000CE010D960E94B21262EF72E0CE0107964B
:102EA0000E94B2128091030A882399F060EC73E0CB
:102EB0008091040A9091050A0E94F5108091040AFD
:102EC0009091050ADC01ED91FC910680F781E02DDF
:102ED000199560EF73E0CE0107960E944F12E091C2
:102EE000B309F091B4096CE673E0EB30F10508F03A
:102EF000CAC08827E158F84E8F4F0C94F838411813
:102F0000761979197C197F198219851988198B19F5
:102F10008E199119222399F06AE972E08091040ACE
:102F20009091050A0E94F5108091040A9091050A7B
:102F3000DC01ED91FC910680F781E02D199510E000
:102F40001BCD823009F000CF10E000E06FE873E0A5
:102F5000CE0107960E944F12B801CE0107960E943B
:102F6000EF1166E973E0CE0107960E941D12BE01C3
:102F7000695F7F4F8091060A9091070A0E94E110D5
:102F80006091060A7091070ACE0101960E9409130A
:102F9000BE016F5F7F4FCE010D960E941211CE01D0
:102FA00001960E945D110F5F1F4F0830110571F6E9
:102FB00000E110E06FE873E0CE0107960E944F1227
:102FC000B801CE0107960E94EF1166E973E0CE01C9
:102FD00007960E941D12BE01695F7F4F8091060A0D
:102FE0009091070A0E94E1106091060A7091070A09
:102FF000CE0101960E940913BE016F5F7F4FCE0183
:103000000D960E941211CE0101960E945D110F5F74
:103010001F4F0134110571F602E410E06FE873E010
:10302000CE0107960E944F12B801CE0107960E946A
:10303000EF1166E973E0CE0107960E941D12BE01F2
:10304000695F7F4F8091060A9091070A0E94E11004
:103050006091060A7091070ACE0101960E94091339
:10306000BE016F5F7F4FCE010D960E941211CE01FF
:1030700001960E945D110F5F1F4F0834110571F614
:1030800063CE6AEF73E0CE0101960E94B212BE01D8
:103090006F5F7F4FCE0107960E942712CE010196E7
:1030A0000E945D11BE01695F7F4F8091060A909179
:1030B000070A0E94E1106091060A7091070ACE018A
:1030C00001960E940913BE016F5F7F4FCE010D96DE
:1030D0000E941211CE0101960E945D118091030A97
:1030E000882331F10091040A1091050A29893A894F
:1030F0002250310950E040E0BE01635F7F4FCE01B6
:1031000001960E94C312BE016F5F7F4FC8010E94EB
:10311000CB06CE0101960E945D118091040A909128
:10312000050ADC01ED91FC910680F781E02D1995EF
:10313000CE0107960E945D11CE010D960E945D1191
:1031400062EF72E0CE010D960E94B21262EF72E061
:10315000CE0107960E94B2128091030A882361F083
:103160006CE074E08091040A9091050A0E94F510C9
:1031700087E898E00E94C60764E274E0CE010796F3
:103180000E944F128091B7099091B8096CE274E0E7
:10319000009731F06FE274E0019711F06CE673E094
:1031A000CE0101960E94B212BE016F5F7F4FCE0129
:1031B00007960E942712CE0101960E945D11BE0162
:1031C000695F7F4F8091060A9091070A0E94E11083
:1031D0006091060A7091070ACE0101960E940913B8
:1031E000BE016F5F7F4FCE010D960E941211CE017E
:1031F00001960E945D118091030A882331F10091AC
:10320000040A1091050A29893A892250310950E0AF
:1032100040E0BE01635F7F4FCE0101960E94C31262
:10322000BE016F5F7F4FC8010E94CB06CE010196A1
:103230000E945D118091040A9091050ADC01ED91D4
:10324000FC910680F781E02D1995CE0107960E942A
:103250005D11CE010D960E945D1162EF72E0CE010C
:1032600043960E94B21262EF72E0CE010D960E9468
:10327000B2128091030A882399F063E374E080918D
:10328000040A9091050A0E94F5108091040A909119
:10329000050ADC01ED91FC910680F781E02D19957E
:1032A00063E573E0CE010D960E944F12E091B509DF
:1032B000F091B6096CE673E0E031F10508F036C034
:1032C0008827EA59F64E8F4F0C94F8389419EE1C63
:1032D000F11CF41CF71CFA1CFD1C001D031D061D2F
:1032E000091D0C1D0F1D121D151D181D6DEF73E01E
:1032F000CACE60E074E0C7CE63E074E0C4CE60E4A0
:1033000076E0C1CE69E673E0BECE66E074E0BBCE87
:1033100069E074E0B8CE65E974E0B5CE6BE874E0BE
:10332000B2CE61E874E0AFCE67E574E0CE010196FD
:103330000E94B212BE016F5F7F4FCE010D960E94B8
:103340002712CE0101960E945D11BE01635F7F4F7F
:103350008091060A9091070A0E94E1106091060A86
:103360007091070ACE0101960E940913BE016F5F9A
:103370007F4FCE0143960E941211CE0101960E940A
:103380005D118091030A882309F46CC00091040A3E
:103390001091050A67EE72E0CE0101960E94B2120A
:1033A000BE016F5F7F4FCE0143960E94F7109C01D4
:1033B0002150310950E040E0BE016D5E7F4FCE01EB
:1033C00007960E94C312BE01695F7F4FC8010E9429
:1033D000CB06CE0107960E945D11CE0101960E9498
:1033E0005D116DE974E08091040A9091050A0E94D4
:1033F000F510E090040AF090050A0F89188D02502C
:10340000110967EE72E0CE0101960E94B212BE0170
:103410006F5F7F4FCE0143960E94F710AC014E5F65
:103420005F4F9801BE016D5E7F4FCE0107960E94EF
:10343000C312BE01695F7F4FC7010E94CB06CE0158
:1034400007960E945D11CE0101960E945D11809148
:10345000040A9091050ADC01ED91FC910680F78148
:10346000E02D1995CE010D960E945D11CE01439677
:103470000E945D1162EF72E0CE010D960E94B212C1
:1034800062EF72E0CE0107960E94B2128091030AA9
:10349000882399F061EA74E08091040A9091050A0A
:1034A0000E94F5108091040A9091050ADC01ED91CB
:1034B000FC910680F781E02D19956CEB74E0CE014C
:1034C00007960E944F126BEB79E0CE0107960E949F
:1034D000271269EC74E0CE0107960E941D12BE010E
:1034E000695F7F4F8091060A9091070A0E94E11060
:1034F0006091060A7091070ACE0101960E94091395
:10350000BE016F5F7F4FCE010D960E941211CE015A
:1035100001960E945D118091030A882331F1009188
:10352000040A1091050A29893A892250310950E08C
:1035300040E0BE01635F7F4FCE0101960E94C3123F
:10354000BE016F5F7F4FC8010E94CB06CE0101967E
:103550000E945D118091040A9091050ADC01ED91B1
:10356000FC910680F781E02D1995CE0107960E9407
:103570005D11CE010D960E945D1162EF72E0CE01E9
:103580000D960E94B21262EF72E0CE0107960E9481
:10359000B2128091030A882399F06BEC74E0809159
:1035A000040A9091050A0E94F5108091040A9091F6
:1035B000050ADC01ED91FC910680F781E02D19955B
:1035C00063EF74E0CE0107960E944F128091B90913
:1035D0009091BA0962E075E08130910559F06CEF85
:1035E00074E08130910530F069E075E0029711F0E8
:1035F0006CE673E0CE0101960E94B212BE016F5FCD
:103600007F4FCE0107960E942712CE0101960E949D
:103610005D11BE01695F7F4F8091060A9091070A94
:103620000E94E1106091060A7091070ACE0101968E
:103630000E940913BE016F5F7F4FCE010D960E945D
:103640001211CE0101960E945D118091030A882318
:1036500031F10091040A1091050A29893A89225012
:10366000310950E040E0BE01635F7F4FCE0101961B
:103670000E94C312BE016F5F7F4FC8010E94CB063C
:10368000CE0101960E945D118091040A9091050A75
:10369000DC01ED91FC910680F781E02D1995CE01BA
:1036A00007960E945D11CE010D960E945D1162EF9A
:1036B00072E0CE010D960E94B21262EF72E0CE016E
:1036C00007960E94B2128091030A882399F060E164
:1036D00075E08091040A9091050A0E94F51080918E
:1036E000040A9091050ADC01ED91FC910680F781B6
:1036F000E02D199563E375E0CE0107960E944F1205
:1037000063ED79E0CE0107960E94271269EC74E020
:10371000CE0107960E941D12BE01695F7F4F809106
:10372000060A9091070A0E94E1106091060A7091C2
:10373000070ACE0101960E940913BE016F5F7F4FF9
:10374000CE010D960E941211CE0101960E945D11CC
:103750008091030A882331F10091040A1091050A2F
:1037600029893A892250310950E040E0BE01635F67
:103770007F4FCE0101960E94C312BE016F5F7F4F43
:10378000C8010E94CB06CE0101960E945D11809176
:10379000040A9091050ADC01ED91FC910680F78105
:1037A000E02D1995CE0107960E945D11CE010D9670
:1037B0000E945D1162EF72E0CE010D960E94B2127E
:1037C00062EF72E0CE0107960E94B2128091030A66
:1037D000882399F063E475E08091040A9091050ACA
:1037E0000E94F5108091040A9091050ADC01ED9188
:1037F000FC910680F781E02D19956BE675E0CE010E
:1038000007960E944F1265EE79E0CE0107960E945E
:10381000271269EC74E0CE0107960E941D12BE01CA
:10382000695F7F4F8091060A9091070A0E94E1101C
:103830006091060A7091070ACE0101960E94091351
:10384000BE016F5F7F4FCE010D960E941211CE0117
:1038500001960E945D118091030A882331F1009145
:10386000040A1091050A29893A892250310950E049
:1038700040E0BE01635F7F4FCE0101960E94C312FC
:10388000BE016F5F7F4FC8010E94CB06CE0101963B
:103890000E945D118091040A9091050ADC01ED916E
:1038A000FC910680F781E02D1995CE0107960E94C4
:1038B0005D11CE010D960E945D1162EF72E0CE01A6
:1038C0000D960E94B21262EF72E0CE0107960E943E
:1038D000B2128091030A882399F06CE775E0809119
:1038E000040A9091050A0E94F5108091040A9091B3
:1038F000050ADC01ED91FC910680F781E02D199518
:1039000068EA75E0CE0107960E944F126FED79E0EC
:10391000CE0107960E94271269EC74E0CE0107964B
:103920000E941D12BE01695F7F4F8091060A90912F
:10393000070A0E94E1106091060A7091070ACE0101
:1039400001960E940913BE016F5F7F4FCE010D9655
:103950000E941211CE0101960E945D118091030A0E
:10396000882331F10091040A1091050A29893A89C6
:103970002250310950E040E0BE01635F7F4FCE012D
:1039800001960E94C312BE016F5F7F4FC8010E9463
:10399000CB06CE0101960E945D118091040A9091A0
:1039A000050ADC01ED91FC910680F781E02D199567
:1039B000CE0107960E945D11CE010D960E945D1109
:1039C00080E068960FB6F894DEBF0FBECDBFDF91E2
:1039D000CF911F910F91FF90EF9008956BE574E0E8
:1039E000A5CC6FE574E0A2CC63E674E09FCC67E6FB
:1039F00074E09CCC6BE674E099CC6FE674E096CCF6
:103A000063E774E093CC67E774E090CC6BE774E015
:103A10008DCC6FE774E08ACC64E874E087CC69E809
:103A200074E084CC6EE874E081CC63E974E07ECC11
:103A300068E974E07BCCEF92FF920F931F93CF93D2
:103A4000DF93CDB7DEB762970FB6F894DEBF0FBE37
:103A5000CDBF8C0162EF72E0CE010D960E94B212D2
:103A600062EF72E0CE0107960E94B21281E080936D
:103A7000080A8091030A882381F069EB75E087E8E2
:103A800098E00E94F51064EE75E087E898E00E94E7
:103A9000F51087E898E00E94C6076CEF75E0CE014C
:103AA00007960E944F1261E070E0CE0107960E94D7
:103AB000EF11BE01695F7F4F8091060A9091070A5E
:103AC0000E94E1106091060A7091070ACE010196EA
:103AD0000E940913BE016F5F7F4FCE010D960E94B9
:103AE0001211CE0101960E945D118091030A882374
:103AF00031F1E090040AF090050A29893A892250B0
:103B0000310950E040E0BE01635F7F4FCE01019676
:103B10000E94C312BE016F5F7F4FC7010E94CB0698
:103B2000CE0101960E945D118091040A9091050AD0
:103B3000DC01ED91FC910680F781E02D19958091D3
:103B4000030A882399F065E076E08091040A909159
:103B5000050A0E94F5108091040A9091050ADC0183
:103B6000ED91FC910680F781E02D199562EF72E0EE
:103B7000CE010D960E944F126AE176E0CE010796C3
:103B80000E944F12B801CE0107960E94271269ECDD
:103B900074E0CE0107960E941D12BE01695F7F4F3F
:103BA0008091060A9091070A0E94E1108091060A0E
:103BB0009091070ADC01ED91FC910084F185E02DE4
:103BC0001995892B09F44CC06091060A7091070A77
:103BD000CE0101960E940913BE016F5F7F4FCE0197
:103BE0000D960E941211CE0101960E945D118091E6
:103BF000030A8823E1F067EE72E08091040A909155
:103C0000050A0E94F510BE01635F7F4F8091040A90
:103C10009091050A0E94CB068091040A9091050AB2
:103C2000DC01ED91FC910680F781E02D199566E2AB
:103C300076E0CE0101960E94B212BE016F5F7F4F07
:103C4000CE010D960E94F7108C01CE0101960E94C4
:103C50005D110F3F1F4F09F4A9CF1092080AA6CF9C
:103C60008091080A8111A2CFCE0107960E945D11B2
:103C7000CE010D960E945D1180E062960FB6F89419
:103C8000DEBF0FBECDBFDF91CF911F910F91FF908F
:103C9000EF900895EF92FF920F931F93CF93DF93CE
:103CA00000D000D0CDB7DEB78C017B0162EF72E0AF
:103CB0000E94B2128FE08E1528F068E973E0C80107
:103CC0000E941D126E2DCE0101960E946812BE0147
:103CD0006F5F7F4FC8010E942712CE0101960E949C
:103CE0005D118FE08F1528F068E973E0C8010E942C
:103CF0001D126F2DCE0101960E946812BE016F5FEA
:103D00007F4FC8010E942712CE0101960E945D11CB
:103D1000C80126960FB6F894DEBF0FBECDBFDF9167
:103D2000CF911F910F91FF90EF90089585ED8093B3
:103D3000BC008091C2079091C307A091C407B091C5
:103D4000C5070796A11DB11D23E0B695A7959795C8
:103D500087952A95D1F72091BC0024FD03C01092CD
:103D6000C00708954091C2075091C3076091C407EE
:103D70007091C507452B462B472B69F30097A1058A
:103D8000B10541F025E32A95F1F700000197A1095B
:103D9000B109E1CF8091C1070C94DD09CF92DF9288
:103DA000EF92FF920F931F93CF93DF938C01EB0160
:103DB000FB01349680E2DF011D928A95E9F784E2E7
:103DC00090E0A0E0B0E088839983AA83BB83F801E8
:103DD00085819681A781B0858C839D83AE83BF83C7
:103DE0008CE090E0A0E0B0E088879987AA87BB8745
:103DF0000E948F06688B798B8A8B9B8BD8011396D8
:103E00000D911C91C8010E94AE0C882349F0F80165
:103E100086818B3028F08D3040F08551823070F1F2
:103E200060E070E080EC9FE71BC0618170E090E093
:103E300080E00E9440372DEC3CEC4CEC5DE30E94AE
:103E40009F376B017C01F801608170E090E080E0B9
:103E50000E9440379B01AC01C701B6010E94103996
:103E60006C8B7D8B8E8B9F8B81E0DF91CF911F912F
:103E70000F91FF90EF90DF90CF9008956081718156
:103E800076276727762790E080E00E943E372DEC6A
:103E90003CEC4CEC5DE30E949F37E2CF8F929F9207
:103EA000AF92BF92EF92FF921F93CF93DF937C016B
:103EB000EB01FB01349680E2DF011D928A95E9F760
:103EC00084E290E0A0E0B0E088839983AA83BB837A
:103ED000F70185819681A781B0858C839D83AE8310
:103EE000BF838DE090E0A0E0B0E088879987AA8743
:103EF000BB870E948F06688B798B8A8B9B8BD7013F
:103F00001396ED90FC90C7010E94AE0C882341F0FF
:103F1000F70186818C3009F455C038F48B30E1F01C
:103F200060E070E080EC9FE73EC085518230C0F7D2
:103F30001281612F70E0762F662766277F77838155
:103F4000682B90E080E00E943E372DEC3CEC4CEC7E
:103F50005DE30E949F3751C0628170E090E080E095
:103F60000E943E374B015C01F701138117FF0AC025
:103F7000AC019B0160E070E080E89FEB0E940F398C
:103F80004B015C011F70612F70E090E080E00E94A7
:103F900040372DEC3CEC4CEC5DE30E949F37A501D3
:103FA00094010E9410396C8B7D8B8E8B9F8B81E0EE
:103FB000DF91CF911F91FF90EF90BF90AF909F90B6
:103FC0008F9008951281612F70E090E080E00E9450
:103FD0003E374B015C01F70163816F7070E090E048
:103FE00080E00E9440372DEC3CEC4CEC5DE30E94FD
:103FF0009F37A50194010E94103917FFD4CF905824
:10400000D2CFCF93DF93EB01FC0183894BE050E0EB
:1040100061E376E08C30C1F058F44BE050E06BE2A5
:1040200076E08B3089F04BE050E063E476E00CC042
:104030004BE050E067E376E0853131F04BE050E053
:104040006DE376E0863179F7CE010E944D3C1B8608
:10405000DF91CF9108950F931F93CF93DF938C013E
:10406000EB0188E2DB011D928A95E9F7F801838173
:1040700094810E94012081E090E0A0E0B0E08C8774
:104080009D87AE87BF87F80185819681A781B0851E
:10409000888B998BAA8BBB8B8CE090E0A0E0B0E082
:1040A0008C8B9D8BAE8BBF8BBE01838194810E94D4
:1040B000AA0DD8011396ED91FC9183898C3009F4F7
:1040C00041C078F48B3009F1188E198E1A8E1B8E30
:1040D0001C8E1D8E1E8E1F8E18A219A21AA21BA244
:1040E0002CC08551823080F780E090E0A8ECB2E4EB
:1040F000888F998FAA8FBB8F1C8E1D8E1E8E1F8E50
:104100008DEC9CECACECBDE314C080E090E0A0EA48
:10411000B2E4888F998FAA8FBB8F80E090E0A0EAED
:10412000B1E48C8F9D8FAE8FBF8F80E090E0A0EACE
:10413000B0E488A399A3AAA3BBA3DF91CF911F9159
:104140000F91089580E090E0AEEBB2E4E2CF0F93E0
:104150001F93CF93DF938C01EB0188E2DB011D926B
:104160008A95E9F7F801838194810E94012081E01A
:1041700090E0A0E0B0E08C879D87AE87BF87F80114
:1041800085819681A781B085888B998BAA8BBB8B03
:104190008DE090E0A0E0B0E08C8B9D8BAE8BBF8B70
:1041A000BE01838194810E94AA0DD8011396ED91DE
:1041B000FC9183898C3091F178F48B30B1F0188EBA
:1041C000198E1A8E1B8E1C8E1D8E1E8E1F8E18A28F
:1041D00019A21AA21BA21DC08531A9F1863179F757
:1041E00080E090E0AAEFB2E432C080E090E0A8E482
:1041F000B2E4888F998FAA8FBB8F1C8E1D8E1E8E66
:104200001F8E80E090E0A0E0B0E488A399A3AAA369
:10421000BBA3DF91CF911F910F91089580E090E0B3
:10422000A0E7B2E4888F998FAA8FBB8F80E090E0DF
:10423000A0EAB1EC8C8F9D8FAE8FBF8F80E090E0B5
:10424000A0E0BFE3E2CF80E090E0A0EAB2E4888F94
:10425000998FAA8FBB8F80E090E0A0E2B2EC8C8FA8
:104260009D8FAE8FBF8F8DEC9CECACECBDE3CDCFC2
:10427000EF92FF920F931F93CF93DF93CDB7DEB7EB
:10428000CE56D1090FB6F894DEBF0FBECDBF61E0A8
:104290008DE00E94D70461E08091A4090E94D704B8
:1042A00061E08091A5090E94D70461E08091A60990
:1042B0000E94D7046FEF70E08FEF0E94EA0568E874
:1042C00073E180E090E00E945C0660E085E00E947F
:1042D000D70462E0809183090E94D7040E948F0670
:1042E000605D77408109910960938709709388091F
:1042F0008093890990938A0987E38093900980913C
:1043000094096E968FAF6E9782E592E06D969FAF9F
:104310008EAF6D978091950990919609A0969FAF69
:104320008EAFA0978091970990919809A0919909D3
:10433000B0919A09A4968CAF9DAFAEAFBFAFA497D2
:10434000BE016F5F7F4FCE01855A9F4F0E94A7200D
:104350006DE376E0CE0101960E943D3C892BC1F1D0
:104360006FEF70E080E00E94EA050E94C60910929B
:10437000C40623E22093700980917809909179090D
:1043800001E00093C6072093E8071092C707109238
:10439000E907DC01ED91FC910190F081E02D61E1F4
:1043A000199581E00E94FE09182F6AE070E080E014
:1043B00090E00E945C06123009F4B3C098F5112316
:1043C000E9F18FEB93E01130A9F18CE193E032C079
:1043D00080919D096E968FAF6E9784E492E06D9602
:1043E0009FAF8EAF6D9780919E0990919F09A09687
:1043F0009FAF8EAFA0978091A0099091A109A09145
:10440000A209B091A309A4968CAF9DAFAEAFBFAF88
:10441000A497BE016F5F7F4FCE01855A9F4F0E94C8
:104420002B20A3CF88E593E0133021F08CE393E0B9
:10443000143059F60E94BF1081E07AC081E190E00B
:1044400090937709809376090E948F0660937A098A
:1044500070937B0980937C0990937D098091780902
:1044600090917909209170090093C6072093E8077D
:104470001092C7071092E90762E470E00E947A097F
:1044800081E00E94FE09182F8091780990917909A6
:10449000209170090093C6072093E8071092C70780
:1044A0001092E90765E670E00E947A0981E00E94B7
:1044B000FE09182B80917809909179092091700953
:1044C0000093C6072093E8071092C7071092E907E8
:1044D00060917609709177090E947A0981E00E94C3
:1044E000FE09182B6AE070E080E090E00E945C0614
:1044F000123009F403C250F41123B1F08FEE92E0B0
:10450000113009F497CF8CE492E094CF88E892E0E0
:10451000133009F48FCF8CE692E0143009F48ACF7F
:10452000F2CF8AE893E086CF85E48093710980E03A
:104530008093C4068091490990914A09892BA9F476
:1045400086E090E00E942E3AFC0180914C09808325
:1045500084E299E092838183138280E290E09583E4
:104560008483F0934A09E0934909E0904909F09067
:104570004A090E94C60911E0F7011383C7010E948E
:10458000EE0A882309F4BDC180E090E1A0E0B0E02C
:1045900080934D0990934E09A0934F09B093500911
:1045A0008AE090E0A0E0B0E0809351099093520936
:1045B000A0935309B093540980E090E0A0E0B0E4E8
:1045C0008093550990935609A0935709B0935809C1
:1045D0008091490990914A09AE961CAE1DAE1EAE5F
:1045E0001FAEAE976D969FAF8EAF6D976F961FAE55
:1045F0001EAE6F97A5961FAFA59785E090E0A39696
:104600009FAF8EAFA397A6961FAFA69702E0A49682
:104610000FAFA49740E050E160E070E0CE01855A12
:104620009F4F0E94150F8091490990914A09188A5D
:10463000198A1A8A1B8A9A8389831C821B821A8789
:1046400018861F821B8709874FE959E360E070E0F5
:10465000CE0101960E94150F80934B0980E0809354
:10466000C40683E08093320980913009909131092A
:10467000009711F00E94CA3A86E090E00E942E3A1C
:104680008C0187E7D8018C9384E299E012969C9381
:104690008E93119713961C92139780E290E01596D3
:1046A0009C938E93149710933109009330090E94C4
:1046B000C60981E0F8018383C8010E94EE0A8823BD
:1046C00009F421C180EDAF968FAFAF97EE24E3944C
:1046D00001E010E09E012F5F3F4F41E050E0BE013E
:1046E00062597F4F80913009909131090E947D0F6E
:1046F0008981853509F007C18AEA0E945510909397
:104700003409809333098CEA0E945510909336093E
:10471000809335098EEA0E94551090933809809352
:10472000370980EB0E945510909344098093430908
:1047300082EB0E945510909346098093450984EBC3
:104740000E945510909348098093470986EB0E9478
:10475000551090933A098093390988EB0E945510BF
:1047600090933C0980933B098AEB0E9455109093EB
:104770003E0980933D098CEB0E94551090934009AF
:1047800080933F098EEB0E945510909342098093CD
:10479000410960E084E00E94D704EDE0F5E0E49197
:1047A000E093B606E7ECF4E0E491F0E0EE0FFF1FD3
:1047B000E45FFB4F859194919093B8068093B70680
:1047C0001092C1061092C3061092C2061092C4063F
:1047D00086EB96E0909363098093620910926009DA
:1047E000109261091092590989E080935C0981E077
:1047F00080935D0980935E0980935F091092C006E3
:104800001092BF061092BE061092BD061092BC0612
:104810001092BB061092BA061092B90611E0BE01C2
:10482000655A7F4F80916209909163090E94D50D6E
:10483000882309F488C067E0CE01855A9F4F0E9403
:104840001308A3969FADA3978913E9CF80916009C0
:104850008F5F809360096C968FAD6C97883231F0D2
:1048600008F057C0803111F08232C9F68091610999
:104870008F5F8093610980915909811128C08091CF
:104880006209909163090E94D008BE01655A7F4F6A
:1048900080916209909163090E94B10840E064EB45
:1048A00080916209909163090E947D08809162095C
:1048B000909163090E942A08082F809162099091C3
:1048C00063090E94D008011102C0109359096C9627
:1048D0008FAD6C97803141F1BE016F5F7F4FCE018C
:1048E000855A9F4F0E940809882331F08D818F33AC
:1048F000E9F0B0F48F3119F180E019C08AEB92E051
:1049000099CD81E0ACCE6FEF70E080E00E94EA05C7
:1049100040CF8B3309F4AACF823409F080CFA6CFE1
:104920008F3579F08F3741F78CE001C08AE09091A4
:104930005C09981708F073CF80935C0970CF89E009
:10494000F6CF8BE0F4CFE0916209F0916309138612
:104950001586148612861186108617821682158295
:104960001482138269E077E0809162099091630973
:104970000E94D50D882329F067E089E097E00E9426
:104980001308BE016F5F7F4F89E097E00E9408091E
:10499000811108C081E08093C4066FEF70E080E071
:1049A0000E94EA05109237071092380710923907D3
:1049B00010923A0786EC9DE09093010280930002EA
:1049C00080916A00836080936A00EC9A1092440799
:1049D000109243078EEB9DE09093030280930202B6
:1049E00080916A008C6080936A00ED9A8AEE97E06D
:1049F0009093620A8093610A82E090E090930A0AA1
:104A00008093090A80930B0A10920D0A10920C0AE7
:104A100085E090E090930F0A80930E0A81E090E089
:104A20009093110A8093100A9093550A8093540A28
:104A300090935D0A80935C0A28E030E030934D0A41
:104A400020934C0A9093130A8093120A1092150A2D
:104A50001092140A68E476E086E19AE00E94591206
:104A600069E576E08CE19AE00E9459126AE676E008
:104A70008EE29AE00E94591263E776E08AE39AE0B8
:104A80000E94591264E976E080E49AE00E9459128B
:104A90008091090A90910A0A9A83898380910B0A6E
:104AA0008B8380910C0A90910D0A9D838C83809159
:104AB0000E0A90910F0A9F838E838091100A909125
:104AC000110A998788878091120A9091130A9B870F
:104AD0008A878091140A9091150A9D878C8766E1D8
:104AE0007AE0CE010E960E94A9126CE17AE0CE0126
:104AF00044960E94A91262E27AE0CE014A960E9490
:104B0000A91268E27AE0CE0180960E94A9126EE2B4
:104B10007AE0CE0186960E94A91264E37AE0CE0183
:104B20008C960E94A9126AE37AE0CE01C2960E9496
:104B3000A91260E47AE0CE01C8960E94A91266E448
:104B40007AE0CE01CE960E94A91280914C0A9091F3
:104B50004D0A26969FAF8EAF26976EE47AE0CE017F
:104B60008A5B9F4F0E94A9128091540A9091550A26
:104B70002E969FAF8EAF2E9766E57AE0CE01825BD0
:104B80009F4F0E94A91280915C0A90915D0A6696DF
:104B90009FAF8EAF669780915E0A67968FAF6797DB
:104BA00080915F0A9091600A69969FAF8EAF699776
:104BB0008091610A9091620A6B969FAF8EAF6B975E
:104BC000CE0101960E943313182FCE0101960E9448
:104BD0006511112369F06FEF70E080E00E94EA0533
:104BE00060E67AEE80E090E00E945C060E94382148
:104BF0008091C406811102C00E941B060E948F068C
:104C0000609358077093590780935A0790935B07F6
:104C100060935D0770935E0780935F0790936007D2
:104C200060936207709363078093640790936507AE
:104C3000C259DF4F0FB6F894DEBF0FBECDBFDF9174
:104C4000CF911F910F91FF90EF9008951F920F92B7
:104C50000FB60F9211242F933F938F939F93AF938F
:104C6000BF9380916B0790916C07A0916D07B091F5
:104C70006E0730916A0723E0230F2D3758F5019610
:104C8000A11DB11D20936A0780936B0790936C0759
:104C9000A0936D07B0936E0780916F079091700796
:104CA000A0917107B09172070196A11DB11D80936B
:104CB0006F0790937007A0937107B0937207BF912D
:104CC000AF919F918F913F912F910F900FBE0F90B9
:104CD0001F90189526E8230F0296A11DB11DD2CF73
:104CE0001F920F920FB60F9211240BB60F922F93B3
:104CF0003F934F935F936F937F938F939F93AF9364
:104D0000BF93EF93FF93E0910E02F0910F0219957C
:104D1000FF91EF91BF91AF919F918F917F916F9193
:104D20005F914F913F912F910F900BBE0F900FBE4F
:104D30000F901F9018951F920F920FB60F9211248B
:104D40000BB60F922F933F934F935F936F937F9385
:104D50008F939F93AF93BF93EF93FF93E0910C02D8
:104D6000F0910D021995FF91EF91BF91AF919F9135
:104D70008F917F916F915F914F913F912F910F9004
:104D80000BBE0F900FBE0F901F9018951F920F92A1
:104D90000FB60F9211240BB60F922F933F934F93A0
:104DA0005F936F937F938F939F93AF93BF93EF9393
:104DB000FF93E0910202F09103021995FF91EF91A8
:104DC000BF91AF919F918F917F916F915F914F9123
:104DD0003F912F910F900BBE0F900FBE0F901F9021
:104DE00018951F920F920FB60F9211240BB60F92C7
:104DF0002F933F934F935F936F937F938F939F93E3
:104E0000AF93BF93EF93FF93E0910002F091010203
:104E10001995FF91EF91BF91AF919F918F917F91E4
:104E20006F915F914F913F912F910F900BBE0F901B
:104E30000FBE0F901F9018951F920F920FB60F92F2
:104E400011240BB60F922F933F934F935F936F9361
:104E50007F938F939F93AF93BF93EF93FF93E091D3
:104E60000A02F0910B021995FF91EF91BF91AF915A
:104E70009F918F917F916F915F914F913F912F9172
:104E80000F900BBE0F900FBE0F901F9018951F92A2
:104E90000F920FB60F9211240BB60F922F933F93E0
:104EA0004F935F936F937F938F939F93AF93BF9332
:104EB000EF93FF93E0910802F09109021995FF9199
:104EC000EF91BF91AF919F918F917F916F915F9182
:104ED0004F913F912F910F900BBE0F900FBE0F90EF
:104EE0001F9018951F920F920FB60F9211240BB6B8
:104EF0000F922F933F934F935F936F937F938F9373
:104F00009F93AF93BF93EF93FF93E0910602F091CD
:104F100007021995FF91EF91BF91AF919F918F91EA
:104F20007F916F915F914F913F912F910F900BBEA9
:104F30000F900FBE0F901F9018951F920F920FB6F3
:104F40000F9211240BB60F922F933F934F935F93C1
:104F50006F937F938F939F93AF93BF93EF93FF9341
:104F6000E0910402F09105021995FF91EF91BF9134
:104F7000AF919F918F917F916F915F914F913F91F1
:104F80002F910F900BBE0F900FBE0F901F90189592
:104F90001F920F920FB60F9211240BB60F922F9300
:104FA0003F934F935F936F937F938F939F93AF93B1
:104FB000BF93EF93FF938AEE97E00E945707FF910C
:104FC000EF91BF91AF919F918F917F916F915F9181
:104FD0004F913F912F910F900BBE0F900FBE0F90EE
:104FE0001F9018951F920F920FB60F9211240BB6B7
:104FF0000F922F938F939F93EF93FF93E091FA0774
:10500000F091FB078081E0910008F091010882FD9A
:105010001DC09081809103088F5F8F7320910408D9
:10502000821741F0E0910308F0E0E651F84F958FC8
:1050300080930308FF91EF919F918F912F910F9093
:105040000BBE0F900FBE0F901F9018958081F2CF6E
:105050001F920F920FB60F9211240BB60F922F933F
:105060003F934F935F936F937F938F939F93AF93F0
:10507000BF93EF93FF9387E898E00E945707FF9153
:10508000EF91BF91AF919F918F917F916F915F91C0
:105090004F913F912F910F900BBE0F900FBE0F902D
:1050A0001F9018951F920F920FB60F9211240BB6F6
:1050B0000F922F938F939F93EF93FF93E091970815
:1050C000F09198088081E0919D08F0919E0882FD02
:1050D0001DC090818091A0088F5F8F732091A108DF
:1050E000821741F0E091A008F0E0E957F74F958F63
:1050F0008093A008FF91EF919F918F912F910F9036
:105100000BBE0F900FBE0F901F9018958081F2CFAD
:105110001F920F920FB60F9211240BB60F922F937E
:105120003F934F935F936F937F938F939F93AF932F
:10513000BF93EF93FF938091B900887F803609F485
:105140004DC008F040C0883209F4A9C028F580316C
:1051500009F49DC0C8F4882309F4FBC0883009F421
:1051600096C0FF91EF91BF91AF919F918F917F91E9
:105170006F915F914F913F912F910F900BBE0F90C8
:105180000FBE0F901F901895883109F488C08032A7
:1051900041F78093BE0714C0803409F49DC040F4E9
:1051A0008033B9F38833E9F68093BE0785ECB0C04D
:1051B000803509F485C0883509F496C0883489F6AD
:1051C0000E94961ECECF883909F48CC038F58837F6
:1051D00029F050F4883611F0803719F683E0809377
:1051E000C0071092080757C0883809F47BC080397F
:1051F00019F0803809F0B5CF80910807803208F0A7
:1052000071C0E091080781E08E0F809308078091BC
:10521000BB00F0E0E851F94F80833DC0803B39F09E
:10522000E0F4803A09F479C0883A09F09ACF84E032
:105230008093C0071092E7061092E606E091760789
:10524000F091770719958091E60681110FC081E0F2
:105250008093E6061092C60609C0803C09F4A6CFEA
:10526000883C09F4A3CF883B09F07BCFE091E706A7
:1052700081E08E0F8093E706F0E0EA53F94F8081DA
:105280008093BB009091E7068091E60629C080914B
:105290009B078093BB0085EC8093BC0062CF90910C
:1052A000BD078091BC07981758F5E091BD0781E0D4
:1052B0008E0F8093BD07F0E0E456F84F8081E9CF70
:1052C000E091BD0781E08E0F8093BD078091BB0008
:1052D000F0E0E456F84F80839091BD078091BC07C1
:1052E0009817C8F285E8D8CFE091BD0781E08E0F0E
:1052F0008093BD078091BB00F0E0E456F84F8083B7
:105300008091BF0781115CCF81E080939A0784EA86
:105310008093BC001092C00724CF85EC8093BC0022
:105320001092C00780910807803230F4E09108079E
:10533000F0E0E851F94F10826091080770E0E091C9
:105340007407F091750788EE96E01995109208079A
:1053500008CF1092BE0734CFCF93DF93EC0162EFFA
:1053600072E00D960E94B21262EF72E0CE01439697
:105370000E94B21262EF72E0CE0149960E94B21210
:1053800062EF72E0CE014F960E94B21262EF72E0BD
:10539000CE0185960E94B21262EF72E0CE018B962A
:1053A0000E94B21262EF72E0CE01C1960E94B21268
:1053B00062EF72E0CE01C7960E94B21262EF72E015
:1053C000CE01CD960E94B21262EF72E0CE018B5BED
:1053D0009F4F0E94B21262EF72E0CE01835B9F4F3B
:1053E000DF91CF910C94B212CF93DF93EAEEF7E006
:1053F0001382128288EE93E0A0E0B0E0848395836C
:10540000A683B78320E232E03183208345ED50E06C
:105410005587448744ED50E05787468740ED50E07C
:10542000518B408B41ED50E0538B428B42ED50E06D
:10543000558B448B46ED50E0578B468B118E128E68
:10544000138E148EE7E8F8E013821282848395832A
:10545000A683B7833183208325EC30E0358724870A
:1054600024EC30E03787268720EC30E0318B208B2E
:1054700021EC30E0338B228B22EC30E0358B248B17
:1054800026EC30E0378B268B118E128E138E148E05
:10549000C4E2D9E01B821A828C839D83AE83BF83D2
:1054A00082E392E09983888389E09AE00E94AC29A4
:1054B0008EEA99E00E94AC291092080A62EF72E02D
:1054C00088EA99E00E94B212E4EAF9E088E0808379
:1054D00089E081838AE082838FEF8383AEE7B9E03E
:1054E00085E015968C93159786E116968C93169702
:1054F000EEE0F5E0E4911796EC931797E8ECF4E012
:10550000E4911896EC93189740E85EE360E070E051
:105510001D964D935D936D937C93509753968C930A
:10552000539782E592E055969C938E9354970A2E5A
:105530001B2E58961C920E92112457974FEF5FEF37
:10554000BA0159964D935D936D937C935C9784E477
:1055500092E05E969C938E935D970A2E1B2E9196F9
:105560001C920E921124909792964D935D936D9399
:105570007C939597E0E7F9E085E481838AE999E9EE
:10558000A9E9BFE382839383A483B583178216823C
:1055900083E28083D187C087E9E5F9E0168A158A1E
:1055A0001182E9E4F9E01182108280E4838310869D
:1055B0001186128613861486158616861786109213
:1055C000310910923009DF91CF910895CF93DF9385
:1055D000CDB7DEB7E6970FB6F894DEBF0FBECDBFEE
:1055E000789484B5826084BD84B5816084BD85B5BE
:1055F000826085BD85B5816085BD80916E008160CA
:1056000080936E001092810080918100826080936F
:105610008100809181008160809381008091800071
:105620008160809380008091B10084608093B1009C
:105630008091B00081608093B00080919100826081
:10564000809391008091910081608093910080917E
:1056500090008160809390008091A100826080938F
:10566000A1008091A10081608093A1008091A000A1
:1056700081608093A000809121018260809321014C
:1056800080912101816080932101809120018160BE
:105690008093200180917A00846080937A008091C9
:1056A0007A00826080937A0080917A008160809392
:1056B0007A0080917A00806880937A001092C1000D
:1056C0000E9438210E948F066B017C01C092660700
:1056D000D0926707E0926807F092690780916207AD
:1056E00090916307A0916407B0916507C816D90629
:1056F000EA06FB0690F4AC01BD014095509560951B
:1057000070954C0D5D1D6E1D7F1D483E534061051B
:10571000710518F021E020936107A7019601281B6D
:10572000390B4A0B5B0BDA01C901883E9340A10596
:10573000B10530F480916107882311F40C943B3655
:10574000C0926207D0926307E0926407F092650707
:1057500010926107EAE8F4E08491E6E1F5E0B490A4
:10576000E0EDF4E01491112379F081110E94A90376
:10577000E12FF0E0EE0FFF1FE45FFB4FA591B49126
:105780008C91B82260E009F461E08DE00E94100481
:1057900080915D0790915E07A0915F07B0916007CF
:1057A000C816D906EA06FB0690F4AC01BD01409587
:1057B0005095609570954C0D5D1D6E1D7F1D40369A
:1057C0005A4E6105710518F021E020935C07A7018E
:1057D0009601281B390B4A0B5B0BDA01C901803695
:1057E0009A4EA105B10528F480915C07882309F43D
:1057F00090C6C0925D07D0925E07E0925F07F0927C
:10580000600710925C0760E07FEF80E00E94EA058D
:10581000809194098FA382E592E09EA38DA380914D
:1058200095099091960999A788A7809197099091D9
:105830009809A0919909B0919A098AA79BA7ACA74A
:10584000BDA7BE016F5F7F4FCE0185960E944E1FA0
:10585000CD88DE88EF88F88CA7019601C701B601D4
:105860000E94293A811196C020E030E040E252ECDB
:10587000C701B6010E94393787FD8CC020E030E0B7
:1058800040EA52E4C701B6010E94243A18160CF40B
:1058900081C0A70196016091110770911207809154
:1058A0001307909114070E941039609311077093A9
:1058B00012078093130790931407809115078F5F49
:1058C0008093150780919D098FA384E492E09EA3A5
:1058D0008DA380919E0990919F0999A788A7809197
:1058E000A0099091A109A091A209B091A3098AA74A
:1058F0009BA7ACA7BDA7BE016F5F7F4FCE0185966A
:105900000E94CE1ECD88DE88EF88F88CA701960114
:10591000C701B6010E94293A811142C020E030E05F
:10592000A901C701B6010E94393787FD39C020E0BF
:1059300030E048EC52E4C701B6010E94243A181640
:105940007CF1A7019601609116077091170780916D
:105950001807909119070E941039609316077093E9
:105960001707809318079093190780911A078F5F84
:1059700080931A078091760990917709892BB1F469
:1059800086E294E00E94BF106FEF70E080E00E941A
:10599000EA05CAC06FEF70E080E00E94EA0592CF8E
:1059A0006FEF70E080E00E94EA05E4CF41E062E042
:1059B000809170090E94130B1092790780937807E9
:1059C000C12CD12CB0E8EB2EBFEBFB2E823019F5A9
:1059D0008091780990917909DC01ED91FC91028424
:1059E000F385E02D19958EAB1DAA809178099091D1
:1059F0007909DC01ED91FC910284F385E02D199584
:105A0000EDA9FEA98E2B9F2BBC0190E080E00E94A7
:105A10003E376B017C010E948F0660937A09709378
:105A20007B0980937C0990937D0920E030E040E879
:105A30005FEBC701B6010E943937882309F4A4CF70
:105A4000609171096534A9F070E090E080E00E94F7
:105A50003E379B01AC0160E070E08AE892E40E946E
:105A60007C399B01AC01C701B6010E949F376B01D5
:105A70007C0180917609909177098132910511F02E
:105A8000419751F420E030E040E05FE3C701B60108
:105A90000E949F376B017C0120917209309173093C
:105AA0004091740950917509C701B6010E947C3973
:105AB0006B017C01AC019B010E94293A811164CFEA
:105AC00020E030E040E85FE3C701B6010E943937CB
:105AD00087FD5ACF20E03FEF4FE757E4C701B601FB
